[
  {
    "jsonrpc": "2.0",
    "result": {
      "author": "0x00a0a24b9f0e5ec7aa4c7389b8302fd0123194de",
      "difficulty": "0xfffffffffffffffffffffffffffffffd",
      "extraData": "0xd583010a098650617269747986312e32372e30826c69",
      "gasLimit": "0x7a1200",
      "gasUsed": "0x5208",
      "hash": "0xb412dfc6322966fff2d7934c67f2dbb258fe153c5633a11d635bad87c1c6f4f1",
      "logsBloom": "0x00000000000000000000000000000000000000000000000000000000000000000000000000000000000000000000000000000000000000000000000000000000000000000000000000000000000000000000000000000000000000000000000000000000000000000000000000000000000000000000000000000000000000000000000000000000000000000000000000000000000000000000000000000000000000000000000000000000000000000000000000000000000000000000000000000000000000000000000000000000000000000000000000000000000000000000000000000000000000000000000000000000000000000000000000000000",
      "miner": "0x00a0a24b9f0e5ec7aa4c7389b8302fd0123194de",
      "number": "0x895443",
      "parentHash": "0x1e2fa7b2e5dc8b75c9751d0686e7c7ffa17a80bd852fcf63cc05a3829db7a63f",
      "receiptsRoot": "0x056b23fbba480696b65fe5a59b8f2148a1299103c4f57df839233af2cf4ca2d2",
      "sealFields": [
        "0x8416eeb397",
        "0xb84114cc64703c7c03133194d260445f3a58e264b141d8cbb34ae11e512cf9fbd1a94737c9df63f53ff0106a4fbb351d1c7d0d3d27811e57be119f6cdc2a0317766f01"
      ],
      "sha3Uncles": "0x1dcc4de8dec75d7aab85b567b6ccd41ad312451b948a7413f0a142fd40d49347",
      "signature": "14cc64703c7c03133194d260445f3a58e264b141d8cbb34ae11e512cf9fbd1a94737c9df63f53ff0106a4fbb351d1c7d0d3d27811e57be119f6cdc2a0317766f01",
      "size": "0x2b7",
      "stateRoot": "0x2ea2d36ef7fc2e8150bf3b0d43225a6760a6ac9c7b12389cb63895e6ba4801c9",
      "step": "384742295",
      "timestamp": "0x5bbace5c",
      "totalDifficulty": "0x87113400000000000000000000000484dee94f",
      "transactions": [
        {
          "blockHash": "0xb412dfc6322966fff2d7934c67f2dbb258fe153c5633a11d635bad87c1c6f4f1",
          "blockNumber": "0x895443",
          "chainId": null,
          "condition": null,
          "creates": null,
          "from": "0x003bbce1eac59b406dd0e143e856542df3659075",
          "gas": "0x186a0",
          "gasPrice": "0x37baef359",
          "hash": "0x70f1aa055b0547e216268c83a56ba7769c3ebb1ab023b85233efcf8e0a4efd90",
          "input": "0x",
          "nonce": "0x8060",
          "publicKey": "0x1b17207500785cd6b116488908ff3c464b5af92d1cd6298f438f95b08db2c0d150685e40f282f783dbbd5502449d7d38ee5a42adf8ee5b6e31cff38506f66714",
          "r": "0x25d160099e09746b59b35539d10c981fd54b6e8f49b7fbb7fc6af890fbeff953",
          "raw": "0xf86f82806085037baef359830186a0948daa2b5d364cf3761a025f0005d55bd83ef4716f8829a2241af62c0000801ba025d160099e09746b59b35539d10c981fd54b6e8f49b7fbb7fc6af890fbeff953a07d96c5c9041c130c361fe33039927c5bc07c37adfb32ae05ecd6a4cbd3add291",
          "s": "0x7d96c5c9041c130c361fe33039927c5bc07c37adfb32ae05ecd6a4cbd3add291",
          "standardV": "0x0",
          "to": "0x8daa2b5d364cf3761a025f0005d55bd83ef4716f",
          "transactionIndex": "0x0",
          "v": "0x1b",
          "value": "0x29a2241af62c0000"
        }
      ],
      "transactionsRoot": "0x9cf091c21ec2a4af9cc61e53546ef0e0d8a6347d1d5d5c1057196df243bfb7dc",
      "uncles": []
    },
    "id": 1
  },
  {
    "jsonrpc": "2.0",
    "result": {
      "author": "0x00d6cc1ba9cf89bd2e58009741f4f7325badc0ed",
      "difficulty": "0xfffffffffffffffffffffffffffffffe",
      "extraData": "0xde830200068f5061726974792d457468657265756d86312e32392e30827769",
      "gasLimit": "0x7a1200",
      "gasUsed": "0x0",
      "hash": "0xe090a770a148e4f421432500e399f9dd95f61c46ef16cd4decaeaa8574360574",
      "logsBloom": "0x00000000000000000000000000000000000000000000000000000000000000000000000000000000000000000000000000000000000000000000000000000000000000000000000000000000000000000000000000000000000000000000000000000000000000000000000000000000000000000000000000000000000000000000000000000000000000000000000000000000000000000000000000000000000000000000000000000000000000000000000000000000000000000000000000000000000000000000000000000000000000000000000000000000000000000000000000000000000000000000000000000000000000000000000000000000",
      "miner": "0x00d6cc1ba9cf89bd2e58009741f4f7325badc0ed",
      "number": "0x895444",
      "parentHash": "0xb412dfc6322966fff2d7934c67f2dbb258fe153c5633a11d635bad87c1c6f4f1",
      "receiptsRoot": "0x56e81f171bcc55a6ff8345e692c0f86e5b48e01b996cadc001622fb5e363b421",
      "sealFields": [
        "0x8416eeb398",
        "0xb8416379012684750705355de566c8dcf227b30f00e4e7b54e69ceecd44d04a4d4c562f81e98197ef1f09518250b25fb2878adb571e8cb6d736b0ee86cb4af0fb6a901"
      ],
      "sha3Uncles": "0x1dcc4de8dec75d7aab85b567b6ccd41ad312451b948a7413f0a142fd40d49347",
      "signature": "6379012684750705355de566c8dcf227b30f00e4e7b54e69ceecd44d04a4d4c562f81e98197ef1f09518250b25fb2878adb571e8cb6d736b0ee86cb4af0fb6a901",
      "size": "0x24c",
      "stateRoot": "0x48fbefd7ca6cc03a8eeff87c13545a56a92bb7586756268d0ac70e93f3823f01",
      "step": "384742296",
      "timestamp": "0x5bbace60",
      "totalDifficulty": "0x87113500000000000000000000000484dee94d",
      "transactions": [],
      "transactionsRoot": "0x56e81f171bcc55a6ff8345e692c0f86e5b48e01b996cadc001622fb5e363b421",
      "uncles": []
    },
    "id": 1
  }
]