[
  {
    "jsonrpc": "2.0",
    "result": {
      "author": "0x00a0a24b9f0e5ec7aa4c7389b8302fd0123194de",
      "difficulty": "0xfffffffffffffffffffffffffffffffc",
      "extraData": "0xde830200088f5061726974792d457468657265756d86312e32392e30826c69",
      "gasLimit": "0x7a1200",
      "gasUsed": "0xce405",
      "hash": "0xa8b402b6902d51baf4496ea4b713c4618aaf7da3a5cb42b2883cbe0c3740d00d",
      "logsBloom": "0x00000000000000000000000000000000000000000000000000000000000000000000000000000000002000000000000000000000800000000000000000200000000000000000000000000000000000000000000000000000000008200000000000000000000000000000080200000000000000000000000100200000000000000000000000000000000000000000000000000000000000008000000000000000020000000000000000000000000000000000000000000200000000000000000000000000000000000000000000000000000000100000000000000000000000000014000000000000000000000000000000000000000000000000000000000000",
      "miner": "0x00a0a24b9f0e5ec7aa4c7389b8302fd0123194de",
      "number": "0x95152f",
      "parentHash": "0xa6fb0f9edc63faeece36899271597e02d823236e074621e86818a9ec8c81fbcf",
      "receiptsRoot": "0x0b25212aed89d84e8d8310c05ae7b93553b7bc5852b196156b07acc5cb9a2871",
      "sealFields": [
        "0x841706ddd3",
        "0xb841ec84d37696dc80964256145e48bb7fe4e19f0c89a96a2920cd4b07c442a668af07e853d64eb5d869d7331d3fcd8d5450286ca70bd22dbc8a04890333e807a45e01"
      ],
      "sha3Uncles": "0x1dcc4de8dec75d7aab85b567b6ccd41ad312451b948a7413f0a142fd40d49347",
      "signature": "ec84d37696dc80964256145e48bb7fe4e19f0c89a96a2920cd4b07c442a668af07e853d64eb5d869d7331d3fcd8d5450286ca70bd22dbc8a04890333e807a45e01",
      "size": "0x1002",
      "stateRoot": "0x0f2edeefe886e51ee9f8efa61c265f0cfee825f9e97c4ddeadb7b64d3498aabc",
      "step": "386325971",
      "timestamp": "0x5c1b774c",
      "totalDifficulty": "0x92d22000000000000000000000000484bafe27",
      "transactions": [
        {
          "blockHash": "0xa8b402b6902d51baf4496ea4b713c4618aaf7da3a5cb42b2883cbe0c3740d00d",
          "blockNumber": "0x95152f",
          "chainId": null,
          "condition": null,
          "creates": null,
          "from": "0x00f78fc9f73d0cc77776a71d342aa20d3e7322ea",
          "gas": "0x5208",
          "gasPrice": "0x4a817c800",
          "hash": "0xe6227270b5816f72a6e4ec687609f8c6bd6862bf78c5a3fec3eb784f93849ead",
          "input": "0x",
          "nonce": "0xd8",
          "publicKey": "0x8464ac4e1beb5668b2317e5520bec6ce7001d3e16df41f28674dc6e5ce5f84ecf763e0b6be4a514cb0b2a98b388377344c80273c7b8b705fb01918aa34cc2315",
          "r": "0xff65251390fb9de200fc23062f3810ba0e62bd3ccf0ca299445dae1698106498",
          "raw": "0xf86d81d88504a817c8008252089412eafeffa3a6685b029a67fab2e80ab0200551408804a41f90288b7d0d801ba0ff65251390fb9de200fc23062f3810ba0e62bd3ccf0ca299445dae1698106498a05dc9e9fa761cdc6eecd273c5525dbec44d443da0f033bdfa298d418cb783e12a",
          "s": "0x5dc9e9fa761cdc6eecd273c5525dbec44d443da0f033bdfa298d418cb783e12a",
          "standardV": "0x0",
          "to": "0x12eafeffa3a6685b029a67fab2e80ab020055140",
          "transactionIndex": "0x0",
          "v": "0x1b",
          "value": "0x4a41f90288b7d0d"
        },
        {
          "blockHash": "0xa8b402b6902d51baf4496ea4b713c4618aaf7da3a5cb42b2883cbe0c3740d00d",
          "blockNumber": "0x95152f",
          "chainId": null,
          "condition": null,
          "creates": null,
          "from": "0x00f78fc9f73d0cc77776a71d342aa20d3e7322ea",
          "gas": "0x5208",
          "gasPrice": "0x4a817c800",
          "hash": "0xca3f16e57db2d98f1c9007a729ca073f4405ac64d0389961eb4f08eb9164182b",
          "input": "0x",
          "nonce": "0xd9",
          "publicKey": "0x8464ac4e1beb5668b2317e5520bec6ce7001d3e16df41f28674dc6e5ce5f84ecf763e0b6be4a514cb0b2a98b388377344c80273c7b8b705fb01918aa34cc2315",
          "r": "0x27f92c720da05c5a8b4c74afd8982acb83a044874ff659237f5b9b8801e3356",
          "raw": "0xf86d81d98504a817c8008252089431e129134d07ad43fda9e0c3d397c9ad2b3b26378804a41f90288b7d0d801ca0027f92c720da05c5a8b4c74afd8982acb83a044874ff659237f5b9b8801e3356a00b8248a81ddc14e5bc7f838dee68b64a660c5ee1ec5da2b108627639a9116885",
          "s": "0xb8248a81ddc14e5bc7f838dee68b64a660c5ee1ec5da2b108627639a9116885",
          "standardV": "0x1",
          "to": "0x31e129134d07ad43fda9e0c3d397c9ad2b3b2637",
          "transactionIndex": "0x1",
          "v": "0x1c",
          "value": "0x4a41f90288b7d0d"
        }
      ],
      "transactionsRoot": "0x5031b64c962caecc4b0e8f4002e78e932ddd2b2a7e92d66e24069065097176f9",
      "uncles": []
    },
    "id": 1
  },
  {
    "jsonrpc": "2.0",
    "result": {
      "author": "0x00d6cc1ba9cf89bd2e58009741f4f7325badc0ed",
      "difficulty": "0xfffffffffffffffffffffffffffffffe",
      "extraData": "0xde830201088f5061726974792d457468657265756d86312e33302e30827769",
      "gasLimit": "0x7a1200",
      "gasUsed": "0x5d678",
      "hash": "0xf88d3c101217190913346c7b7a7255d429ff0136e28300cdf8526d3234230bd3",
      "logsBloom": "0x00000000000000000000080000000000000000000000000000000000000000000000000000000000000000000000000100000000000000000000000000000000000000000000000000000008000008000000000000000000100020000000000000000000000000000000000000000000000000000000000000080010000000000000000000000000000000000000010000000040000000000000000800004000000000000000000000000000000000040000000000000000000000000000002000000002000000000000000000004000000000000000000000000000000000000000000000000000040020000000000000000000000000000000000000000000",
      "miner": "0x00d6cc1ba9cf89bd2e58009741f4f7325badc0ed",
      "number": "0x951530",
      "parentHash": "0xa8b402b6902d51baf4496ea4b713c4618aaf7da3a5cb42b2883cbe0c3740d00d",
      "receiptsRoot": "0x5183cded73cca8af73b10b0f4911f51f2254761a1a9569fb79d2d28fa402590b",
      "sealFields": [
        "0x841706ddd4",
        "0xb841b5939c2b00b85106476d75a722b181c4a5c292a816589b3cb84100e1a29dab4c5c982fdac6a724bdd9afd3f77ccd4cc94da53d9100f03595defcdf82a59e8a5400"
      ],
      "sha3Uncles": "0x1dcc4de8dec75d7aab85b567b6ccd41ad312451b948a7413f0a142fd40d49347",
      "signature": "b5939c2b00b85106476d75a722b181c4a5c292a816589b3cb84100e1a29dab4c5c982fdac6a724bdd9afd3f77ccd4cc94da53d9100f03595defcdf82a59e8a5400",
      "size": "0xa5e",
      "stateRoot": "0x8f704e4ccb755163b0b60127b1644fc6021679fe5cfc15b85dd579e2170c9813",
      "step": "386325972",
      "timestamp": "0x5c1b7750",
      "totalDifficulty": "0x92d22100000000000000000000000484bafe25",
      "transactions": [
        {
          "blockHash": "0xf88d3c101217190913346c7b7a7255d429ff0136e28300cdf8526d3234230bd3",
          "blockNumber": "0x951530",
          "chainId": null,
          "condition": null,
          "creates": null,
          "from": "0x0011a6fc5bd53fd8e2f5b6c7c123629ef9185362",
          "gas": "0x3de4d",
          "gasPrice": "0x4a817c800",
          "hash": "0xb3252d26b910b6361c6d72370cf303e8dc4bbd7247f363ea32a6901b782c4461",
          "input": "0x2c10e90c000000000000000000000000000000000000000000000000000000000000004000000000000000000000000000000000000000000000000000000000000002600000000000000000000000000000000000000000000000000000000000000010000000000000000000000000d0a1e359811322d97991e03f863a0c30c2cf029c0000000000000000000000002c2edf394638931eb672bd9261d2aa1934874d45000000000000000000000000bdad7a926a7e70c6b0af367d97d992b904bbafcf0000000000000000000000001d3bc44dd6c3f00640a6825b48f1c78770fd21d800000000000000000000000031f7e02b09b4d6ab5d57a8f48ec06b288feb7ecb0000000000000000000000000a3610a0e87ceddee6b81b62b462c7a0fd450e2a0000000000000000000000005a261fa748ea3053b32790963b2de588b100ab2400000000000000000000000016886a2b35bf40c59087500dec9bbc24765382c2000000000000000000000000b14c0f4a8150c028806be46afb5214daea870cb7000000000000000000000000eedd208514b92d6057e1370e9afc69d479d5e5f90000000000000000000000005f65e97c0533da34c7bd72595b5be179c731d382000000000000000000000000b2edad34d3b6318252a35cb80af4df75b398692c0000000000000000000000004a2b588be548ff50c05fd5fc5041384d80d2a8ed000000000000000000000000a80c98433e2a82df3636ed934083e3285163fad80000000000000000000000005c092c72a655bf14fc3c796c35840bc8bd126d27000000000000000000000000b5098bafbf90f278374ecfa973a703fd0eb87a1200000000000000000000000000000000000000000000000000000000000000100000000000000000000000000000000000000000000000000de0b6b3a764000000000000000000000000000000000000000000000000000000c5a743cf9fc10000000000000000000000000000000000000000000000000036b6a875431c0e000000000000000000000000000000000000000000000000000020cf1ce1426600000000000000000000000000000000000000000000000000000e66425db58100000000000000000000000000000000000000000000000000000b1ddd8af35d00000000000000000000000000000000000000000000000000007b00a83048e500000000000000000000000000000000000000000000000000055ebe3ab1c06d000000000000000000000000000000000000000000000000000004bc06baffe2000000000000000000000000000000000000000000000000000212532032069a0000000000000000000000000000000000000000000000000001690b81de40760000000000000000000000000000000000000000000000000000359dfb876bb6000000000000000000000000000000000000000000000000000001ed61d3ef5a0000000000000000000000000000000000000000000000000000edf54cc1e8bb000000000000000000000000000000000000000000000000000000bfff395d95000000000000000000000000000000000000000000000000000141c690e85b2c00",
          "nonce": "0x409f6",
          "publicKey": "0x6a2fb6b38904021713b70aed45886792608014b8f498557a5a8596e91227bc931b4a8390a0037d1d74b6a17b4b045ab4601aad74eadee81710a2e681177c0849",
          "r": "0xc896a8c54f56e66ceef1a293682d0cdb18b899d76861e2602f2a0e615adc36dd",
          "raw": "0xf904ee830409f68504a817c8008303de4d9421bdcedd9c8fd2efcbc15f186c399f58caa35f2d80b904842c10e90c000000000000000000000000000000000000000000000000000000000000004000000000000000000000000000000000000000000000000000000000000002600000000000000000000000000000000000000000000000000000000000000010000000000000000000000000d0a1e359811322d97991e03f863a0c30c2cf029c0000000000000000000000002c2edf394638931eb672bd9261d2aa1934874d45000000000000000000000000bdad7a926a7e70c6b0af367d97d992b904bbafcf0000000000000000000000001d3bc44dd6c3f00640a6825b48f1c78770fd21d800000000000000000000000031f7e02b09b4d6ab5d57a8f48ec06b288feb7ecb0000000000000000000000000a3610a0e87ceddee6b81b62b462c7a0fd450e2a0000000000000000000000005a261fa748ea3053b32790963b2de588b100ab2400000000000000000000000016886a2b35bf40c59087500dec9bbc24765382c2000000000000000000000000b14c0f4a8150c028806be46afb5214daea870cb7000000000000000000000000eedd208514b92d6057e1370e9afc69d479d5e5f90000000000000000000000005f65e97c0533da34c7bd72595b5be179c731d382000000000000000000000000b2edad34d3b6318252a35cb80af4df75b398692c0000000000000000000000004a2b588be548ff50c05fd5fc5041384d80d2a8ed000000000000000000000000a80c98433e2a82df3636ed934083e3285163fad80000000000000000000000005c092c72a655bf14fc3c796c35840bc8bd126d27000000000000000000000000b5098bafbf90f278374ecfa973a703fd0eb87a1200000000000000000000000000000000000000000000000000000000000000100000000000000000000000000000000000000000000000000de0b6b3a764000000000000000000000000000000000000000000000000000000c5a743cf9fc10000000000000000000000000000000000000000000000000036b6a875431c0e000000000000000000000000000000000000000000000000000020cf1ce1426600000000000000000000000000000000000000000000000000000e66425db58100000000000000000000000000000000000000000000000000000b1ddd8af35d00000000000000000000000000000000000000000000000000007b00a83048e500000000000000000000000000000000000000000000000000055ebe3ab1c06d000000000000000000000000000000000000000000000000000004bc06baffe2000000000000000000000000000000000000000000000000000212532032069a0000000000000000000000000000000000000000000000000001690b81de40760000000000000000000000000000000000000000000000000000359dfb876bb6000000000000000000000000000000000000000000000000000001ed61d3ef5a0000000000000000000000000000000000000000000000000000edf54cc1e8bb000000000000000000000000000000000000000000000000000000bfff395d95000000000000000000000000000000000000000000000000000141c690e85b2c001ba0c896a8c54f56e66ceef1a293682d0cdb18b899d76861e2602f2a0e615adc36dda0404524d3aba1c0b840b73fbdd6b1c34c40deef276753fcca3e262c0b0591538e",
          "s": "0x404524d3aba1c0b840b73fbdd6b1c34c40deef276753fcca3e262c0b0591538e",
          "standardV": "0x0",
          "to": "0x21bdcedd9c8fd2efcbc15f186c399f58caa35f2d",
          "transactionIndex": "0x0",
          "v": "0x1b",
          "value": "0x4a41f90288b7d0d"
        }
      ],
      "transactionsRoot": "0x7d16ee629fb799dba8a585f34502d5e764ba4d3cb057af21f5c1bcd4ce93888a",
      "uncles": []
    },
    "id": 1
  }
]