[
  {
    "jsonrpc": "2.0",
    "result": {
      "author": "0x00d6cc1ba9cf89bd2e58009741f4f7325badc0ed",
      "difficulty": "0x2",
      "extraData": "0xde830201088f5061726974792d457468657265756d86312e33302e30827769",
      "gasLimit": "0x7a1200",
      "gasUsed": "0x93029",
      "hash": "0x41aa01aff2d894661d97bbe2dc091486167f7ba1a7751f8d3fdc902339d1099b",
      "logsBloom": "0x020000000000000000040000000010004108004000000000000000200000000000000800000000000000000000000080000480008000004c0002000204200000080001000020000004000008000000000000000000000000000000001000008010000240900000000000000000000000000000000080000000000010000800000000000000000000000000000000000000000000004000000100000000000000020002000000000000000020002400000000000005000000001000000000000000404002000000000400000000000042000000000000000000000000000000000010000000000200000000010000000000400000000000000040000000000000",
      "miner": "0x0000000000000000000000000000000000000000",
      "number": "0x94dc30",
      "parentHash": "0xa1e31bdba8be654bdd7eb92f627e01e1f4cc9b006885cc1c9ea0f6fcf121c9fc",
      "receiptsRoot": "0xfcfdd14a3464afc011b007ae121961d28f6e877eced1ca705cb3cd0d1cdcea1d",
      "sealFields": [
        "0x84170676db",
        "0xb841d0cebff26e03a17b99a87058417e3f72faf49ba7599bff563d7cab82178558f309ca5bad70ec803cef303204a1e56aa18d1f8efa3805100910b4daa8fe3b387500"
      ],
      "sha3Uncles": "0x1dcc4de8dec75d7aab85b567b6ccd41ad312451b948a7413f0a142fd40d49347",
      "signature": "d0cebff26e03a17b99a87058417e3f72faf49ba7599bff563d7cab82178558f309ca5bad70ec803cef303204a1e56aa18d1f8efa3805100910b4daa8fe3b387500",
      "size": "0x8e5",
      "stateRoot": "0xc835c73f9366a50911993cfb8779dcfb3d2d427c83b15c0d68ab7dd46e04efde",
      "step": "386299611",
      "timestamp": "0x5c19db6c",
      "totalDifficulty": "0x92992100000000000000000000000484bb9e1e",
      "transactions": [
        {
          "blockHash": "0x41aa01aff2d894661d97bbe2dc091486167f7ba1a7751f8d3fdc902339d1099b",
          "blockNumber": "0x94dc30",
          "chainId": "0x2a",
          "condition": null,
          "creates": null,
          "from": "0x0ff8d2412b13ff129f53ee8dd0eda5f2ae600494",
          "gas": "0x4619d",
          "gasPrice": "0x3b9aca00",
          "hash": "0x86c73840543d46a697052ad8c83be3a0bf120f6062c39bad4087715b521c9c20",
          "input": "0xbe45fd6200000000000000000000000023236af7d03c4b0720f709593f5ace0ea92e77cf00000000000000000000000000000000000000000000001b1ae4d6e2ef500000000000000000000000000000000000000000000000000000000000000000006000000000000000000000000000000000000000000000000000000000000000402a010001010001020000000000000001000000000000000000000000000002122a01000101000102000000000000000100000000000000000000000000000149",
          "nonce": "0xca",
          "publicKey": "0x3bdd203a8ba81bbd2e3dfce50913c62a4a62e3d103eeb46b32f288da2050dd8d93ae9e9547c0d512966bf19262ad32957d91e7972b0d120cdf2f329d1fd75891",
          "r": "0xfb7deb3f3fd1a073adf0d0f6ab8a03f724ece069f268e769266d2334775c31fa",
          "raw": "0xf9012a81ca843b9aca008304619d94f8720eb6ad4a530cccb696043a0d10831e2ff60e80b8c4be45fd6200000000000000000000000023236af7d03c4b0720f709593f5ace0ea92e77cf00000000000000000000000000000000000000000000001b1ae4d6e2ef500000000000000000000000000000000000000000000000000000000000000000006000000000000000000000000000000000000000000000000000000000000000402a010001010001020000000000000001000000000000000000000000000002122a0100010100010200000000000000010000000000000000000000000000014977a0fb7deb3f3fd1a073adf0d0f6ab8a03f724ece069f268e769266d2334775c31faa03a0b0fe25d27028a7dc72f8585adb7e28b2f96d126c2a5e41b4816c7f2c949c2",
          "s": "0x3a0b0fe25d27028a7dc72f8585adb7e28b2f96d126c2a5e41b4816c7f2c949c2",
          "standardV": "0x0",
          "to": "0xf8720eb6ad4a530cccb696043a0d10831e2ff60e",
          "transactionIndex": "0x3",
          "v": "0x77",
          "value": "0x0"
        }
      ],
      "transactionsRoot": "0x0ff8f99ebc3ca242b4510e5cc5f329ae2093783891805d48f79d2f28bbc55b06",
      "uncles": []
    },
    "id": 1
  },
  {
    "jsonrpc": "2.0",
    "result": {
      "author": "0x00a0a24b9f0e5ec7aa4c7389b8302fd0123194de",
      "difficulty": "0x2",
      "extraData": "0xde830200088f5061726974792d457468657265756d86312e32392e30826c69",
      "gasLimit": "0x7a1200",
      "gasUsed": "0x20d266",
      "hash": "0xef742f61f76fea72922c3728326cfaeb99372bf04cde226bc7ddf0b9362799d7",
      "logsBloom": "0x02000000000000000000000000001000400800000000000000000020000000000000080000200100000000000000000000040000800000400000040200200000080001000020000004000008000000000000000000000000000000001080000000000240920000000000000000000010000000000000000000080010000000000000000000000000000000000000000000000040004000000100000000004000000022000000000000000020000000000000000005000000001000000000000000400002000000000400000000000002000000000000000000000000000010000000000000000000000020010000000000400000000000000040000000000000",
      "miner": "0x0000000000000000000000000000000000000000",
      "number": "0x94dc31",
      "parentHash": "0x41aa01aff2d894661d97bbe2dc091486167f7ba1a7751f8d3fdc902339d1099b",
      "receiptsRoot": "0xa5793024761debdc1459d6501160a2ea1e0c5e0025b82efa42e7aa7c99af9bc0",
      "sealFields": [
        "0x841706ef94",
        "0xb841276ecc29cfcd1a58b35e4e6189163f1eb6885a69f6ad472506b400c5afa3edbf45cee583a595d245a4fb505accae987a97adaa2e583c9a43d78bbd960fbc1e5500"
      ],
      "sha3Uncles": "0x1dcc4de8dec75d7aab85b567b6ccd41ad312451b948a7413f0a142fd40d49347",
      "signature": "276ecc29cfcd1a58b35e4e6189163f1eb6885a69f6ad472506b400c5afa3edbf45cee583a595d245a4fb505accae987a97adaa2e583c9a43d78bbd960fbc1e5500",
      "size": "0x143c",
      "stateRoot": "0x2344316b9b17d412611a828b568072824da00b784365ded09d517ce77b7f3756",
      "step": "386330516",
      "timestamp": "0x5c1bbe50",
      "totalDifficulty": "0x92dbe100000000000000000000000484bae2a5",
      "transactions": [
        {
          "blockHash": "0xef742f61f76fea72922c3728326cfaeb99372bf04cde226bc7ddf0b9362799d7",
          "blockNumber": "0x94dc31",
          "chainId": "0x2a",
          "condition": null,
          "creates": null,
          "from": "0x0ff8d2412b13ff129f53ee8dd0eda5f2ae600494",
          "gas": "0x46571",
          "gasPrice": "0x3b9aca00",
          "hash": "0x62c2dd800a2e66a6d6d57c630c2ca243fb592f3f49e0f7b49b666da5cdabd543",
          "input": "0xbe45fd6200000000000000000000000023236af7d03c4b0720f709593f5ace0ea92e77cf00000000000000000000000000000000000000000000001b1ae4d6e2ef500000000000000000000000000000000000000000000000000000000000000000006000000000000000000000000000000000000000000000000000000000000000402a010001010001020000000000000001000000000000000000000000000002142a01000101000102000000000000000100000000000000000000000000000280",
          "nonce": "0x129",
          "publicKey": "0x3bdd203a8ba81bbd2e3dfce50913c62a4a62e3d103eeb46b32f288da2050dd8d93ae9e9547c0d512966bf19262ad32957d91e7972b0d120cdf2f329d1fd75891",
          "r": "0xac5d994033440696cc156a71db7ba635133a06b36a6e94fb2d87bbca1e4b400",
          "raw": "0xf9012b820129843b9aca008304657194f8720eb6ad4a530cccb696043a0d10831e2ff60e80b8c4be45fd6200000000000000000000000023236af7d03c4b0720f709593f5ace0ea92e77cf00000000000000000000000000000000000000000000001b1ae4d6e2ef500000000000000000000000000000000000000000000000000000000000000000006000000000000000000000000000000000000000000000000000000000000000402a010001010001020000000000000001000000000000000000000000000002142a0100010100010200000000000000010000000000000000000000000000028078a00ac5d994033440696cc156a71db7ba635133a06b36a6e94fb2d87bbca1e4b400a0191f567d57b7d1a7ae913bbcd69b8a2b7f9c473c8768bba984f14422067dd0c1",
          "s": "0x191f567d57b7d1a7ae913bbcd69b8a2b7f9c473c8768bba984f14422067dd0c1",
          "standardV": "0x1",
          "to": "0xf8720eb6ad4a530cccb696043a0d10831e2ff60e",
          "transactionIndex": "0x3",
          "v": "0x78",
          "value": "0x0"
        }
      ],
      "transactionsRoot": "0xcda8b6c16b36b38413585e6d26a5636613976ad3feff5f2fadf1d57709a5bde8",
      "uncles": []
    },
    "id": 1
  },
  {
    "jsonrpc": "2.0",
    "result": {
      "author": "0x0020ee4be0e2027d76603cb751ee069519ba81a1",
      "difficulty": "0x2",
      "extraData": "0xde830201038f5061726974792d457468657265756d86312e32392e30826c69",
      "gasLimit": "0x7a1200",
      "gasUsed": "0x1341cf",
      "hash": "0x57fe8120051829cdb14247747bba2d1b57f2c269eb4fe54aaa42dc7dba7fc728",
      "logsBloom": "0x0200000000000000002400000000100041080000000000008000002000000000000008000000100000000000000000010004000080000040000000020020100008000100002000000400000800000200000000000000000010000000100000000800024090000000000000000000000000000000000000000008001200000000000000000000000000080000000000000000004000401002010000000000400000000a000008000000400020006000000000000005000000003000000000000008400002000000000400000000000002000000008000000000000000000000000000000000000000000020010000000000400008000000000040000000000000",
      "miner": "0x0000000000000000000000000000000000000000",
      "number": "0x94dc32",
      "parentHash": "0xef742f61f76fea72922c3728326cfaeb99372bf04cde226bc7ddf0b9362799d7",
      "receiptsRoot": "0xf254109178e96851fbd4f7b9b7bacc74522d69a95befd7e729d84c55b754c49d",
      "sealFields": [
        "0x841706f100",
        "0xb8416df3e6e88df6cfb9f435f37f4436dc7722a244d97fd3da13af56d14f9c79eba80b3baeaca37149e717e249b0e53670d272447929d6e3e14e43155322c5c2daee00"
      ],
      "sha3Uncles": "0x1dcc4de8dec75d7aab85b567b6ccd41ad312451b948a7413f0a142fd40d49347",
      "signature": "6df3e6e88df6cfb9f435f37f4436dc7722a244d97fd3da13af56d14f9c79eba80b3baeaca37149e717e249b0e53670d272447929d6e3e14e43155322c5c2daee00",
      "size": "0x13ba",
      "stateRoot": "0xb0c6d661ee8013c271dcfcf0dacf591846668c47ed7b193af0c28c04396f6dcb",
      "step": "386330880",
      "timestamp": "0x5c1bc400",
      "totalDifficulty": "0x92dcab00000000000000000000000484bae06f",
      "transactions": [
        {
          "blockHash": "0x57fe8120051829cdb14247747bba2d1b57f2c269eb4fe54aaa42dc7dba7fc728",
          "blockNumber": "0x94dc32",
          "chainId": "0x2a",
          "condition": null,
          "creates": null,
          "from": "0x0ff8d2412b13ff129f53ee8dd0eda5f2ae600494",
          "gas": "0x4a258",
          "gasPrice": "0x3b9aca00",
          "hash": "0x3f7a0e8b9be58f54b0a084bef1a32e10add73c97bf4406689da70cc71765775b",
          "input": "0xbe45fd6200000000000000000000000023236af7d03c4b0720f709593f5ace0ea92e77cf00000000000000000000000000000000000000000000001b1ae4d6e2ef500000000000000000000000000000000000000000000000000000000000000000006000000000000000000000000000000000000000000000000000000000000000402a010001010001020000000000000001000000000000000000000000000001072a01000101000102000000000000000100000000000000000000000000000295",
          "nonce": "0x13e",
          "publicKey": "0x3bdd203a8ba81bbd2e3dfce50913c62a4a62e3d103eeb46b32f288da2050dd8d93ae9e9547c0d512966bf19262ad32957d91e7972b0d120cdf2f329d1fd75891",
          "r": "0x54adab494ac4e37e7967ecbfcf7ded0c276289d0eb3aa5fe88f2ba451eab3188",
          "raw": "0xf9012b82013e843b9aca008304a25894f8720eb6ad4a530cccb696043a0d10831e2ff60e80b8c4be45fd6200000000000000000000000023236af7d03c4b0720f709593f5ace0ea92e77cf00000000000000000000000000000000000000000000001b1ae4d6e2ef500000000000000000000000000000000000000000000000000000000000000000006000000000000000000000000000000000000000000000000000000000000000402a010001010001020000000000000001000000000000000000000000000001072a0100010100010200000000000000010000000000000000000000000000029578a054adab494ac4e37e7967ecbfcf7ded0c276289d0eb3aa5fe88f2ba451eab3188a06edea32d353e9399e040fb918fabb3061900599c2811125490847ea3c3a6920b",
          "s": "0x6edea32d353e9399e040fb918fabb3061900599c2811125490847ea3c3a6920b",
          "standardV": "0x1",
          "to": "0xf8720eb6ad4a530cccb696043a0d10831e2ff60e",
          "transactionIndex": "0x5",
          "v": "0x78",
          "value": "0x0"
        }
      ],
      "transactionsRoot": "0x4018bfce39788e36edfe99ec16bb575f2e0809b59657a40fb439a47ca6c06190",
      "uncles": []
    },
    "id": 1
  },
  {
    "jsonrpc": "2.0",
    "result": {
      "author": "0x0020ee4be0e2027d76603cb751ee069519ba81a1",
      "difficulty": "0x2",
      "extraData": "0xde830201038f5061726974792d457468657265756d86312e32392e30826c69",
      "gasLimit": "0x7a1200",
      "gasUsed": "0x1341cf",
      "hash": "0x57fe8120051829cdb14247747bba2d1b57f2c269eb4fe54aaa42dc7dba7fc729",
      "logsBloom": "0x0200000000000000002400000000100041080000000000008000002000000000000008000000100000000000000000010004000080000040000000020020100008000100002000000400000800000200000000000000000010000000100000000800024090000000000000000000000000000000000000000008001200000000000000000000000000080000000000000000004000401002010000000000400000000a000008000000400020006000000000000005000000003000000000000008400002000000000400000000000002000000008000000000000000000000000000000000000000000020010000000000400008000000000040000000000000",
      "miner": "0x0000000000000000000000000000000000000000",
      "number": "0x94dc33",
      "parentHash": "0x57fe8120051829cdb14247747bba2d1b57f2c269eb4fe54aaa42dc7dba7fc728",
      "receiptsRoot": "0xf254109178e96851fbd4f7b9b7bacc74522d69a95befd7e729d84c55b754c49d",
      "sealFields": [
        "0x841706f100",
        "0xb8416df3e6e88df6cfb9f435f37f4436dc7722a244d97fd3da13af56d14f9c79eba80b3baeaca37149e717e249b0e53670d272447929d6e3e14e43155322c5c2daee00"
      ],
      "sha3Uncles": "0x1dcc4de8dec75d7aab85b567b6ccd41ad312451b948a7413f0a142fd40d49347",
      "signature": "6df3e6e88df6cfb9f435f37f4436dc7722a244d97fd3da13af56d14f9c79eba80b3baeaca37149e717e249b0e53670d272447929d6e3e14e43155322c5c2daee00",
      "size": "0x13ba",
      "stateRoot": "0xb0c6d661ee8013c271dcfcf0dacf591846668c47ed7b193af0c28c04396f6dcb",
      "step": "386330880",
      "timestamp": "0x5c1bc400",
      "totalDifficulty": "0x92dcab00000000000000000000000484bae06f",
      "transactions": [
        {
          "blockHash": "0x57fe8120051829cdb14247747bba2d1b57f2c269eb4fe54aaa42dc7dba7fc728",
          "blockNumber": "0x94dc33",
          "chainId": "0x2a",
          "condition": null,
          "creates": null,
          "from": "0x0ff8d2412b13ff129f53ee8dd0eda5f2ae600494",
          "gas": "0x4a258",
          "gasPrice": "0x3b9aca00",
          "hash": "0x3f7a0e8b9be58f54b0a084bef1a32e10add73c97bf4406689da70cc71765775c",
          "input": "0xbe45fd6200000000000000000000000023236af7d03c4b0720f709593f5ace0ea92e77cf00000000000000000000000000000000000000000000001b1ae4d6e2ef500000000000000000000000000000000000000000000000000000000000000000006000000000000000000000000000000000000000000000000000000000000000402a010001010001020000000000000001000000000000000000000000000001072a01000101000102000000000000000100000000000000000000000000000295",
          "nonce": "0x13e",
          "publicKey": "0x3bdd203a8ba81bbd2e3dfce50913c62a4a62e3d103eeb46b32f288da2050dd8d93ae9e9547c0d512966bf19262ad32957d91e7972b0d120cdf2f329d1fd75891",
          "r": "0x54adab494ac4e37e7967ecbfcf7ded0c276289d0eb3aa5fe88f2ba451eab3188",
          "raw": "0xf9012b82013e843b9aca008304a25894f8720eb6ad4a530cccb696043a0d10831e2ff60e80b8c4be45fd6200000000000000000000000023236af7d03c4b0720f709593f5ace0ea92e77cf00000000000000000000000000000000000000000000001b1ae4d6e2ef500000000000000000000000000000000000000000000000000000000000000000006000000000000000000000000000000000000000000000000000000000000000402a010001010001020000000000000001000000000000000000000000000001072a0100010100010200000000000000010000000000000000000000000000029578a054adab494ac4e37e7967ecbfcf7ded0c276289d0eb3aa5fe88f2ba451eab3188a06edea32d353e9399e040fb918fabb3061900599c2811125490847ea3c3a6920b",
          "s": "0x6edea32d353e9399e040fb918fabb3061900599c2811125490847ea3c3a6920b",
          "standardV": "0x1",
          "to": "0xf8720eb6ad4a530cccb696043a0d10831e2ff60e",
          "transactionIndex": "0x5",
          "v": "0x78",
          "value": "0x0"
        }
      ],
      "transactionsRoot": "0x4018bfce39788e36edfe99ec16bb575f2e0809b59657a40fb439a47ca6c06190",
      "uncles": []
    },
    "id": 1
  },
  {
    "jsonrpc": "2.0",
    "result": {
      "author": "0x00d6cc1ba9cf89bd2e58009741f4f7325badc0ed",
      "difficulty": "0x2",
      "extraData": "0xde830201088f5061726974792d457468657265756d86312e33302e30827769",
      "gasLimit": "0x7a1200",
      "gasUsed": "0xa3281",
      "hash": "0x20c06e3ce6f9f8654502f17e6e888b7aa2a8e4174fcb18f0c5ee99fbb9de9d76",
      "logsBloom": "0x02000000400000000040000000001000400800000000000000000020000000000000080000000000001000000000000000040001800000400000000200200000080081000020000804000008000000000000000000000001000000000800000800000040100000000001000000000000000002000080000000000010800010000000000000000000000000000000000000000000004800000900040000000000000002000000000000000020100400000000000005000000001000000000000000400002400000000400000000000002000000000000000000000000000000000000000000000200000010010000000000400000002202000040000040000000",
      "miner": "0x00d6cc1ba9cf89bd2e58009741f4f7325badc0ed",
      "number": "0x94dc34",
      "parentHash": "0x57fe8120051829cdb14247747bba2d1b57f2c269eb4fe54aaa42dc7dba7fc729",
      "receiptsRoot": "0xed31782b4b38df5c967a3e60062232ae3a150d893fe8b32f9f81cc84019f2ed9",
      "sealFields": [
        "0x841706f0d0",
        "0xb841af10a8b18f334ef950b93fc302ebef00b063e431588a06570aaadbeccf7817ba1e44c7aebfeb7a9ecab44c5661fa336bcd62ea4609aac03ff1218b4ace0e840201"
      ],
      "sha3Uncles": "0x1dcc4de8dec75d7aab85b567b6ccd41ad312451b948a7413f0a142fd40d49347",
      "signature": "af10a8b18f334ef950b93fc302ebef00b063e431588a06570aaadbeccf7817ba1e44c7aebfeb7a9ecab44c5661fa336bcd62ea4609aac03ff1218b4ace0e840201",
      "size": "0x85a",
      "stateRoot": "0x1626becba9c5e0b86966dfb593a26a9fd15088bcb43552d407193e8508423ef3",
      "step": "386330832",
      "timestamp": "0x5c1bc340",
      "totalDifficulty": "0x92dc9100000000000000000000000484bae0b9",
      "transactions": [
        {
          "blockHash": "0x20c06e3ce6f9f8654502f17e6e888b7aa2a8e4174fcb18f0c5ee99fbb9de9d76",
          "blockNumber": "0x94dc34",
          "chainId": "0x2a",
          "condition": null,
          "creates": null,
          "from": "0x0ff8d2412b13ff129f53ee8dd0eda5f2ae600494",
          "gas": "0x72af1",
          "gasPrice": "0x3b9aca00",
          "hash": "0x647f28bf8a191b70b91b999a28a91669fa6d02f01ddd9c12dbfd15293e0acd62",
          "input": "0xbe45fd62000000000000000000000000439f118c4ade15ad011f2b8d2350af70fa3046dc00000000000000000000000000000000000000000000005142cdcdf5268c0000000000000000000000000000000000000000000000000000000000000000006000000000000000000000000000000000000000000000000000000000000000402a010001010001020000000000000001000000000000000000000000000002122a010001010001020000000000000001000000000000000000000000000000a7",
          "nonce": "0x13c",
          "publicKey": "0x3bdd203a8ba81bbd2e3dfce50913c62a4a62e3d103eeb46b32f288da2050dd8d93ae9e9547c0d512966bf19262ad32957d91e7972b0d120cdf2f329d1fd75891",
          "r": "0x8d6ad243fd7ffb63ffb3361efca319a7887b9e6166ead1018a861a7dee10139d",
          "raw": "0xf9012b82013c843b9aca0083072af194f8720eb6ad4a530cccb696043a0d10831e2ff60e80b8c4be45fd62000000000000000000000000439f118c4ade15ad011f2b8d2350af70fa3046dc00000000000000000000000000000000000000000000005142cdcdf5268c0000000000000000000000000000000000000000000000000000000000000000006000000000000000000000000000000000000000000000000000000000000000402a010001010001020000000000000001000000000000000000000000000002122a010001010001020000000000000001000000000000000000000000000000a778a08d6ad243fd7ffb63ffb3361efca319a7887b9e6166ead1018a861a7dee10139da05a5a5a5ef8d672e63dcd4084c152ad8acb138fc0cf5b665863e90f1c66b1c92b",
          "s": "0x5a5a5a5ef8d672e63dcd4084c152ad8acb138fc0cf5b665863e90f1c66b1c92b",
          "standardV": "0x1",
          "to": "0xf8720eb6ad4a530cccb696043a0d10831e2ff60e",
          "transactionIndex": "0x2",
          "v": "0x78",
          "value": "0x0"
        }
      ],
      "transactionsRoot": "0x683e831d698d5763970439848a951c86967b80c87949828784c26debed6ea46e",
      "uncles": []
    },
    "id": 1
  },
  {
    "jsonrpc": "2.0",
    "result": {
      "author": "0x00d6cc1ba9cf89bd2e58009741f4f7325badc0ed",
      "difficulty": "0x2",
      "extraData": "0xde830201088f5061726974792d457468657265756d86312e33302e30827769",
      "gasLimit": "0x7a1200",
      "gasUsed": "0xa3281",
      "hash": "0x20c06e3ce6f9f8654502f17e6e888b7aa2a8e4174fcb18f0c5ee99fbb9de9d77",
      "logsBloom": "0x02000000400000000040000000001000400800000000000000000020000000000000080000000000001000000000000000040001800000400000000200200000080081000020000804000008000000000000000000000001000000000800000800000040100000000001000000000000000002000080000000000010800010000000000000000000000000000000000000000000004800000900040000000000000002000000000000000020100400000000000005000000001000000000000000400002400000000400000000000002000000000000000000000000000000000000000000000200000010010000000000400000002202000040000040000000",
      "miner": "0x00d6cc1ba9cf89bd2e58009741f4f7325badc0ed",
      "number": "0x94dc35",
      "parentHash": "0x20c06e3ce6f9f8654502f17e6e888b7aa2a8e4174fcb18f0c5ee99fbb9de9d76",
      "receiptsRoot": "0xed31782b4b38df5c967a3e60062232ae3a150d893fe8b32f9f81cc84019f2ed9",
      "sealFields": [
        "0x841706f0d0",
        "0xb841af10a8b18f334ef950b93fc302ebef00b063e431588a06570aaadbeccf7817ba1e44c7aebfeb7a9ecab44c5661fa336bcd62ea4609aac03ff1218b4ace0e840201"
      ],
      "sha3Uncles": "0x1dcc4de8dec75d7aab85b567b6ccd41ad312451b948a7413f0a142fd40d49347",
      "signature": "af10a8b18f334ef950b93fc302ebef00b063e431588a06570aaadbeccf7817ba1e44c7aebfeb7a9ecab44c5661fa336bcd62ea4609aac03ff1218b4ace0e840201",
      "size": "0x85a",
      "stateRoot": "0x1626becba9c5e0b86966dfb593a26a9fd15088bcb43552d407193e8508423ef3",
      "step": "386330832",
      "timestamp": "0x5c1bc340",
      "totalDifficulty": "0x92dc9100000000000000000000000484bae0b9",
      "transactions": [
        {
          "blockHash": "0x20c06e3ce6f9f8654502f17e6e888b7aa2a8e4174fcb18f0c5ee99fbb9de9d77",
          "blockNumber": "0x94dc35",
          "chainId": "0x2a",
          "condition": null,
          "creates": null,
          "from": "0x0ff8d2412b13ff129f53ee8dd0eda5f2ae600494",
          "gas": "0x72af1",
          "gasPrice": "0x3b9aca00",
          "hash": "0x647f28bf8a191b70b91b999a28a91669fa6d02f01ddd9c12dbfd15293e0acd63",
          "input": "0xbe45fd62000000000000000000000000439f118c4ade15ad011f2b8d2350af70fa3046dc00000000000000000000000000000000000000000000005142cdcdf5268c0000000000000000000000000000000000000000000000000000000000000000006000000000000000000000000000000000000000000000000000000000000000402a010001010001020000000000000001000000000000000000000000000002122a010001010001020000000000000001000000000000000000000000000000a7",
          "nonce": "0x13c",
          "publicKey": "0x3bdd203a8ba81bbd2e3dfce50913c62a4a62e3d103eeb46b32f288da2050dd8d93ae9e9547c0d512966bf19262ad32957d91e7972b0d120cdf2f329d1fd75891",
          "r": "0x8d6ad243fd7ffb63ffb3361efca319a7887b9e6166ead1018a861a7dee10139d",
          "raw": "0xf9012b82013c843b9aca0083072af194f8720eb6ad4a530cccb696043a0d10831e2ff60e80b8c4be45fd62000000000000000000000000439f118c4ade15ad011f2b8d2350af70fa3046dc00000000000000000000000000000000000000000000005142cdcdf5268c0000000000000000000000000000000000000000000000000000000000000000006000000000000000000000000000000000000000000000000000000000000000402a010001010001020000000000000001000000000000000000000000000002122a010001010001020000000000000001000000000000000000000000000000a778a08d6ad243fd7ffb63ffb3361efca319a7887b9e6166ead1018a861a7dee10139da05a5a5a5ef8d672e63dcd4084c152ad8acb138fc0cf5b665863e90f1c66b1c92b",
          "s": "0x5a5a5a5ef8d672e63dcd4084c152ad8acb138fc0cf5b665863e90f1c66b1c92b",
          "standardV": "0x1",
          "to": "0xf8720eb6ad4a530cccb696043a0d10831e2ff60e",
          "transactionIndex": "0x2",
          "v": "0x78",
          "value": "0x0"
        }
      ],
      "transactionsRoot": "0x683e831d698d5763970439848a951c86967b80c87949828784c26debed6ea46e",
      "uncles": []
    },
    "id": 1
  }
]
