[
  {
    "result": {
      "hash": "000000000000002d2ea3f4d6244bc408e1fd9672b3d9be8d1fff6b3a32f0d565",
      "confirmations": 234,
      "strippedsize": 214925,
      "size": 226914,
      "weight": 871689,
      "height": 1354419,
      "version": 536870912,
      "versionHex": "20000000",
      "merkleroot": "0b9918f929304f2af0154369636604f084bd28be59f5a716a3a7ac44243f0892",
      "tx": [
        {
          "txid": "1858591d8ce638c37d5fcd92b9b33ee96be1b950e593cf0cbf45e6bfb1ad8a22",
          "hash": "1858591d8ce638c37d5fcd92b9b33ee96be1b950e593cf0cbf45e6bfb1ad8a22",
          "version": 2,
          "size": 226,
          "vsize": 226,
          "locktime": 1354321,
          "vin": [
            {
              "txid": "8bd1c60cae6d358cdf0245a92719d348ea1e5d92feffefbfc66f1d4bccad21b3",
              "vout": 0,
              "scriptSig": {
                "asm": "3045022100d7155ebb31b844c0587b8e9c176d856f4e6be916b6577a2f83e0d0cf5f17757c022051bc585c961fd1b9506002c4690db7a1f1cf24d5341c02fb6d7215be87e8d537[ALL] 02e6c61d0d1761bc112269958865eca58d3e60021b30da29ce5f3ec4ea190bbcaf",
                "hex": "483045022100d7155ebb31b844c0587b8e9c176d856f4e6be916b6577a2f83e0d0cf5f17757c022051bc585c961fd1b9506002c4690db7a1f1cf24d5341c02fb6d7215be87e8d537012102e6c61d0d1761bc112269958865eca58d3e60021b30da29ce5f3ec4ea190bbcaf"
              },
              "sequence": 4294967294
            }
          ],
          "vout": [
            {
              "value": 0.32500000,
              "n": 0,
              "scriptPubKey": {
                "asm": "OP_DUP OP_HASH160 05ee960f0d90d36483368c8ca86848f112e0532f OP_EQUALVERIFY OP_CHECKSIG",
                "hex": "76a91405ee960f0d90d36483368c8ca86848f112e0532f88ac",
                "reqSigs": 1,
                "type": "pubkeyhash",
                "addresses": [
                  "mg4KVGerD3rYricWC8CoBaayDp1YCKMfvL"
                ]
              }
            },
            {
              "value": 19.64466932,
              "n": 1,
              "scriptPubKey": {
                "asm": "OP_DUP OP_HASH160 6e4de5863d1ec3ba0b05f7cc9c743e0fa3261bf9 OP_EQUALVERIFY OP_CHECKSIG",
                "hex": "76a9146e4de5863d1ec3ba0b05f7cc9c743e0fa3261bf988ac",
                "reqSigs": 1,
                "type": "pubkeyhash",
                "addresses": [
                  "mqaBwWDjJCE2Egsf6pfysgD5ZBrfsP7NkA"
                ]
              }
            }
          ],
          "hex": "0200000001b321adcc4b1d6fc6bfeffffe925d1eea48d31927a94502df8c356dae0cc6d18b000000006b483045022100d7155ebb31b844c0587b8e9c176d856f4e6be916b6577a2f83e0d0cf5f17757c022051bc585c961fd1b9506002c4690db7a1f1cf24d5341c02fb6d7215be87e8d537012102e6c61d0d1761bc112269958865eca58d3e60021b30da29ce5f3ec4ea190bbcaffeffffff0220e9ef01000000001976a91405ee960f0d90d36483368c8ca86848f112e0532f88acf4621775000000001976a9146e4de5863d1ec3ba0b05f7cc9c743e0fa3261bf988ac51aa1400"
        },
        {
          "txid": "5dd9f9f5fe07eefa4d39166395386c2e835746963fa3412f7813e2b075cfefdc",
          "hash": "5dd9f9f5fe07eefa4d39166395386c2e835746963fa3412f7813e2b075cfefdc",
          "version": 2,
          "size": 226,
          "vsize": 226,
          "locktime": 1354418,
          "vin": [
            {
              "txid": "d902a6caa662e99bda97525d8041fd9d514d42b4ec1b7f14c5cc5bce95dd26de",
              "vout": 0,
              "scriptSig": {
                "asm": "3045022100e1241fca85a34c0a37cc7f74e393a2d753f1792d3988f7f38793d14426e69376022020067fca174dbb3c2ecdc6e7a0e606a206babc73831e635cefe9538be7d71a5d[ALL] 02951ae4655ec622f32318b73f9c00d27572f588e99f73cac1980c3062e3aebfc3",
                "hex": "483045022100e1241fca85a34c0a37cc7f74e393a2d753f1792d3988f7f38793d14426e69376022020067fca174dbb3c2ecdc6e7a0e606a206babc73831e635cefe9538be7d71a5d012102951ae4655ec622f32318b73f9c00d27572f588e99f73cac1980c3062e3aebfc3"
              },
              "sequence": 4294967294
            }
          ],
          "vout": [
            {
              "value": 4.52613859,
              "n": 0,
              "scriptPubKey": {
                "asm": "OP_DUP OP_HASH160 892fd9cf6ee0776a4859e29c3ff77482baf46d4c OP_EQUALVERIFY OP_CHECKSIG",
                "hex": "76a914892fd9cf6ee0776a4859e29c3ff77482baf46d4c88ac",
                "reqSigs": 1,
                "type": "pubkeyhash",
                "addresses": [
                  "mt2LC4uW7yLRU9RrW39qwa8MgxmVEQAPjW"
                ]
              }
            },
            {
              "value": 1.10000000,
              "n": 1,
              "scriptPubKey": {
                "asm": "OP_DUP OP_HASH160 46a1b07cd071b67a96cffcf888a79f84f758a32e OP_EQUALVERIFY OP_CHECKSIG",
                "hex": "76a91446a1b07cd071b67a96cffcf888a79f84f758a32e88ac",
                "reqSigs": 1,
                "type": "pubkeyhash",
                "addresses": [
                  "mmxRHrmgoNvQ1hD4C1h2ut3jvB73z3RUj7"
                ]
              }
            }
          ],
          "hex": "0200000001de26dd95ce5bccc5147f1becb4424d519dfd41805d5297da9be962a6caa602d9000000006b483045022100e1241fca85a34c0a37cc7f74e393a2d753f1792d3988f7f38793d14426e69376022020067fca174dbb3c2ecdc6e7a0e606a206babc73831e635cefe9538be7d71a5d012102951ae4655ec622f32318b73f9c00d27572f588e99f73cac1980c3062e3aebfc3feffffff02e356fa1a000000001976a914892fd9cf6ee0776a4859e29c3ff77482baf46d4c88ac80778e06000000001976a91446a1b07cd071b67a96cffcf888a79f84f758a32e88acb2aa1400"
        },
        {
          "txid": "ce9de8bb6aef6433b210b136afe926348f131eccd5059e0178b1c6b30eaf1328",
          "hash": "44ac528df4e6654fcbed8d93e5109516c608421761edd067ed4b993c921b30c9",
          "version": 2,
          "size": 249,
          "vsize": 168,
          "locktime": 1354418,
          "vin": [
            {
              "txid": "b5d143a1e3a52d2352ac7c1df6cb99680683df1551778feebaf92be9bff9b1f3",
              "vout": 0,
              "scriptSig": {
                "asm": "0014dc46bd5c8293037226290de78f84b6260c61082a",
                "hex": "160014dc46bd5c8293037226290de78f84b6260c61082a"
              },
              "txinwitness": [
                "304402203ec764bc06d7fae7e305cf3340b1f2b56e8d679b142b1c09ddee09adab2905e902201e5c3ebab3989c7aff744c1778183f5a19f311ccb47a48816f571c108d7fc6e001",
                "030749b39f738f016d6b663b4ce88baddd212e66a388af756d5cf413aec3b6b181"
              ],
              "sequence": 4294967294
            }
          ],
          "vout": [
            {
              "value": 0.00057500,
              "n": 0,
              "scriptPubKey": {
                "asm": "OP_DUP OP_HASH160 8ec2883b6afdcf2c3f66624d3b4c18778d8c0bfc OP_EQUALVERIFY OP_CHECKSIG",
                "hex": "76a9148ec2883b6afdcf2c3f66624d3b4c18778d8c0bfc88ac",
                "reqSigs": 1,
                "type": "pubkeyhash",
                "addresses": [
                  "mtXoHdDEHJghiYQPsxPvjcpMEdjnjcEs7x"
                ]
              }
            },
            {
              "value": 0.57958689,
              "n": 1,
              "scriptPubKey": {
                "asm": "OP_HASH160 587a93a923fe6bf6d4dffdf71d99a1cb8a0e19b8 OP_EQUAL",
                "hex": "a914587a93a923fe6bf6d4dffdf71d99a1cb8a0e19b887",
                "reqSigs": 1,
                "type": "scripthash",
                "addresses": [
                  "2N1K4Hx5Kb7AKv5RDReDabDgaMWE1JrwyG8"
                ]
              }
            }
          ],
          "hex": "02000000000101f3b1f9bfe92bf9baee8f775115df83066899cbf61d7cac52232da5e3a143d1b50000000017160014dc46bd5c8293037226290de78f84b6260c61082afeffffff029ce00000000000001976a9148ec2883b6afdcf2c3f66624d3b4c18778d8c0bfc88ac216174030000000017a914587a93a923fe6bf6d4dffdf71d99a1cb8a0e19b8870247304402203ec764bc06d7fae7e305cf3340b1f2b56e8d679b142b1c09ddee09adab2905e902201e5c3ebab3989c7aff744c1778183f5a19f311ccb47a48816f571c108d7fc6e00121030749b39f738f016d6b663b4ce88baddd212e66a388af756d5cf413aec3b6b181b2aa1400"
        },
        {
          "txid": "f0844fb52ec87bd73f61b1cb60efc6e79894ffba0b7f612aef6aeca744104861",
          "hash": "b26e7f0f76751d7dd6ce594603484c31d2416dd55ec3fc30cb2205ca522e8ed3",
          "version": 2,
          "size": 249,
          "vsize": 168,
          "locktime": 1354418,
          "vin": [
            {
              "txid": "9e2078436dde858b8f5b93381c4f53ec1231a59f41fc2034658d2539af3a0d56",
              "vout": 1,
              "scriptSig": {
                "asm": "00144650766a74f6bc4256a4be182bc8a0c355407025",
                "hex": "1600144650766a74f6bc4256a4be182bc8a0c355407025"
              },
              "txinwitness": [
                "304402206b1b017101bfe0c3f235acdd78bece4237e1edd141987379f1a041a4b171400702206bc31ad14c7e1d183bb9f9d31c86bfe0eb4e315ba5f9a333fbe6b34e11d1e1b901",
                "02b7d8838e9d0919ed61274f90f5391bce2573adeef1e5b22ed36a77ba2887413c"
              ],
              "sequence": 4294967294
            }
          ],
          "vout": [
            {
              "value": 0.04137866,
              "n": 0,
              "scriptPubKey": {
                "asm": "OP_HASH160 612fd1536e4ad59f640f0fc44034b8483136f79e OP_EQUAL",
                "hex": "a914612fd1536e4ad59f640f0fc44034b8483136f79e87",
                "reqSigs": 1,
                "type": "scripthash",
                "addresses": [
                  "2N276pKdpdKKyphfbCy1w3PxwP8PG7LGzU5"
                ]
              }
            },
            {
              "value": 0.00058600,
              "n": 1,
              "scriptPubKey": {
                "asm": "OP_DUP OP_HASH160 8ec2883b6afdcf2c3f66624d3b4c18778d8c0bfc OP_EQUALVERIFY OP_CHECKSIG",
                "hex": "76a9148ec2883b6afdcf2c3f66624d3b4c18778d8c0bfc88ac",
                "reqSigs": 1,
                "type": "pubkeyhash",
                "addresses": [
                  "mtXoHdDEHJghiYQPsxPvjcpMEdjnjcEs7x"
                ]
              }
            }
          ],
          "hex": "02000000000101560d3aaf39258d653420fc419fa53112ec534f1c38935b8f8b85de6d4378209e01000000171600144650766a74f6bc4256a4be182bc8a0c355407025feffffff028a233f000000000017a914612fd1536e4ad59f640f0fc44034b8483136f79e87e8e40000000000001976a9148ec2883b6afdcf2c3f66624d3b4c18778d8c0bfc88ac0247304402206b1b017101bfe0c3f235acdd78bece4237e1edd141987379f1a041a4b171400702206bc31ad14c7e1d183bb9f9d31c86bfe0eb4e315ba5f9a333fbe6b34e11d1e1b9012102b7d8838e9d0919ed61274f90f5391bce2573adeef1e5b22ed36a77ba2887413cb2aa1400"
        },
        {
          "txid": "0fabdd22f62333ce2e132064910b008c081288f585a2d9f837fe3022ba94a0fc",
          "hash": "320a90bc0b719bd113aaacf5609db3e986e7fb804827b4d2984e0e3eb8b01a6b",
          "version": 2,
          "size": 249,
          "vsize": 168,
          "locktime": 1354418,
          "vin": [
            {
              "txid": "721c816890de2d00ff13afa485a24298975168b1bd4ab62ee390dfae73cd772b",
              "vout": 0,
              "scriptSig": {
                "asm": "00145bd81d560a04419b87db9a1b4714b7b2695a193b",
                "hex": "1600145bd81d560a04419b87db9a1b4714b7b2695a193b"
              },
              "txinwitness": [
                "30440220528da84453509d9ff571af588cf4c6d921c5bd9822f973cbaf5baaed97a09ab60220773268a969eda71e672ef967155e78abcb8be9d0904161d4cc235de0013961b601",
                "030d09c363f7ebec9f347249fd7087e89731dcd22a8b3de30720efe7ff1151eb55"
              ],
              "sequence": 4294967294
            }
          ],
          "vout": [
            {
              "value": 0.00058000,
              "n": 0,
              "scriptPubKey": {
                "asm": "OP_DUP OP_HASH160 8ec2883b6afdcf2c3f66624d3b4c18778d8c0bfc OP_EQUALVERIFY OP_CHECKSIG",
                "hex": "76a9148ec2883b6afdcf2c3f66624d3b4c18778d8c0bfc88ac",
                "reqSigs": 1,
                "type": "pubkeyhash",
                "addresses": [
                  "mtXoHdDEHJghiYQPsxPvjcpMEdjnjcEs7x"
                ]
              }
            },
            {
              "value": 0.29647725,
              "n": 1,
              "scriptPubKey": {
                "asm": "OP_HASH160 55a73d0a262a475ae4233e38629674fe91fe1db3 OP_EQUAL",
                "hex": "a91455a73d0a262a475ae4233e38629674fe91fe1db387",
                "reqSigs": 1,
                "type": "scripthash",
                "addresses": [
                  "2N147mX6pxMHZDqzb1XxpW955WYW8t2R7EW"
                ]
              }
            }
          ],
          "hex": "020000000001012b77cd73aedf90e32eb64abdb16851979842a285a4af13ff002dde9068811c7200000000171600145bd81d560a04419b87db9a1b4714b7b2695a193bfeffffff0290e20000000000001976a9148ec2883b6afdcf2c3f66624d3b4c18778d8c0bfc88ac6d63c4010000000017a91455a73d0a262a475ae4233e38629674fe91fe1db387024730440220528da84453509d9ff571af588cf4c6d921c5bd9822f973cbaf5baaed97a09ab60220773268a969eda71e672ef967155e78abcb8be9d0904161d4cc235de0013961b60121030d09c363f7ebec9f347249fd7087e89731dcd22a8b3de30720efe7ff1151eb55b2aa1400"
        },
        {
          "txid": "4d226925e0cfc50c0a3c991d8a4dadb1f6e3b279ff52f3d3a799f2d8b0232274",
          "hash": "4832bbe83cd26d594c5fa9b85e6e0d42c9777d266223bcf2e64e6bf29b3c93eb",
          "version": 2,
          "size": 590,
          "vsize": 347,
          "locktime": 1354417,
          "vin": [
            {
              "txid": "bd034a12d528a16b78c5a547d642e551ecd285a0d9e44d17b3fef0ea4931ee24",
              "vout": 1,
              "scriptSig": {
                "asm": "00146f41e5087dc48ac7f3ae5d21377fa3757d10ab88",
                "hex": "1600146f41e5087dc48ac7f3ae5d21377fa3757d10ab88"
              },
              "txinwitness": [
                "3044022057041c823e4de68ea0afe73c3d69154995932875f0211da797b6d32e10897ccb02205a776cf0283469fbe0a5c7e61c5644a37d3a0070c77a91f1e289a011da8e2dae01",
                "02c00c66df44e3a4a4e0daf96a6c0ab52b897823eb011db31ada2f99c14ca739f5"
              ],
              "sequence": 4294967293
            },
            {
              "txid": "5782967a1500e855372943194815d3880d7ec51a95cf03ed769e558da7eb659f",
              "vout": 0,
              "scriptSig": {
                "asm": "0014a0ba4a37fd238d9daa3fc19b7a05f6da36a24ea2",
                "hex": "160014a0ba4a37fd238d9daa3fc19b7a05f6da36a24ea2"
              },
              "txinwitness": [
                "3045022100d2df4cc360c80b5a4cf722a14f27acbf040f9b809cb71a06f5e7f09335ef200102205cf671b1e29726d595f03d9ff52c3ebf7715eda9af1cde7be038e878716bc71a01",
                "03fef755c16b453517333d5a9a894f6ead179f015f20ac785deada95f9fd521297"
              ],
              "sequence": 4294967293
            },
            {
              "txid": "54600686bfdd83f202551b12a191b6d7f6332f553a45548773f6811a122339ad",
              "vout": 1,
              "scriptSig": {
                "asm": "00146f41e5087dc48ac7f3ae5d21377fa3757d10ab88",
                "hex": "1600146f41e5087dc48ac7f3ae5d21377fa3757d10ab88"
              },
              "txinwitness": [
                "3044022051ce5cb11da9151f4cf81637319ef2fd4c2e1026a9f95cf27f1b2d11448e525c02201e130764f36a1cf7d70c8594b28455326a61588d8c416a935faa660a2c772f9501",
                "02c00c66df44e3a4a4e0daf96a6c0ab52b897823eb011db31ada2f99c14ca739f5"
              ],
              "sequence": 4294967293
            }
          ],
          "vout": [
            {
              "value": 0.05000000,
              "n": 0,
              "scriptPubKey": {
                "asm": "OP_HASH160 afb3a61d8cb978f8375d97f9b2a4e64b147b8c3e OP_EQUAL",
                "hex": "a914afb3a61d8cb978f8375d97f9b2a4e64b147b8c3e87",
                "reqSigs": 1,
                "type": "scripthash",
                "addresses": [
                  "2N9GFT5UCuP8dfoSgVfXLj17keasJ19gHvi"
                ]
              }
            },
            {
              "value": 0.01099486,
              "n": 1,
              "scriptPubKey": {
                "asm": "OP_HASH160 ad51dd6f97d54a64c3826c3484a3b9ae03746fe2 OP_EQUAL",
                "hex": "a914ad51dd6f97d54a64c3826c3484a3b9ae03746fe287",
                "reqSigs": 1,
                "type": "scripthash",
                "addresses": [
                  "2N93exYpWpXqUnjPCVHKaRGBfZLirTMdwn6"
                ]
              }
            }
          ],
          "hex": "0200000000010324ee3149eaf0feb3174de4d9a085d2ec51e542d647a5c5786ba128d5124a03bd01000000171600146f41e5087dc48ac7f3ae5d21377fa3757d10ab88fdffffff9f65eba78d559e76ed03cf951ac57e0d88d315481943293755e800157a9682570000000017160014a0ba4a37fd238d9daa3fc19b7a05f6da36a24ea2fdffffffad3923121a81f6738754453a552f33f6d7b691a1121b5502f283ddbf8606605401000000171600146f41e5087dc48ac7f3ae5d21377fa3757d10ab88fdffffff02404b4c000000000017a914afb3a61d8cb978f8375d97f9b2a4e64b147b8c3e87dec610000000000017a914ad51dd6f97d54a64c3826c3484a3b9ae03746fe28702473044022057041c823e4de68ea0afe73c3d69154995932875f0211da797b6d32e10897ccb02205a776cf0283469fbe0a5c7e61c5644a37d3a0070c77a91f1e289a011da8e2dae012102c00c66df44e3a4a4e0daf96a6c0ab52b897823eb011db31ada2f99c14ca739f502483045022100d2df4cc360c80b5a4cf722a14f27acbf040f9b809cb71a06f5e7f09335ef200102205cf671b1e29726d595f03d9ff52c3ebf7715eda9af1cde7be038e878716bc71a012103fef755c16b453517333d5a9a894f6ead179f015f20ac785deada95f9fd52129702473044022051ce5cb11da9151f4cf81637319ef2fd4c2e1026a9f95cf27f1b2d11448e525c02201e130764f36a1cf7d70c8594b28455326a61588d8c416a935faa660a2c772f95012102c00c66df44e3a4a4e0daf96a6c0ab52b897823eb011db31ada2f99c14ca739f5b1aa1400"
        },
        {
          "txid": "0274c3905b407d75ee26bf948d6d4365a6dd5f3941b0fdc281e8afa01580d67d",
          "hash": "66745603391bc665f52a68fae347893080ad9fe5b006807ffce4af10a9deab7e",
          "version": 2,
          "size": 247,
          "vsize": 166,
          "locktime": 1354418,
          "vin": [
            {
              "txid": "38270db2f093ca81c415b19e7c2d7d32037feaf35412e572ba21628bc89f673f",
              "vout": 1,
              "scriptSig": {
                "asm": "0014b9daa28c6bd2e6a6dc8b07efbeb2085e474a63d2",
                "hex": "160014b9daa28c6bd2e6a6dc8b07efbeb2085e474a63d2"
              },
              "txinwitness": [
                "3044022019e59bde7f10b9cbfb62e78025e2c1bb3c3f6c71dc38fa0bc947045049cb13cd02202606809825a8cc1bbef3e1f9b4c5b72f03595e684e34a3fcf5860545a85c97bf01",
                "028f06396229879ca94b103cd6b3a1ddf1aeff8113fab13d17d6f55985aa65ef90"
              ],
              "sequence": 4294967294
            }
          ],
          "vout": [
            {
              "value": 0.09999834,
              "n": 0,
              "scriptPubKey": {
                "asm": "OP_HASH160 8165ae9b8ac9c6efe6ff1e1bba470a476ef06527 OP_EQUAL",
                "hex": "a9148165ae9b8ac9c6efe6ff1e1bba470a476ef0652787",
                "reqSigs": 1,
                "type": "scripthash",
                "addresses": [
                  "2N53Qy2KPYc6FBboYpuQmYroiSu8S6xthug"
                ]
              }
            },
            {
              "value": 0.60000000,
              "n": 1,
              "scriptPubKey": {
                "asm": "OP_HASH160 b6c6e7e3e973266f01a03b320df10908300fee8e OP_EQUAL",
                "hex": "a914b6c6e7e3e973266f01a03b320df10908300fee8e87",
                "reqSigs": 1,
                "type": "scripthash",
                "addresses": [
                  "2N9ufFR59zrxPETBaxEH51PcxAeJ2TyASVm"
                ]
              }
            }
          ],
          "hex": "020000000001013f679fc88b6221ba72e51254f3ea7f03327d2d7c9eb115c481ca93f0b20d27380100000017160014b9daa28c6bd2e6a6dc8b07efbeb2085e474a63d2feffffff02da9598000000000017a9148165ae9b8ac9c6efe6ff1e1bba470a476ef0652787008793030000000017a914b6c6e7e3e973266f01a03b320df10908300fee8e8702473044022019e59bde7f10b9cbfb62e78025e2c1bb3c3f6c71dc38fa0bc947045049cb13cd02202606809825a8cc1bbef3e1f9b4c5b72f03595e684e34a3fcf5860545a85c97bf0121028f06396229879ca94b103cd6b3a1ddf1aeff8113fab13d17d6f55985aa65ef90b2aa1400"
        }
      ],
      "time": 1531980460,
      "mediantime": 1531978080,
      "nonce": 1749018096,
      "bits": "1960ac9e",
      "difficulty": 44426516.52938943,
      "chainwork": "00000000000000000000000000000000000000000000006c45e2a25e0a4ef82d",
      "previousblockhash": "000000000000003fedcc56f3931d68f86f09b9ce88a86e02957feffd8eaf1dc8",
      "nextblockhash": "00000000bbc746ed23eef6d08c855b9ca07e64de84cb5d3846a667f60b0528cc"
    },
    "error": null,
    "id": null
  },
  {
    "result": {
      "hash": "00000000bbc746ed23eef6d08c855b9ca07e64de84cb5d3846a667f60b0528cc",
      "confirmations": 235,
      "strippedsize": 867116,
      "size": 903501,
      "weight": 3504849,
      "height": 1354420,
      "version": 536870912,
      "versionHex": "20000000",
      "merkleroot": "60e3894e7ff501b834a2cb92a6c91ce62383129f64f656be2a145cc5edfc59fa",
      "tx": [
        {
          "txid": "426382e5204c5cb8166e2d9da85e2001ab9066ec2b2095a5aae283dbe81a3070",
          "hash": "426382e5204c5cb8166e2d9da85e2001ab9066ec2b2095a5aae283dbe81a3070",
          "version": 2,
          "size": 224,
          "vsize": 224,
          "locktime": 1354419,
          "vin": [
            {
              "txid": "1fd283313278742cbce4e547e0a3d7393f51f8949afb572ac69731093e8286aa",
              "vout": 0,
              "scriptSig": {
                "asm": "3045022100b8a60bf2a2b39b44133bac4cb9155abc0a77c41524dd50b638f0555799fb7543022046763843dcc746b8f3327f8710899e8c63b433fa7ced014f8484eefb39cea543[ALL] 02173f6ca157ed1f75d06d5bb39ef72fce470c3c570e70a8e83834dee3d5b3ca44",
                "hex": "483045022100b8a60bf2a2b39b44133bac4cb9155abc0a77c41524dd50b638f0555799fb7543022046763843dcc746b8f3327f8710899e8c63b433fa7ced014f8484eefb39cea543012102173f6ca157ed1f75d06d5bb39ef72fce470c3c570e70a8e83834dee3d5b3ca44"
              },
              "sequence": 4294967294
            }
          ],
          "vout": [
            {
              "value": 40.00359271,
              "n": 0,
              "scriptPubKey": {
                "asm": "OP_DUP OP_HASH160 c31d46a8023346b23b35c792c94f1e07ffd1ddba OP_EQUALVERIFY OP_CHECKSIG",
                "hex": "76a914c31d46a8023346b23b35c792c94f1e07ffd1ddba88ac",
                "reqSigs": 1,
                "type": "pubkeyhash",
                "addresses": [
                  "myJd8bMgMUkDa1x4itHZ4U1advg4v26w1J"
                ]
              }
            },
            {
              "value": 1.30000000,
              "n": 1,
              "scriptPubKey": {
                "asm": "OP_HASH160 9d0a300876106f4b5aec2b3433aa3fca20f294dd OP_EQUAL",
                "hex": "a9149d0a300876106f4b5aec2b3433aa3fca20f294dd87",
                "reqSigs": 1,
                "type": "scripthash",
                "addresses": [
                  "2N7ZaHFTxF5ADKAA2aVrTSJVfa422upXgs5"
                ]
              }
            }
          ],
          "hex": "0200000001aa86823e093197c62a57fb9a94f8513f39d7a3e047e5e4bc2c7478323183d21f000000006b483045022100b8a60bf2a2b39b44133bac4cb9155abc0a77c41524dd50b638f0555799fb7543022046763843dcc746b8f3327f8710899e8c63b433fa7ced014f8484eefb39cea543012102173f6ca157ed1f75d06d5bb39ef72fce470c3c570e70a8e83834dee3d5b3ca44feffffff0267a370ee000000001976a914c31d46a8023346b23b35c792c94f1e07ffd1ddba88ac80a4bf070000000017a9149d0a300876106f4b5aec2b3433aa3fca20f294dd87b3aa1400"
        },
        {
          "txid": "94a43d767c381fff9e825194edce35c756bda24b2822531c7d437bdc5508367c",
          "hash": "94a43d767c381fff9e825194edce35c756bda24b2822531c7d437bdc5508367c",
          "version": 2,
          "size": 224,
          "vsize": 224,
          "locktime": 1354419,
          "vin": [
            {
              "txid": "43c790c6f820007f894150a69b2b04fd783fd07d34f5246b2b9400db84c3b5b4",
              "vout": 0,
              "scriptSig": {
                "asm": "304502210083088ac7c35c2f1a515e1c89d730236360ed11e61722dfec0335bc0f7aba95fc022070b8823c136fe84fcc5b686adf87f149d2468bcf93b4378cb02773ee40ee8cfb[ALL] 0205762251f7df239bf5dfd13e0f4213cc3c0013df8621a3c9995ce7dd4fcad566",
                "hex": "48304502210083088ac7c35c2f1a515e1c89d730236360ed11e61722dfec0335bc0f7aba95fc022070b8823c136fe84fcc5b686adf87f149d2468bcf93b4378cb02773ee40ee8cfb01210205762251f7df239bf5dfd13e0f4213cc3c0013df8621a3c9995ce7dd4fcad566"
              },
              "sequence": 4294967294
            }
          ],
          "vout": [
            {
              "value": 2.00000000,
              "n": 0,
              "scriptPubKey": {
                "asm": "OP_HASH160 c6953492a5ceee2fb1f74993f6178cb5a7731f4c OP_EQUAL",
                "hex": "a914c6953492a5ceee2fb1f74993f6178cb5a7731f4c87",
                "reqSigs": 1,
                "type": "scripthash",
                "addresses": [
                  "2NBMEXEgaJjDEkS3so89q56ZUCHQ5fjtnEx"
                ]
              }
            },
            {
              "value": 35.35954109,
              "n": 1,
              "scriptPubKey": {
                "asm": "OP_DUP OP_HASH160 d5cb0cb88b76fddf537652023bb95d9cbb6bf546 OP_EQUALVERIFY OP_CHECKSIG",
                "hex": "76a914d5cb0cb88b76fddf537652023bb95d9cbb6bf54688ac",
                "reqSigs": 1,
                "type": "pubkeyhash",
                "addresses": [
                  "n11PU456bT6fL56FANvmTunqM2ypiEd16r"
                ]
              }
            }
          ],
          "hex": "0200000001b4b5c384db00942b6b24f5347dd03f78fd042b9ba65041897f0020f8c690c743000000006b48304502210083088ac7c35c2f1a515e1c89d730236360ed11e61722dfec0335bc0f7aba95fc022070b8823c136fe84fcc5b686adf87f149d2468bcf93b4378cb02773ee40ee8cfb01210205762251f7df239bf5dfd13e0f4213cc3c0013df8621a3c9995ce7dd4fcad566feffffff0200c2eb0b0000000017a914c6953492a5ceee2fb1f74993f6178cb5a7731f4c87bd60c2d2000000001976a914d5cb0cb88b76fddf537652023bb95d9cbb6bf54688acb3aa1400"
        },
        {
          "txid": "470aa3271445f81aa7f499ca626d80fe747bacc58f051e66f5cc2e3cb79423b4",
          "hash": "470aa3271445f81aa7f499ca626d80fe747bacc58f051e66f5cc2e3cb79423b4",
          "version": 2,
          "size": 224,
          "vsize": 224,
          "locktime": 1354419,
          "vin": [
            {
              "txid": "ce47a49dd50794874a2bbda24fe53c1fc394e5806c48083f3a0a6f0fe60f21f6",
              "vout": 0,
              "scriptSig": {
                "asm": "3045022100984f7e568797ceda084cc9f70ec375808cdea4c3a6f6a13e4131a199a7ddc872022015a94084a3e568c30c01a25aded9f782a0f2eed67da6fd67dbb33a01fe433434[ALL] 0246d9e23cc5c485f0c42d83800d7652de7394558b42d40ee5519d7e901c4810e1",
                "hex": "483045022100984f7e568797ceda084cc9f70ec375808cdea4c3a6f6a13e4131a199a7ddc872022015a94084a3e568c30c01a25aded9f782a0f2eed67da6fd67dbb33a01fe43343401210246d9e23cc5c485f0c42d83800d7652de7394558b42d40ee5519d7e901c4810e1"
              },
              "sequence": 4294967294
            }
          ],
          "vout": [
            {
              "value": 29.37433936,
              "n": 0,
              "scriptPubKey": {
                "asm": "OP_DUP OP_HASH160 970974b83af24a6fabc9c8e26383c5ee29d71d24 OP_EQUALVERIFY OP_CHECKSIG",
                "hex": "76a914970974b83af24a6fabc9c8e26383c5ee29d71d2488ac",
                "reqSigs": 1,
                "type": "pubkeyhash",
                "addresses": [
                  "muHZf2iSAq1bFQNetZtAmm2EfKuENoar9y"
                ]
              }
            },
            {
              "value": 1.30000000,
              "n": 1,
              "scriptPubKey": {
                "asm": "OP_HASH160 66e40ad0b66616c4d9fdf1fdfbfb09755c924254 OP_EQUAL",
                "hex": "a91466e40ad0b66616c4d9fdf1fdfbfb09755c92425487",
                "reqSigs": 1,
                "type": "scripthash",
                "addresses": [
                  "2N2dG6WAvT2KRbYXixrW7EcYsXSoTqA84ro"
                ]
              }
            }
          ],
          "hex": "0200000001f6210fe60f6f0a3a3f08486c80e594c31f3ce54fa2bd2b4a879407d59da447ce000000006b483045022100984f7e568797ceda084cc9f70ec375808cdea4c3a6f6a13e4131a199a7ddc872022015a94084a3e568c30c01a25aded9f782a0f2eed67da6fd67dbb33a01fe43343401210246d9e23cc5c485f0c42d83800d7652de7394558b42d40ee5519d7e901c4810e1feffffff0250af15af000000001976a914970974b83af24a6fabc9c8e26383c5ee29d71d2488ac80a4bf070000000017a91466e40ad0b66616c4d9fdf1fdfbfb09755c92425487b3aa1400"
        },
        {
          "txid": "68ecb040b8d9716c1c09d552e158f69ba9b4b2bbbfb8407bef348f78e1eabbe8",
          "hash": "68ecb040b8d9716c1c09d552e158f69ba9b4b2bbbfb8407bef348f78e1eabbe8",
          "version": 2,
          "size": 224,
          "vsize": 224,
          "locktime": 1354419,
          "vin": [
            {
              "txid": "4584e0e7156c9c22902c6cf13d34e8105eb30cde49e936b06a12eefdda653279",
              "vout": 1,
              "scriptSig": {
                "asm": "3045022100ed50817d3e11a8a01da85601d3e80b6c0ed2a20f92fcc9953edd34c62eb6a51802203197ec8d5474fc234f74d0dce164a6c11f008be306802f93aef5e9bddc695cc0[ALL] 0282f4a2b0eb6ddbce729b6bb2c56f4174ed0b6818210c89d301461949508584d7",
                "hex": "483045022100ed50817d3e11a8a01da85601d3e80b6c0ed2a20f92fcc9953edd34c62eb6a51802203197ec8d5474fc234f74d0dce164a6c11f008be306802f93aef5e9bddc695cc001210282f4a2b0eb6ddbce729b6bb2c56f4174ed0b6818210c89d301461949508584d7"
              },
              "sequence": 4294967294
            }
          ],
          "vout": [
            {
              "value": 1.30000000,
              "n": 0,
              "scriptPubKey": {
                "asm": "OP_HASH160 2061fd1cdb15e3cdc10719052a874e757c9aef1a OP_EQUAL",
                "hex": "a9142061fd1cdb15e3cdc10719052a874e757c9aef1a87",
                "reqSigs": 1,
                "type": "scripthash",
                "addresses": [
                  "2MvCSzoFbQsVCTjN2rKWPuHa3THXSp1mHWt"
                ]
              }
            },
            {
              "value": 31.02279502,
              "n": 1,
              "scriptPubKey": {
                "asm": "OP_DUP OP_HASH160 7e98c9a69003fec75b19f8c3d4b466366d260b04 OP_EQUALVERIFY OP_CHECKSIG",
                "hex": "76a9147e98c9a69003fec75b19f8c3d4b466366d260b0488ac",
                "reqSigs": 1,
                "type": "pubkeyhash",
                "addresses": [
                  "ms4LU6kfuUn9y2esT89zGpnB1s9iJ5m8oU"
                ]
              }
            }
          ],
          "hex": "0200000001793265dafdee126ab036e949de0cb35e10e8343df16c2c90229c6c15e7e08445010000006b483045022100ed50817d3e11a8a01da85601d3e80b6c0ed2a20f92fcc9953edd34c62eb6a51802203197ec8d5474fc234f74d0dce164a6c11f008be306802f93aef5e9bddc695cc001210282f4a2b0eb6ddbce729b6bb2c56f4174ed0b6818210c89d301461949508584d7feffffff0280a4bf070000000017a9142061fd1cdb15e3cdc10719052a874e757c9aef1a874e07e9b8000000001976a9147e98c9a69003fec75b19f8c3d4b466366d260b0488acb3aa1400"
        },
        {
          "txid": "76b0e88cdb624d3d10122c6dfcb75c379df0f4faf27cb4dbb848ea560dd611fa",
          "hash": "76b0e88cdb624d3d10122c6dfcb75c379df0f4faf27cb4dbb848ea560dd611fa",
          "version": 2,
          "size": 224,
          "vsize": 224,
          "locktime": 1354419,
          "vin": [
            {
              "txid": "37cef8f31a7e312b05da24de59092764c2fabcc1c7f9cb82a11b84e96bb0778c",
              "vout": 1,
              "scriptSig": {
                "asm": "3045022100afdd97f390bad0ec1ab85e167a2daf4d45ab318ee36a7a36ebbcd4854e1219a60220087820d4de9747b4d07d90731c008eab2d6962122dff89d211addbb3235616f4[ALL] 020a6ea484ec413b430979aa3b1bcdb49a9f9953ccf9e54fb7f1d6269ef5a96873",
                "hex": "483045022100afdd97f390bad0ec1ab85e167a2daf4d45ab318ee36a7a36ebbcd4854e1219a60220087820d4de9747b4d07d90731c008eab2d6962122dff89d211addbb3235616f40121020a6ea484ec413b430979aa3b1bcdb49a9f9953ccf9e54fb7f1d6269ef5a96873"
              },
              "sequence": 4294967294
            }
          ],
          "vout": [
            {
              "value": 43.89121031,
              "n": 0,
              "scriptPubKey": {
                "asm": "OP_DUP OP_HASH160 3e3db81b821cd87ac1f24a8b08fa9e33a2fe838e OP_EQUALVERIFY OP_CHECKSIG",
                "hex": "76a9143e3db81b821cd87ac1f24a8b08fa9e33a2fe838e88ac",
                "reqSigs": 1,
                "type": "pubkeyhash",
                "addresses": [
                  "mmC48GeYzRERDJPRK2ZUgVfZrw2sErDuqb"
                ]
              }
            },
            {
              "value": 0.65000000,
              "n": 1,
              "scriptPubKey": {
                "asm": "OP_HASH160 2061fd1cdb15e3cdc10719052a874e757c9aef1a OP_EQUAL",
                "hex": "a9142061fd1cdb15e3cdc10719052a874e757c9aef1a87",
                "reqSigs": 1,
                "type": "scripthash",
                "addresses": [
                  "2MvCSzoFbQsVCTjN2rKWPuHa3THXSp1mHWt"
                ]
              }
            }
          ],
          "hex": "02000000018c77b06be9841ba182cbf9c7c1bcfac264270959de24da052b317e1af3f8ce37010000006b483045022100afdd97f390bad0ec1ab85e167a2daf4d45ab318ee36a7a36ebbcd4854e1219a60220087820d4de9747b4d07d90731c008eab2d6962122dff89d211addbb3235616f40121020a6ea484ec413b430979aa3b1bcdb49a9f9953ccf9e54fb7f1d6269ef5a96873feffffff0207ac9c05010000001976a9143e3db81b821cd87ac1f24a8b08fa9e33a2fe838e88ac40d2df030000000017a9142061fd1cdb15e3cdc10719052a874e757c9aef1a87b3aa1400"
        },
        {
          "txid": "35f759f062a5ab030cd396b169040fffb67532768187b99f8315e7298884d693",
          "hash": "649d5eceb63910664e90a08cff10c19896ab7a72858723217f6a890eabdfc8b6",
          "version": 2,
          "size": 247,
          "vsize": 166,
          "locktime": 1354419,
          "vin": [
            {
              "txid": "b53fc15228c583af7b740715cd112476cf44344c908fc53c31be8ff62130d93c",
              "vout": 0,
              "scriptSig": {
                "asm": "0014fd53691ed289f95cfc57bcdcf4bc1f64b5083171",
                "hex": "160014fd53691ed289f95cfc57bcdcf4bc1f64b5083171"
              },
              "txinwitness": [
                "304402206402b51021d6ae037b3faab54c4b7c45898e7d48496e79df86723c89c62d7bbe0220703f855da230c30053f48823bb4bc58fa35f23f0be670e7a122c37acefc117a801",
                "0319a60583351ff79d114616e2882673ff4970feaf43c0fb3a44983ca8add56d0c"
              ],
              "sequence": 4294967294
            }
          ],
          "vout": [
            {
              "value": 0.89999560,
              "n": 0,
              "scriptPubKey": {
                "asm": "OP_HASH160 cde79136f53a3b4671d9f7ef62cc07dc7aee0ea6 OP_EQUAL",
                "hex": "a914cde79136f53a3b4671d9f7ef62cc07dc7aee0ea687",
                "reqSigs": 1,
                "type": "scripthash",
                "addresses": [
                  "2NC1wvBbJsnE2jnCbown6EMUih8byCsJRqS"
                ]
              }
            },
            {
              "value": 0.10000000,
              "n": 1,
              "scriptPubKey": {
                "asm": "OP_HASH160 a9974100aeee974a20cda9a2f545704a0ab54fdc OP_EQUAL",
                "hex": "a914a9974100aeee974a20cda9a2f545704a0ab54fdc87",
                "reqSigs": 1,
                "type": "scripthash",
                "addresses": [
                  "2N8hwP1WmJrFF5QWABn38y63uYLhnJYJYTF"
                ]
              }
            }
          ],
          "hex": "020000000001013cd93021f68fbe313cc58f904c3444cf762411cd1507747baf83c52852c13fb50000000017160014fd53691ed289f95cfc57bcdcf4bc1f64b5083171feffffff02c8485d050000000017a914cde79136f53a3b4671d9f7ef62cc07dc7aee0ea687809698000000000017a914a9974100aeee974a20cda9a2f545704a0ab54fdc870247304402206402b51021d6ae037b3faab54c4b7c45898e7d48496e79df86723c89c62d7bbe0220703f855da230c30053f48823bb4bc58fa35f23f0be670e7a122c37acefc117a801210319a60583351ff79d114616e2882673ff4970feaf43c0fb3a44983ca8add56d0cb3aa1400"
        },
        {
          "txid": "a78731bad68537af8a27f74db73850bba7af9fa12692fa11430d5b3bd0b83192",
          "hash": "a78731bad68537af8a27f74db73850bba7af9fa12692fa11430d5b3bd0b83192",
          "version": 1,
          "size": 257,
          "vsize": 257,
          "locktime": 1354419,
          "vin": [
            {
              "txid": "c3600159f7e4944b642de93598e52b29150d5678c83eaa4aba4e6e2e1f391055",
              "vout": 1,
              "scriptSig": {
                "asm": "3045022100a5f10d25bf48b1cf930b4341d66edff4404bb1157e059b3e31f876ffe06d20e502206859209069cdd1369a8eba404b2f5b0d980196c998ec196d3e27b8582fa75fec[ALL] 0397ad58a3a9f84c513fc7ad3b5ff41b71c10bc6bfdfcbed3206e73ae451f5f6fc",
                "hex": "483045022100a5f10d25bf48b1cf930b4341d66edff4404bb1157e059b3e31f876ffe06d20e502206859209069cdd1369a8eba404b2f5b0d980196c998ec196d3e27b8582fa75fec01210397ad58a3a9f84c513fc7ad3b5ff41b71c10bc6bfdfcbed3206e73ae451f5f6fc"
              },
              "sequence": 4294967294
            }
          ],
          "vout": [
            {
              "value": 0.00000000,
              "n": 0,
              "scriptPubKey": {
                "asm": "OP_RETURN 6f6d6e690000000080000491000000000000000a",
                "hex": "6a146f6d6e690000000080000491000000000000000a",
                "type": "nulldata"
              }
            },
            {
              "value": 0.00000546,
              "n": 1,
              "scriptPubKey": {
                "asm": "OP_DUP OP_HASH160 cbb0319838bc2dc39719397f730228404cb015bb OP_EQUALVERIFY OP_CHECKSIG",
                "hex": "76a914cbb0319838bc2dc39719397f730228404cb015bb88ac",
                "reqSigs": 1,
                "type": "pubkeyhash",
                "addresses": [
                  "mz5xY9gYrKHVd26KqdysTD7zM1bZAix557"
                ]
              }
            },
            {
              "value": 5.43322872,
              "n": 2,
              "scriptPubKey": {
                "asm": "OP_DUP OP_HASH160 e48a826c21d308783fd94de03466d9d6a8fe3244 OP_EQUALVERIFY OP_CHECKSIG",
                "hex": "76a914e48a826c21d308783fd94de03466d9d6a8fe324488ac",
                "reqSigs": 1,
                "type": "pubkeyhash",
                "addresses": [
                  "n2MNHbcL3eE7mZ25wmX9d2AvhSiLFFiqXE"
                ]
              }
            }
          ],
          "hex": "01000000015510391f2e6e4eba4aaa3ec878560d15292be59835e92d644b94e4f7590160c3010000006b483045022100a5f10d25bf48b1cf930b4341d66edff4404bb1157e059b3e31f876ffe06d20e502206859209069cdd1369a8eba404b2f5b0d980196c998ec196d3e27b8582fa75fec01210397ad58a3a9f84c513fc7ad3b5ff41b71c10bc6bfdfcbed3206e73ae451f5f6fcfeffffff030000000000000000166a146f6d6e690000000080000491000000000000000a22020000000000001976a914cbb0319838bc2dc39719397f730228404cb015bb88acf8726220000000001976a914e48a826c21d308783fd94de03466d9d6a8fe324488acb3aa1400"
        },
        {
          "txid": "139cbbb14fdff42b25aa1fe78a2efc8d4d9bf7cfeb7aa4aad1725779e9551c1e",
          "hash": "139cbbb14fdff42b25aa1fe78a2efc8d4d9bf7cfeb7aa4aad1725779e9551c1e",
          "version": 1,
          "size": 256,
          "vsize": 256,
          "locktime": 1354418,
          "vin": [
            {
              "txid": "a78731bad68537af8a27f74db73850bba7af9fa12692fa11430d5b3bd0b83192",
              "vout": 2,
              "scriptSig": {
                "asm": "304402207cd739ebfcc6bb36419c2d7ce0d0dd15c99a175a44be97728bc71cf30723ab480220499dfdfc1667ffaaf7af86dc8eb357e0f3af9b835ea08a469fc386b9fa18338f[ALL] 0397ad58a3a9f84c513fc7ad3b5ff41b71c10bc6bfdfcbed3206e73ae451f5f6fc",
                "hex": "47304402207cd739ebfcc6bb36419c2d7ce0d0dd15c99a175a44be97728bc71cf30723ab480220499dfdfc1667ffaaf7af86dc8eb357e0f3af9b835ea08a469fc386b9fa18338f01210397ad58a3a9f84c513fc7ad3b5ff41b71c10bc6bfdfcbed3206e73ae451f5f6fc"
              },
              "sequence": 4294967294
            }
          ],
          "vout": [
            {
              "value": 5.43321987,
              "n": 0,
              "scriptPubKey": {
                "asm": "OP_DUP OP_HASH160 e48a826c21d308783fd94de03466d9d6a8fe3244 OP_EQUALVERIFY OP_CHECKSIG",
                "hex": "76a914e48a826c21d308783fd94de03466d9d6a8fe324488ac",
                "reqSigs": 1,
                "type": "pubkeyhash",
                "addresses": [
                  "n2MNHbcL3eE7mZ25wmX9d2AvhSiLFFiqXE"
                ]
              }
            },
            {
              "value": 0.00000000,
              "n": 1,
              "scriptPubKey": {
                "asm": "OP_RETURN 6f6d6e690000000080000491000000000000000a",
                "hex": "6a146f6d6e690000000080000491000000000000000a",
                "type": "nulldata"
              }
            },
            {
              "value": 0.00000546,
              "n": 2,
              "scriptPubKey": {
                "asm": "OP_DUP OP_HASH160 cbb0319838bc2dc39719397f730228404cb015bb OP_EQUALVERIFY OP_CHECKSIG",
                "hex": "76a914cbb0319838bc2dc39719397f730228404cb015bb88ac",
                "reqSigs": 1,
                "type": "pubkeyhash",
                "addresses": [
                  "mz5xY9gYrKHVd26KqdysTD7zM1bZAix557"
                ]
              }
            }
          ],
          "hex": "01000000019231b8d03b5b0d4311fa9226a19fafa7bb5038b74df7278aaf3785d6ba3187a7020000006a47304402207cd739ebfcc6bb36419c2d7ce0d0dd15c99a175a44be97728bc71cf30723ab480220499dfdfc1667ffaaf7af86dc8eb357e0f3af9b835ea08a469fc386b9fa18338f01210397ad58a3a9f84c513fc7ad3b5ff41b71c10bc6bfdfcbed3206e73ae451f5f6fcfeffffff03836f6220000000001976a914e48a826c21d308783fd94de03466d9d6a8fe324488ac0000000000000000166a146f6d6e690000000080000491000000000000000a22020000000000001976a914cbb0319838bc2dc39719397f730228404cb015bb88acb2aa1400"
        },
        {
          "txid": "a011ecb11088a17fd588addcbb4b61278fbd9dee128426b119c49db8c006802b",
          "hash": "a011ecb11088a17fd588addcbb4b61278fbd9dee128426b119c49db8c006802b",
          "version": 1,
          "size": 257,
          "vsize": 257,
          "locktime": 1354419,
          "vin": [
            {
              "txid": "139cbbb14fdff42b25aa1fe78a2efc8d4d9bf7cfeb7aa4aad1725779e9551c1e",
              "vout": 0,
              "scriptSig": {
                "asm": "3045022100f6e6b448e399f54475153c8cb8f07a73f208ade7844e0a6256ae4b569423654e02203f78ac8d8479c51a5027ef58cb2a58593844c7bcb54620620defbbe754872c8e[ALL] 0397ad58a3a9f84c513fc7ad3b5ff41b71c10bc6bfdfcbed3206e73ae451f5f6fc",
                "hex": "483045022100f6e6b448e399f54475153c8cb8f07a73f208ade7844e0a6256ae4b569423654e02203f78ac8d8479c51a5027ef58cb2a58593844c7bcb54620620defbbe754872c8e01210397ad58a3a9f84c513fc7ad3b5ff41b71c10bc6bfdfcbed3206e73ae451f5f6fc"
              },
              "sequence": 4294967294
            }
          ],
          "vout": [
            {
              "value": 0.00000000,
              "n": 0,
              "scriptPubKey": {
                "asm": "OP_RETURN 6f6d6e690000000080000491000000000000000a",
                "hex": "6a146f6d6e690000000080000491000000000000000a",
                "type": "nulldata"
              }
            },
            {
              "value": 5.43321101,
              "n": 1,
              "scriptPubKey": {
                "asm": "OP_DUP OP_HASH160 e48a826c21d308783fd94de03466d9d6a8fe3244 OP_EQUALVERIFY OP_CHECKSIG",
                "hex": "76a914e48a826c21d308783fd94de03466d9d6a8fe324488ac",
                "reqSigs": 1,
                "type": "pubkeyhash",
                "addresses": [
                  "n2MNHbcL3eE7mZ25wmX9d2AvhSiLFFiqXE"
                ]
              }
            },
            {
              "value": 0.00000546,
              "n": 2,
              "scriptPubKey": {
                "asm": "OP_DUP OP_HASH160 cbb0319838bc2dc39719397f730228404cb015bb OP_EQUALVERIFY OP_CHECKSIG",
                "hex": "76a914cbb0319838bc2dc39719397f730228404cb015bb88ac",
                "reqSigs": 1,
                "type": "pubkeyhash",
                "addresses": [
                  "mz5xY9gYrKHVd26KqdysTD7zM1bZAix557"
                ]
              }
            }
          ],
          "hex": "01000000011e1c55e9795772d1aaa47aebcff79b4d8dfc2e8ae71faa252bf4df4fb1bb9c13000000006b483045022100f6e6b448e399f54475153c8cb8f07a73f208ade7844e0a6256ae4b569423654e02203f78ac8d8479c51a5027ef58cb2a58593844c7bcb54620620defbbe754872c8e01210397ad58a3a9f84c513fc7ad3b5ff41b71c10bc6bfdfcbed3206e73ae451f5f6fcfeffffff030000000000000000166a146f6d6e690000000080000491000000000000000a0d6c6220000000001976a914e48a826c21d308783fd94de03466d9d6a8fe324488ac22020000000000001976a914cbb0319838bc2dc39719397f730228404cb015bb88acb3aa1400"
        },
        {
          "txid": "ad5c0974e64b2d9c27b2b98178ffc581619f65100ddbc112a15b624cff0c9876",
          "hash": "ad5c0974e64b2d9c27b2b98178ffc581619f65100ddbc112a15b624cff0c9876",
          "version": 1,
          "size": 256,
          "vsize": 256,
          "locktime": 1354419,
          "vin": [
            {
              "txid": "a011ecb11088a17fd588addcbb4b61278fbd9dee128426b119c49db8c006802b",
              "vout": 1,
              "scriptSig": {
                "asm": "304402207fb614447f24c3b4fe700895a0d027c5cf5fbd68bb363fa308e8ec01e50a5a4002205fe3ab289ebdc9e2c6cdb0323386488e7f54c8b8be2c073dcf2409a7e268dc0d[ALL] 0397ad58a3a9f84c513fc7ad3b5ff41b71c10bc6bfdfcbed3206e73ae451f5f6fc",
                "hex": "47304402207fb614447f24c3b4fe700895a0d027c5cf5fbd68bb363fa308e8ec01e50a5a4002205fe3ab289ebdc9e2c6cdb0323386488e7f54c8b8be2c073dcf2409a7e268dc0d01210397ad58a3a9f84c513fc7ad3b5ff41b71c10bc6bfdfcbed3206e73ae451f5f6fc"
              },
              "sequence": 4294967294
            }
          ],
          "vout": [
            {
              "value": 0.00000000,
              "n": 0,
              "scriptPubKey": {
                "asm": "OP_RETURN 6f6d6e690000000080000491000000000000000a",
                "hex": "6a146f6d6e690000000080000491000000000000000a",
                "type": "nulldata"
              }
            },
            {
              "value": 5.43320215,
              "n": 1,
              "scriptPubKey": {
                "asm": "OP_DUP OP_HASH160 e48a826c21d308783fd94de03466d9d6a8fe3244 OP_EQUALVERIFY OP_CHECKSIG",
                "hex": "76a914e48a826c21d308783fd94de03466d9d6a8fe324488ac",
                "reqSigs": 1,
                "type": "pubkeyhash",
                "addresses": [
                  "n2MNHbcL3eE7mZ25wmX9d2AvhSiLFFiqXE"
                ]
              }
            },
            {
              "value": 0.00000546,
              "n": 2,
              "scriptPubKey": {
                "asm": "OP_DUP OP_HASH160 cbb0319838bc2dc39719397f730228404cb015bb OP_EQUALVERIFY OP_CHECKSIG",
                "hex": "76a914cbb0319838bc2dc39719397f730228404cb015bb88ac",
                "reqSigs": 1,
                "type": "pubkeyhash",
                "addresses": [
                  "mz5xY9gYrKHVd26KqdysTD7zM1bZAix557"
                ]
              }
            }
          ],
          "hex": "01000000012b8006c0b89dc419b1268412ee9dbd8f27614bbbdcad88d57fa18810b1ec11a0010000006a47304402207fb614447f24c3b4fe700895a0d027c5cf5fbd68bb363fa308e8ec01e50a5a4002205fe3ab289ebdc9e2c6cdb0323386488e7f54c8b8be2c073dcf2409a7e268dc0d01210397ad58a3a9f84c513fc7ad3b5ff41b71c10bc6bfdfcbed3206e73ae451f5f6fcfeffffff030000000000000000166a146f6d6e690000000080000491000000000000000a97686220000000001976a914e48a826c21d308783fd94de03466d9d6a8fe324488ac22020000000000001976a914cbb0319838bc2dc39719397f730228404cb015bb88acb3aa1400"
        }
      ],
      "time": 1531981663,
      "mediantime": 1531979288,
      "nonce": 3904614054,
      "bits": "1d00ffff",
      "difficulty": 1,
      "chainwork": "00000000000000000000000000000000000000000000006c45e2a25f0a4ff82e",
      "previousblockhash": "000000000000002d2ea3f4d6244bc408e1fd9672b3d9be8d1fff6b3a32f0d565",
      "nextblockhash": "000000000000001325e8c872aa617f279a957b670f6632c82b9646e2d69ff351"
    },
    "error": null,
    "id": null
  }
]