{
  "txid": "1858591d8ce638c37d5fcd92b9b33ee96be1b950e593cf0cbf45e6bfb1ad8a22",
  "hash": "1858591d8ce638c37d5fcd92b9b33ee96be1b950e593cf0cbf45e6bfb1ad8a22",
  "version": 2,
  "size": 226,
  "vsize": 226,
  "locktime": 1354321,
  "vin": [
    {
      "txid": "8bd1c60cae6d358cdf0245a92719d348ea1e5d92feffefbfc66f1d4bccad21b3",
      "vout": 0,
      "scriptSig": {
        "asm": "3045022100d7155ebb31b844c0587b8e9c176d856f4e6be916b6577a2f83e0d0cf5f17757c022051bc585c961fd1b9506002c4690db7a1f1cf24d5341c02fb6d7215be87e8d537[ALL] 02e6c61d0d1761bc112269958865eca58d3e60021b30da29ce5f3ec4ea190bbcaf",
        "hex": "483045022100d7155ebb31b844c0587b8e9c176d856f4e6be916b6577a2f83e0d0cf5f17757c022051bc585c961fd1b9506002c4690db7a1f1cf24d5341c02fb6d7215be87e8d537012102e6c61d0d1761bc112269958865eca58d3e60021b30da29ce5f3ec4ea190bbcaf"
      },
      "sequence": 4294967294
    }
  ],
  "vout": [
    {
      "value": 0.32500000,
      "n": 0,
      "scriptPubKey": {
        "asm": "OP_DUP OP_HASH160 05ee960f0d90d36483368c8ca86848f112e0532f OP_EQUALVERIFY OP_CHECKSIG",
        "hex": "76a91405ee960f0d90d36483368c8ca86848f112e0532f88ac",
        "reqSigs": 1,
        "type": "pubkeyhash",
        "addresses": [
          "mg4KVGerD3rYricWC8CoBaayDp1YCKMfvL"
        ]
      }
    },
    {
      "value": 19.64466932,
      "n": 1,
      "scriptPubKey": {
        "asm": "OP_DUP OP_HASH160 6e4de5863d1ec3ba0b05f7cc9c743e0fa3261bf9 OP_EQUALVERIFY OP_CHECKSIG",
        "hex": "76a9146e4de5863d1ec3ba0b05f7cc9c743e0fa3261bf988ac",
        "reqSigs": 1,
        "type": "pubkeyhash",
        "addresses": [
          "mqaBwWDjJCE2Egsf6pfysgD5ZBrfsP7NkA"
        ]
      }
    }
  ],
  "hex": "0200000001b321adcc4b1d6fc6bfeffffe925d1eea48d31927a94502df8c356dae0cc6d18b000000006b483045022100d7155ebb31b844c0587b8e9c176d856f4e6be916b6577a2f83e0d0cf5f17757c022051bc585c961fd1b9506002c4690db7a1f1cf24d5341c02fb6d7215be87e8d537012102e6c61d0d1761bc112269958865eca58d3e60021b30da29ce5f3ec4ea190bbcaffeffffff0220e9ef01000000001976a91405ee960f0d90d36483368c8ca86848f112e0532f88acf4621775000000001976a9146e4de5863d1ec3ba0b05f7cc9c743e0fa3261bf988ac51aa1400"
}
