{
  "txid": "1da5cd163a9aaf830093115ac3ac44355e0bcd15afb59af78f84ad4084973ad0",
  "hash": "aa5d1157ad7d609eda564125cde235bd4f20c47723f024c9a45fd9054118ecc3",
  "version": 2,
  "size": 280,
  "vsize": 198,
  "locktime": 1354649,
  "vin": [
    {
      "txid": "fc5574fac1b2592853ce89be09fe883cb6b46e6e080213ec22408e2b8632b428",
      "vout": 0,
      "scriptSig": {
        "asm": "0014ab96ef2628ff873662ebd77f522aecf16c224495",
        "hex": "160014ab96ef2628ff873662ebd77f522aecf16c224495"
      },
      "txinwitness": [
        "3045022100af57fa2d9e948fa2c7541dba8a02886aeaf4800a9726d0451dc0eeb1dc79488e022059bbfec78f3c0c07918008afde040ee5816cb7c84e3f09e3c5d30832acaca74001",
        "026f7eeba4cbf41edbfab5cba1d476d1942aada8dc3bbedbd4db87b0ecfdfc8cfb"
      ],
      "sequence": 4294967294
    }
  ],
  "vout": [
    {
      "value": 0.10000000,
      "n": 0,
      "scriptPubKey": {
        "asm": "OP_HASH160 869bf1331ba9fe042ba7c06455d8c2bcb0b2a208 OP_EQUAL",
        "hex": "a914869bf1331ba9fe042ba7c06455d8c2bcb0b2a20887",
        "reqSigs": 1,
        "type": "scripthash",
        "addresses": [
          "2N5WyM3QT1Kb6fvkSZj3Xvcx2at7Ydm5VmL"
        ]
      }
    },
    {
      "value": 0.20000000,
      "n": 1,
      "scriptPubKey": {
        "asm": "OP_HASH160 4c69a52518526c13b234f1e88e163feed08739c8 OP_EQUAL",
        "hex": "a9144c69a52518526c13b234f1e88e163feed08739c887",
        "reqSigs": 1,
        "type": "scripthash",
        "addresses": [
          "2MzDFuDK9ZEEiRsuCDFkPdeHQLGvwbC9ufG"
        ]
      }
    },
    {
      "value": 0.11749604,
      "n": 2,
      "scriptPubKey": {
        "asm": "OP_HASH160 1d4f141e0ee4f0121bef6e2d14c852b679ceceaa OP_EQUAL",
        "hex": "a9141d4f141e0ee4f0121bef6e2d14c852b679ceceaa87",
        "reqSigs": 1,
        "type": "scripthash",
        "addresses": [
          "2MuvCKKi1MzGtvZqvcbqn5twjA2v5XLaTWe"
        ]
      }
    }
  ],
  "hex": "0200000000010128b432862b8e4022ec1302086e6eb4b63c88fe09be89ce532859b2c1fa7455fc0000000017160014ab96ef2628ff873662ebd77f522aecf16c224495feffffff03809698000000000017a914869bf1331ba9fe042ba7c06455d8c2bcb0b2a20887002d31010000000017a9144c69a52518526c13b234f1e88e163feed08739c887e448b3000000000017a9141d4f141e0ee4f0121bef6e2d14c852b679ceceaa8702483045022100af57fa2d9e948fa2c7541dba8a02886aeaf4800a9726d0451dc0eeb1dc79488e022059bbfec78f3c0c07918008afde040ee5816cb7c84e3f09e3c5d30832acaca7400121026f7eeba4cbf41edbfab5cba1d476d1942aada8dc3bbedbd4db87b0ecfdfc8cfb99ab1400"
}
