{
  "result":{
     "txid":"b3aa85765aa52cf7eb0a7f0eb7ac3447b9b1a82b9323bdd8d73fc305073a3711",
     "hash":"b3aa85765aa52cf7eb0a7f0eb7ac3447b9b1a82b9323bdd8d73fc305073a3711",
     "version":1,
     "size":669,
     "vsize":669,
     "weight":2676,
     "locktime":0,
     "vin":[
        {
           "txid":"1ec4bf89b77f0d72ee41f41c97a6d380bd69e0221bf182b993b64bb37d017b57",
           "vout":25,
           "scriptSig":{
              "asm":"3045022100839452c0fe270603b2e9fbb518423148bcc28980df77eb81380d4920cd105d120220301bee03ab795b0a21031ba16506056daa05dfc1996a1712ecfe286d4d71a8b3[ALL] 0376d9556ca4b072e27d1f9c87630fc459c40bec7ba7f8bf45d8b4620ad2ca8d05",
              "hex":"483045022100839452c0fe270603b2e9fbb518423148bcc28980df77eb81380d4920cd105d120220301bee03ab795b0a21031ba16506056daa05dfc1996a1712ecfe286d4d71a8b301210376d9556ca4b072e27d1f9c87630fc459c40bec7ba7f8bf45d8b4620ad2ca8d05"
           },
           "sequence":4294967295
        },
        {
           "txid":"64a04cad438b64e260bc0b832bde79913d618d3206e834de66bbcb1304629d61",
           "vout":28,
           "scriptSig":{
              "asm":"30440220245676c8dc8f21e9ee0a0190ae20b56b643d9849536ffd5920238bc067881d4f0220587c365ddf306c68654e42be566b56854a86e15e5d54d1dcb759d5d95be9017c[ALL] 0376d9556ca4b072e27d1f9c87630fc459c40bec7ba7f8bf45d8b4620ad2ca8d05",
              "hex":"4730440220245676c8dc8f21e9ee0a0190ae20b56b643d9849536ffd5920238bc067881d4f0220587c365ddf306c68654e42be566b56854a86e15e5d54d1dcb759d5d95be9017c01210376d9556ca4b072e27d1f9c87630fc459c40bec7ba7f8bf45d8b4620ad2ca8d05"
           },
           "sequence":4294967295
        },
        {
           "txid":"8bde1da3d2315e09f910cb9782018fe243740c56cd7ca78a19016b169e74180a",
           "vout":25,
           "scriptSig":{
              "asm":"3045022100fb4d6b4abe8728d7d0144fbecc08bc7ed26f372da66a83c7b2aff492a17d36940220028f6b030acb5e3fe41eca2ee112bf10d4ef0b51c50b5c6ac0437ebb0774c90e[ALL] 0376d9556ca4b072e27d1f9c87630fc459c40bec7ba7f8bf45d8b4620ad2ca8d05",
              "hex":"483045022100fb4d6b4abe8728d7d0144fbecc08bc7ed26f372da66a83c7b2aff492a17d36940220028f6b030acb5e3fe41eca2ee112bf10d4ef0b51c50b5c6ac0437ebb0774c90e01210376d9556ca4b072e27d1f9c87630fc459c40bec7ba7f8bf45d8b4620ad2ca8d05"
           },
           "sequence":4294967295
        }
     ],
     "vout":[
        {
           "value":0.00061921,
           "n":0,
           "scriptPubKey":{
              "asm":"OP_DUP OP_HASH160 7fbace621bfe0a0c7992cd5c0a92c5017f50ca83 OP_EQUALVERIFY OP_CHECKSIG",
              "hex":"76a9147fbace621bfe0a0c7992cd5c0a92c5017f50ca8388ac",
              "reqSigs":1,
              "type":"pubkeyhash",
              "addresses":[
                 "1CeNbtFoZo3eFYHwUmSbuPfBTF47mzoLxB"
              ]
           }
        },
        {
           "value":0.00378139,
           "n":1,
           "scriptPubKey":{
              "asm":"OP_DUP OP_HASH160 9a863ba07bfed19bdf50c3d9cc18cb31681a23a3 OP_EQUALVERIFY OP_CHECKSIG",
              "hex":"76a9149a863ba07bfed19bdf50c3d9cc18cb31681a23a388ac",
              "reqSigs":1,
              "type":"pubkeyhash",
              "addresses":[
                 "1F63sD6QV2e4VxEqpjkWRNRF6FnTgnjzUo"
              ]
           }
        }
     ],
     "hex":"0100000004577b017db34bb693b982f11b22e069bd80d3a6971cf441ee720d7fb789bfc41e190000006b483045022100839452c0fe270603b2e9fbb518423148bcc28980df77eb81380d4920cd105d120220301bee03ab795b0a21031ba16506056daa05dfc1996a1712ecfe286d4d71a8b301210376d9556ca4b072e27d1f9c87630fc459c40bec7ba7f8bf45d8b4620ad2ca8d05ffffffff619d620413cbbb66de34e806328d613d9179de2b830bbc60e2648b43ad4ca0641c0000006a4730440220245676c8dc8f21e9ee0a0190ae20b56b643d9849536ffd5920238bc067881d4f0220587c365ddf306c68654e42be566b56854a86e15e5d54d1dcb759d5d95be9017c01210376d9556ca4b072e27d1f9c87630fc459c40bec7ba7f8bf45d8b4620ad2ca8d05ffffffff0a18749e166b01198aa77ccd560c7443e28f018297cb10f9095e31d2a31dde8b190000006b483045022100fb4d6b4abe8728d7d0144fbecc08bc7ed26f372da66a83c7b2aff492a17d36940220028f6b030acb5e3fe41eca2ee112bf10d4ef0b51c50b5c6ac0437ebb0774c90e01210376d9556ca4b072e27d1f9c87630fc459c40bec7ba7f8bf45d8b4620ad2ca8d05ffffffffc8ffa7698082a492bea30cb52932c047f91fbfbb9c1f61d87c7db68d6d787bb1160000006b483045022100ea17f1593a71481c76349404c9fe3579a941de18e505bb8cac1662bf144e3db7022027011bce24b255a8a95cf8cc27c9435a61f7898a6a2cb2e25e05977f8a84048c01210376d9556ca4b072e27d1f9c87630fc459c40bec7ba7f8bf45d8b4620ad2ca8d05ffffffff02e1f10000000000001976a9147fbace621bfe0a0c7992cd5c0a92c5017f50ca8388ac1bc50500000000001976a9149a863ba07bfed19bdf50c3d9cc18cb31681a23a388ac00000000",
     "blockhash":"000000000000000000024bead8df69990852c202db0e0097c1a12ea637d7e96d",
     "confirmations":3029,
     "time":1589225023,
     "blocktime":1589225023
  },
  "error":null,
  "id":"curltext"
}