{
   "result":{
      "txid":"1da4b5a135cc0fee9d3aeb5428a898fd12fe5b1b777fd291dbbdbb72c2da8759",
      "hash":"264c05c975e8942430966986c992543e33aef175dd5d9d61e67c092df21340ca",
      "version":2,
      "size":342,
      "vsize":315,
      "weight":1260,
      "locktime":0,
      "vin":[
         {
            "coinbase":"03bda8090400e3d85e626a30332f4254432e434f4d2ffabe6d6d71b9969d5a093dc1b611e88e7ea9bbb18c16702a87747d2545c860d270f6f501080000007296cd105f21cf0592d3010000000000",
            "sequence":4294967295
         }
      ],
      "vout":[
         {
            "value":7.08207606,
            "n":0,
            "scriptPubKey":{
               "asm":"0 97cfc76442fe717f2a3f0cc9c175f7561b661997",
               "hex":"001497cfc76442fe717f2a3f0cc9c175f7561b661997",
               "reqSigs":1,
               "type":"witness_v0_keyhash",
               "addresses":[
                  "bc1qjl8uwezzlech723lpnyuza0h2cdkvxvh54v3dn"
               ]
            }
         },
         {
            "value":0.00000000,
            "n":1,
            "scriptPubKey":{
               "asm":"OP_RETURN aa21a9edff806fb89bd47a8bc9eaac5c82348c0a60e9b79115fc69b0800b3a959ee8682d",
               "hex":"6a24aa21a9edff806fb89bd47a8bc9eaac5c82348c0a60e9b79115fc69b0800b3a959ee8682d",
               "type":"nulldata"
            }
         },
         {
            "value":0.00000000,
            "n":2,
            "scriptPubKey":{
               "asm":"OP_RETURN 52534b424c4f434b3af49aeb26904f98d98492fdaf8814d9a3a1e93935663f3473e81a1f260024d73f",
               "hex":"6a2952534b424c4f434b3af49aeb26904f98d98492fdaf8814d9a3a1e93935663f3473e81a1f260024d73f",
               "type":"nulldata"
            }
         },
         {
            "value":0.00000000,
            "n":3,
            "scriptPubKey":{
               "asm":"OP_RETURN b9e11b6da31c7cc1d2254d8fa49ff041a5167353b57e14a0c77f98ab3bc87a599dfafdfb",
               "hex":"6a24b9e11b6da31c7cc1d2254d8fa49ff041a5167353b57e14a0c77f98ab3bc87a599dfafdfb",
               "type":"nulldata"
            }
         }
      ],
      "hex":"020000000001010000000000000000000000000000000000000000000000000000000000000000ffffffff4e03bda8090400e3d85e626a30332f4254432e434f4d2ffabe6d6d71b9969d5a093dc1b611e88e7ea9bbb18c16702a87747d2545c860d270f6f501080000007296cd105f21cf0592d3010000000000ffffffff04f663362a0000000016001497cfc76442fe717f2a3f0cc9c175f7561b6619970000000000000000266a24aa21a9edff806fb89bd47a8bc9eaac5c82348c0a60e9b79115fc69b0800b3a959ee8682d00000000000000002b6a2952534b424c4f434b3af49aeb26904f98d98492fdaf8814d9a3a1e93935663f3473e81a1f260024d73f0000000000000000266a24b9e11b6da31c7cc1d2254d8fa49ff041a5167353b57e14a0c77f98ab3bc87a599dfafdfb0120000000000000000000000000000000000000000000000000000000000000000000000000",
      "blockhash":"00000000000000000000edc15432f7e78dca7905cf46c5cb11af8a1fe893d699",
      "confirmations":1,
      "time":1591272191,
      "blocktime":1591272191
   },
   "error":null,
   "id":"curltext"
}