{
  "result":{
      "txid":"1ec4bf89b77f0d72ee41f41c97a6d380bd69e0221bf182b993b64bb37d017b57",
      "hash":"1ec4bf89b77f0d72ee41f41c97a6d380bd69e0221bf182b993b64bb37d017b57",
      "version":1,
      "size":2660,
      "vsize":2660,
      "weight":10640,
      "locktime":0,
      "vin":[
        {
            "txid":"0549c79759c00d4a91ee6f12743d08f94c3b7663baa29d1ee1f3009bba94fbcc",
            "vout":86,
            "scriptSig":{
              "asm":"3044022062f76ce4cbb31ae834332900d87c50c816d72a14f59624cfe468c62e65e0ab0302204164ba095a7330dd4a1880d69d05061bcbe0f70e2447ccad148fb867950ec3d5[ALL] 02231339a066c4acdff2b8f4b848660bfdeccca9100daac9bcd1a8bf585722119d",
              "hex":"473044022062f76ce4cbb31ae834332900d87c50c816d72a14f59624cfe468c62e65e0ab0302204164ba095a7330dd4a1880d69d05061bcbe0f70e2447ccad148fb867950ec3d5012102231339a066c4acdff2b8f4b848660bfdeccca9100daac9bcd1a8bf585722119d"
            },
            "sequence":4294967295
        },
        {
            "txid":"311971e71ef99a935e7dfacafbbb28a95ac0c8422456eae344af1c3efd3fd947",
            "vout":89,
            "scriptSig":{
              "asm":"30440220470de0dce0bac9edcad70f24a805b701d3d024b02d874594452075de30fe905802203fe1095bb2757a188e210b1f15d9345341dca11ba9a1b320113fc82b389f7194[ALL] 02231339a066c4acdff2b8f4b848660bfdeccca9100daac9bcd1a8bf585722119d",
              "hex":"4730440220470de0dce0bac9edcad70f24a805b701d3d024b02d874594452075de30fe905802203fe1095bb2757a188e210b1f15d9345341dca11ba9a1b320113fc82b389f7194012102231339a066c4acdff2b8f4b848660bfdeccca9100daac9bcd1a8bf585722119d"
            },
            "sequence":4294967295
        },
        {
            "txid":"4d2c5ee10f995053047fb7822bb78b6029ee3609b976037c131cdf4bc1936d8a",
            "vout":2,
            "scriptSig":{
              "asm":"3044022060ac10cace16d0e49fe9686b581bce951b4f2c8460ae9b3b9cad7fad80d83b080220668a9c0846d6f2b9fa2231a11e8586455a272c7acf09fc7d1241ecd555782d35[ALL] 02231339a066c4acdff2b8f4b848660bfdeccca9100daac9bcd1a8bf585722119d",
              "hex":"473044022060ac10cace16d0e49fe9686b581bce951b4f2c8460ae9b3b9cad7fad80d83b080220668a9c0846d6f2b9fa2231a11e8586455a272c7acf09fc7d1241ecd555782d35012102231339a066c4acdff2b8f4b848660bfdeccca9100daac9bcd1a8bf585722119d"
            },
            "sequence":4294967295
        },
        {
            "txid":"71bcad9afbc8ab7ebeacf81d1744e002a5707818197885b056260e50ccdc7908",
            "vout":44,
            "scriptSig":{
              "asm":"304402207850cfe3744d07fd0821ddbeba99482131a04b17cd1977633d10b16c08284f2902200efc2e24e9d5d6ad32f15e391ceeb9a5a7f83b74795b11fd09e407a1ab6120bf[ALL] 02231339a066c4acdff2b8f4b848660bfdeccca9100daac9bcd1a8bf585722119d",
              "hex":"47304402207850cfe3744d07fd0821ddbeba99482131a04b17cd1977633d10b16c08284f2902200efc2e24e9d5d6ad32f15e391ceeb9a5a7f83b74795b11fd09e407a1ab6120bf012102231339a066c4acdff2b8f4b848660bfdeccca9100daac9bcd1a8bf585722119d"
            },
            "sequence":4294967295
        },
        {
            "txid":"a7d2adc98b7325eb41a08f7d97245d3d582b4769423cb8eca78dc7e654d5ffc2",
            "vout":0,
            "scriptSig":{
              "asm":"304502210092ff82d084606db85bb2ffa29d15fd1f628f92f2a245fc3aa8ff3ff81cd5bfd602201530ca5f7abc024ab63fab6a828a4813a0cd404806e7deab78381232bb2d0252[ALL] 031617c3f8b74c2bf39d864ef5d056758be88f7cd6e8696fe703a34d5743f09f9b",
              "hex":"48304502210092ff82d084606db85bb2ffa29d15fd1f628f92f2a245fc3aa8ff3ff81cd5bfd602201530ca5f7abc024ab63fab6a828a4813a0cd404806e7deab78381232bb2d02520121031617c3f8b74c2bf39d864ef5d056758be88f7cd6e8696fe703a34d5743f09f9b"
            },
            "sequence":4294967295
        },
        {
            "txid":"b19d99802cb973073bdac7feea2270f8b4617a66df33c790158f535787ac9a45",
            "vout":0,
            "scriptSig":{
              "asm":"3045022100a71c335e2f62bf23236d0aa94ecc1b38233ca17fbb29fa9d3aaf0da2cf2f5da202202143f86c151c19b3a536066f918c934355c7f7760d7c2a1b9bfb4db3f7ce75dd[ALL] 02fb823a5c82d11b347eaf7a7fdb3687bd22349e83567e5012ec2565c119a7e27f",
              "hex":"483045022100a71c335e2f62bf23236d0aa94ecc1b38233ca17fbb29fa9d3aaf0da2cf2f5da202202143f86c151c19b3a536066f918c934355c7f7760d7c2a1b9bfb4db3f7ce75dd012102fb823a5c82d11b347eaf7a7fdb3687bd22349e83567e5012ec2565c119a7e27f"
            },
            "sequence":4294967295
        }
      ],
      "vout":[
        {
            "value":0.00125000,
            "n":0,
            "scriptPubKey":{
              "asm":"OP_DUP OP_HASH160 0b60a2ba638ed881564079bda30b81344a886b31 OP_EQUALVERIFY OP_CHECKSIG",
              "hex":"76a9140b60a2ba638ed881564079bda30b81344a886b3188ac",
              "reqSigs":1,
              "type":"pubkeyhash",
              "addresses":[
                  "123ACUT4RwGGthSf52bhYTngXaw5yFzCmD"
              ]
            }
        },
        {
            "value":0.00125000,
            "n":1,
            "scriptPubKey":{
              "asm":"OP_DUP OP_HASH160 2469ffa9a5c430f15a3fe8cdd3dbf6c79db0e7df OP_EQUALVERIFY OP_CHECKSIG",
              "hex":"76a9142469ffa9a5c430f15a3fe8cdd3dbf6c79db0e7df88ac",
              "reqSigs":1,
              "type":"pubkeyhash",
              "addresses":[
                  "14KYJpm8ETVvYuJ2ZcnSasMVs6UbZez5Hs"
              ]
            }
        },
        {
            "value":0.00125000,
            "n":2,
            "scriptPubKey":{
              "asm":"OP_DUP OP_HASH160 2b1539f3c67c7925d6a2b40464c8b2fc2e861e17 OP_EQUALVERIFY OP_CHECKSIG",
              "hex":"76a9142b1539f3c67c7925d6a2b40464c8b2fc2e861e1788ac",
              "reqSigs":1,
              "type":"pubkeyhash",
              "addresses":[
                  "14voV5pmeC2yCHvaBTWxdA9trCbbauABni"
              ]
            }
        },
        {
            "value":0.00125000,
            "n":3,
            "scriptPubKey":{
              "asm":"OP_DUP OP_HASH160 2e19068f534fd35a67e0314aa0842b5d2c4cf385 OP_EQUALVERIFY OP_CHECKSIG",
              "hex":"76a9142e19068f534fd35a67e0314aa0842b5d2c4cf38588ac",
              "reqSigs":1,
              "type":"pubkeyhash",
              "addresses":[
                  "15Ck4dqNz8t4FAqxwjuXCDkHdjGnSMJPyg"
              ]
            }
        },
        {
            "value":0.00125000,
            "n":4,
            "scriptPubKey":{
              "asm":"OP_DUP OP_HASH160 34d05b20813c101472e683d414524d4fc8914dc7 OP_EQUALVERIFY OP_CHECKSIG",
              "hex":"76a91434d05b20813c101472e683d414524d4fc8914dc788ac",
              "reqSigs":1,
              "type":"pubkeyhash",
              "addresses":[
                  "15pFjoUwCGmiLcGM4P1DERFxBFRpUhak5u"
              ]
            }
        },
        {
            "value":0.00125000,
            "n":5,
            "scriptPubKey":{
              "asm":"OP_DUP OP_HASH160 3d8564071b659876b2bb2d3ccad456aba9d95432 OP_EQUALVERIFY OP_CHECKSIG",
              "hex":"76a9143d8564071b659876b2bb2d3ccad456aba9d9543288ac",
              "reqSigs":1,
              "type":"pubkeyhash",
              "addresses":[
                  "16cJ1rS8MeuUoGGQ7HE1zdc6auV5SjHET2"
              ]
            }
        },
        {
            "value":0.00125000,
            "n":6,
            "scriptPubKey":{
              "asm":"OP_DUP OP_HASH160 40c24379e443c5003a7e60ebdba93b373b52acd7 OP_EQUALVERIFY OP_CHECKSIG",
              "hex":"76a91440c24379e443c5003a7e60ebdba93b373b52acd788ac",
              "reqSigs":1,
              "type":"pubkeyhash",
              "addresses":[
                  "16uQxwwTYTsuzk4vX7Crqi5EoAgZiZ1apZ"
              ]
            }
        },
        {
            "value":0.00125000,
            "n":7,
            "scriptPubKey":{
              "asm":"OP_DUP OP_HASH160 5570d099685573e5deb6555cb51610d27fb10fba OP_EQUALVERIFY OP_CHECKSIG",
              "hex":"76a9145570d099685573e5deb6555cb51610d27fb10fba88ac",
              "reqSigs":1,
              "type":"pubkeyhash",
              "addresses":[
                  "18nmapTEfSrEfZAKtsBhArZD74suQyF4U5"
              ]
            }
        },
        {
            "value":0.00125000,
            "n":8,
            "scriptPubKey":{
              "asm":"OP_DUP OP_HASH160 58ff714296e3ba44dc5f10d295ca75fb5398e1f2 OP_EQUALVERIFY OP_CHECKSIG",
              "hex":"76a91458ff714296e3ba44dc5f10d295ca75fb5398e1f288ac",
              "reqSigs":1,
              "type":"pubkeyhash",
              "addresses":[
                  "197aULEwk6hRunVNMeqP7mgBvmvt8DUgB4"
              ]
            }
        },
        {
            "value":0.00125000,
            "n":9,
            "scriptPubKey":{
              "asm":"OP_DUP OP_HASH160 5e30c98c84888912fd3aefef00da5681b56e41e4 OP_EQUALVERIFY OP_CHECKSIG",
              "hex":"76a9145e30c98c84888912fd3aefef00da5681b56e41e488ac",
              "reqSigs":1,
              "type":"pubkeyhash",
              "addresses":[
                  "19b2xqKc8rJfNXTrn4zRTQWh12zsSArPhe"
              ]
            }
        },
        {
            "value":0.00125000,
            "n":10,
            "scriptPubKey":{
              "asm":"OP_DUP OP_HASH160 619adfd8225d30557f7b42755cab9bd1e244555d OP_EQUALVERIFY OP_CHECKSIG",
              "hex":"76a914619adfd8225d30557f7b42755cab9bd1e244555d88ac",
              "reqSigs":1,
              "type":"pubkeyhash",
              "addresses":[
                  "19u65UCW7Uqqqa4YucnSu3sDTLrHhNsKAW"
              ]
            }
        },
        {
            "value":0.00125000,
            "n":11,
            "scriptPubKey":{
              "asm":"OP_DUP OP_HASH160 6fff8b26ba90fc14c3ee24a479114aacfa3f913c OP_EQUALVERIFY OP_CHECKSIG",
              "hex":"76a9146fff8b26ba90fc14c3ee24a479114aacfa3f913c88ac",
              "reqSigs":1,
              "type":"pubkeyhash",
              "addresses":[
                  "1BDC8miaJkLdKrtFwFPxa2BtWkFo4YkH7A"
              ]
            }
        },
        {
            "value":0.00125000,
            "n":12,
            "scriptPubKey":{
              "asm":"OP_DUP OP_HASH160 764bb99404aca6819c83597673b6f9accad8c094 OP_EQUALVERIFY OP_CHECKSIG",
              "hex":"76a914764bb99404aca6819c83597673b6f9accad8c09488ac",
              "reqSigs":1,
              "type":"pubkeyhash",
              "addresses":[
                  "1BnVT6XdQYm7ynq7pMEGu6Qp7SMG6zQA7s"
              ]
            }
        },
        {
            "value":0.00125000,
            "n":13,
            "scriptPubKey":{
              "asm":"OP_DUP OP_HASH160 779a9e771fc3f523ced5cdea18c6cab68c9aefad OP_EQUALVERIFY OP_CHECKSIG",
              "hex":"76a914779a9e771fc3f523ced5cdea18c6cab68c9aefad88ac",
              "reqSigs":1,
              "type":"pubkeyhash",
              "addresses":[
                  "1BuQdwnmbWm95GQdKZ68j4rS3ei416NNbB"
              ]
            }
        },
        {
            "value":0.00125000,
            "n":14,
            "scriptPubKey":{
              "asm":"OP_DUP OP_HASH160 7d9f988039aa6fd4c0cebeb253a44c67ec899d6c OP_EQUALVERIFY OP_CHECKSIG",
              "hex":"76a9147d9f988039aa6fd4c0cebeb253a44c67ec899d6c88ac",
              "reqSigs":1,
              "type":"pubkeyhash",
              "addresses":[
                  "1CTEetD4bNd4Mc1Pse7d39L7J7qPR257kR"
              ]
            }
        },
        {
            "value":0.00125000,
            "n":15,
            "scriptPubKey":{
              "asm":"OP_DUP OP_HASH160 86c1f7407773347bc2014ccc18aac8548df2cdec OP_EQUALVERIFY OP_CHECKSIG",
              "hex":"76a91486c1f7407773347bc2014ccc18aac8548df2cdec88ac",
              "reqSigs":1,
              "type":"pubkeyhash",
              "addresses":[
                  "1DHXugrrXBGgfNP3mZZKZoPqmUax3z4scw"
              ]
            }
        },
        {
            "value":0.00125000,
            "n":16,
            "scriptPubKey":{
              "asm":"OP_DUP OP_HASH160 8a10bdd47fd34bfaa1d21ec9777c5d30df0c4fcd OP_EQUALVERIFY OP_CHECKSIG",
              "hex":"76a9148a10bdd47fd34bfaa1d21ec9777c5d30df0c4fcd88ac",
              "reqSigs":1,
              "type":"pubkeyhash",
              "addresses":[
                  "1Db2JhFpLDN8FscBgPNMUpcoAWYVkoiHqw"
              ]
            }
        },
        {
            "value":0.00125000,
            "n":17,
            "scriptPubKey":{
              "asm":"OP_DUP OP_HASH160 8cafef5a15afb59a9d6821d614dcae0238941298 OP_EQUALVERIFY OP_CHECKSIG",
              "hex":"76a9148cafef5a15afb59a9d6821d614dcae023894129888ac",
              "reqSigs":1,
              "type":"pubkeyhash",
              "addresses":[
                  "1DptN2sCLqixdtGae9abomRP84XdCPkToQ"
              ]
            }
        },
        {
            "value":0.00125000,
            "n":18,
            "scriptPubKey":{
              "asm":"OP_DUP OP_HASH160 8e7c99427aff739a5b1190b823c6313c89949f01 OP_EQUALVERIFY OP_CHECKSIG",
              "hex":"76a9148e7c99427aff739a5b1190b823c6313c89949f0188ac",
              "reqSigs":1,
              "type":"pubkeyhash",
              "addresses":[
                  "1DzQDWRf2CXXn6EQiaHCUkzciezFv4m6sn"
              ]
            }
        },
        {
            "value":0.00125000,
            "n":19,
            "scriptPubKey":{
              "asm":"OP_DUP OP_HASH160 8f6e230d9b1df2ea55b074d757309f839e924999 OP_EQUALVERIFY OP_CHECKSIG",
              "hex":"76a9148f6e230d9b1df2ea55b074d757309f839e92499988ac",
              "reqSigs":1,
              "type":"pubkeyhash",
              "addresses":[
                  "1E5PZt1ok99P1UdmdVpj1KBqY8ea1TN2vJ"
              ]
            }
        },
        {
            "value":0.00125000,
            "n":20,
            "scriptPubKey":{
              "asm":"OP_DUP OP_HASH160 8fff0e7f96c6527030bcee767a106ab0318f9ac6 OP_EQUALVERIFY OP_CHECKSIG",
              "hex":"76a9148fff0e7f96c6527030bcee767a106ab0318f9ac688ac",
              "reqSigs":1,
              "type":"pubkeyhash",
              "addresses":[
                  "1E8PB5VKyNYALeSWF2TZ1vaCjimyp87F5z"
              ]
            }
        },
        {
            "value":0.00125000,
            "n":21,
            "scriptPubKey":{
              "asm":"OP_DUP OP_HASH160 949f084af4ddd8505125786d1a392a929d5c35d7 OP_EQUALVERIFY OP_CHECKSIG",
              "hex":"76a914949f084af4ddd8505125786d1a392a929d5c35d788ac",
              "reqSigs":1,
              "type":"pubkeyhash",
              "addresses":[
                  "1EYqXA1Yi8pYsfcLAEWDmi72ZqCh17yJhc"
              ]
            }
        },
        {
            "value":0.00125000,
            "n":22,
            "scriptPubKey":{
              "asm":"OP_DUP OP_HASH160 97ed7dc93097622debbe997abfdbbb69aee0292b OP_EQUALVERIFY OP_CHECKSIG",
              "hex":"76a91497ed7dc93097622debbe997abfdbbb69aee0292b88ac",
              "reqSigs":1,
              "type":"pubkeyhash",
              "addresses":[
                  "1ErKY9yc2nmMgJq3HKJDM79pV4NgtnW2AP"
              ]
            }
        },
        {
            "value":0.00125000,
            "n":23,
            "scriptPubKey":{
              "asm":"OP_DUP OP_HASH160 9b083bc18e97295b6b6a9e8fc7a17c0272fb9be4 OP_EQUALVERIFY OP_CHECKSIG",
              "hex":"76a9149b083bc18e97295b6b6a9e8fc7a17c0272fb9be488ac",
              "reqSigs":1,
              "type":"pubkeyhash",
              "addresses":[
                  "1F8jboWesASAJ5KB8SZcrZVuHCgJWEHyv1"
              ]
            }
        },
        {
            "value":0.00125000,
            "n":24,
            "scriptPubKey":{
              "asm":"OP_DUP OP_HASH160 adafa72e1bd05f5d4c9d2ad0e2f469343f015e03 OP_EQUALVERIFY OP_CHECKSIG",
              "hex":"76a914adafa72e1bd05f5d4c9d2ad0e2f469343f015e0388ac",
              "reqSigs":1,
              "type":"pubkeyhash",
              "addresses":[
                  "1GqNKmuv6ukQFgecYTyinhDhsQehwTuxvW"
              ]
            }
        },
        {
            "value":0.00125000,
            "n":25,
            "scriptPubKey":{
              "asm":"OP_DUP OP_HASH160 ae16283efd5cf6bf92a882d78b811164fd65ca50 OP_EQUALVERIFY OP_CHECKSIG",
              "hex":"76a914ae16283efd5cf6bf92a882d78b811164fd65ca5088ac",
              "reqSigs":1,
              "type":"pubkeyhash",
              "addresses":[
                  "1GsV7tXxXhfdp7kEFoFkgQLUWyv2xgPjnQ"
              ]
            }
        },
        {
            "value":0.00125000,
            "n":26,
            "scriptPubKey":{
              "asm":"OP_DUP OP_HASH160 af53a722ff71ead0f469469b05158b1490b984ef OP_EQUALVERIFY OP_CHECKSIG",
              "hex":"76a914af53a722ff71ead0f469469b05158b1490b984ef88ac",
              "reqSigs":1,
              "type":"pubkeyhash",
              "addresses":[
                  "1Gz3Tshhckx3BhZTg8s2up6sCaw4htmWzd"
              ]
            }
        },
        {
            "value":0.00125000,
            "n":27,
            "scriptPubKey":{
              "asm":"OP_DUP OP_HASH160 b21e577c81faf4e1381d92902965c95b2de8c920 OP_EQUALVERIFY OP_CHECKSIG",
              "hex":"76a914b21e577c81faf4e1381d92902965c95b2de8c92088ac",
              "reqSigs":1,
              "type":"pubkeyhash",
              "addresses":[
                  "1HEodKyRezNkXvHwQtfkTSCP2oFzkxGpy4"
              ]
            }
        },
        {
            "value":0.00125000,
            "n":28,
            "scriptPubKey":{
              "asm":"OP_DUP OP_HASH160 c0af67b1144cc450f3013b4b4442742946a019b8 OP_EQUALVERIFY OP_CHECKSIG",
              "hex":"76a914c0af67b1144cc450f3013b4b4442742946a019b888ac",
              "reqSigs":1,
              "type":"pubkeyhash",
              "addresses":[
                  "1JZpsBtMSUv5iScpbyJMYb7uzpcNJNQzzG"
              ]
            }
        },
        {
            "value":0.00125000,
            "n":29,
            "scriptPubKey":{
              "asm":"OP_DUP OP_HASH160 c74f9b0fa166b9948c79b89db4de7bd8c50911fc OP_EQUALVERIFY OP_CHECKSIG",
              "hex":"76a914c74f9b0fa166b9948c79b89db4de7bd8c50911fc88ac",
              "reqSigs":1,
              "type":"pubkeyhash",
              "addresses":[
                  "1KArqGzf79Gr9PvDz6XakgoBNDrB1C4DDQ"
              ]
            }
        },
        {
            "value":0.00125000,
            "n":30,
            "scriptPubKey":{
              "asm":"OP_DUP OP_HASH160 cd05c05064bc1817c1c2b0e99a6e0725ef7682bf OP_EQUALVERIFY OP_CHECKSIG",
              "hex":"76a914cd05c05064bc1817c1c2b0e99a6e0725ef7682bf88ac",
              "reqSigs":1,
              "type":"pubkeyhash",
              "addresses":[
                  "1Kh4Qvo29DYSEytc16nAeRVZMqZuWCC3gM"
              ]
            }
        },
        {
            "value":0.00125000,
            "n":31,
            "scriptPubKey":{
              "asm":"OP_DUP OP_HASH160 d1e574454ca563afd78fc4286863cce49e42680f OP_EQUALVERIFY OP_CHECKSIG",
              "hex":"76a914d1e574454ca563afd78fc4286863cce49e42680f88ac",
              "reqSigs":1,
              "type":"pubkeyhash",
              "addresses":[
                  "1L8q6rDrPHectt9fU2vtXiW83PrQDZZFxc"
              ]
            }
        },
        {
            "value":0.00125000,
            "n":32,
            "scriptPubKey":{
              "asm":"OP_DUP OP_HASH160 d3fef99d497a92c24bbfd0544f473382a952244a OP_EQUALVERIFY OP_CHECKSIG",
              "hex":"76a914d3fef99d497a92c24bbfd0544f473382a952244a88ac",
              "reqSigs":1,
              "type":"pubkeyhash",
              "addresses":[
                  "1LKw2TKH9gDD7yZmbLQspjjXTnQv6pp4oS"
              ]
            }
        },
        {
            "value":0.00125000,
            "n":33,
            "scriptPubKey":{
              "asm":"OP_DUP OP_HASH160 e4bad8baf32b64a0c9fc6ecea46ff4228ddaeef7 OP_EQUALVERIFY OP_CHECKSIG",
              "hex":"76a914e4bad8baf32b64a0c9fc6ecea46ff4228ddaeef788ac",
              "reqSigs":1,
              "type":"pubkeyhash",
              "addresses":[
                  "1MrQu4szTChSLfUeyLJdfkSdU2fFY7ksFG"
              ]
            }
        },
        {
            "value":0.00125000,
            "n":34,
            "scriptPubKey":{
              "asm":"OP_HASH160 01086197a0b49b6a8ec44340389c54832078ed05 OP_EQUAL",
              "hex":"a91401086197a0b49b6a8ec44340389c54832078ed0587",
              "reqSigs":1,
              "type":"scripthash",
              "addresses":[
                  "31nUe5BfY7XV4g2q2qFfsavHb3RF3Vg9D3"
              ]
            }
        },
        {
            "value":0.00125000,
            "n":35,
            "scriptPubKey":{
              "asm":"OP_HASH160 04fea4d4d631d70356ffd24087c191396cc11311 OP_EQUAL",
              "hex":"a91404fea4d4d631d70356ffd24087c191396cc1131187",
              "reqSigs":1,
              "type":"scripthash",
              "addresses":[
                  "329RgH3qzbr4NfjxRRTfJ6PY6sFVoweig2"
              ]
            }
        },
        {
            "value":0.00125000,
            "n":36,
            "scriptPubKey":{
              "asm":"OP_HASH160 2d83121321bf5da5524776a3018e20fc0099cae5 OP_EQUAL",
              "hex":"a9142d83121321bf5da5524776a3018e20fc0099cae587",
              "reqSigs":1,
              "type":"scripthash",
              "addresses":[
                  "35qfM7zZ9tzcjYDmRDRYYFoayBvgcepdRE"
              ]
            }
        },
        {
            "value":0.00125000,
            "n":37,
            "scriptPubKey":{
              "asm":"OP_HASH160 33990bb8292fd312a525309533e46b2de4a4cfbe OP_EQUAL",
              "hex":"a91433990bb8292fd312a525309533e46b2de4a4cfbe87",
              "reqSigs":1,
              "type":"scripthash",
              "addresses":[
                  "36Pqj8jqg5Mus5Z9eUqtxXQuxEwjFPTe8D"
              ]
            }
        },
        {
            "value":0.00125000,
            "n":38,
            "scriptPubKey":{
              "asm":"OP_HASH160 3aa1658f29ab8f74a575b0d26d87a7d1f712cd21 OP_EQUAL",
              "hex":"a9143aa1658f29ab8f74a575b0d26d87a7d1f712cd2187",
              "reqSigs":1,
              "type":"scripthash",
              "addresses":[
                  "3732Ti9nE3A7sR8bLxVCett6PZJJ2Cmn1k"
              ]
            }
        },
        {
            "value":0.00125000,
            "n":39,
            "scriptPubKey":{
              "asm":"OP_HASH160 3c1967df92355ea0e34bccf71913c0e2f6019680 OP_EQUAL",
              "hex":"a9143c1967df92355ea0e34bccf71913c0e2f601968087",
              "reqSigs":1,
              "type":"scripthash",
              "addresses":[
                  "37AnuGz3dXjoULWjiJgbhG7bCHgc5AzDmm"
              ]
            }
        },
        {
            "value":0.00125000,
            "n":40,
            "scriptPubKey":{
              "asm":"OP_HASH160 49710ca4a6125f385bae6dc95c9891628f63c745 OP_EQUAL",
              "hex":"a91449710ca4a6125f385bae6dc95c9891628f63c74587",
              "reqSigs":1,
              "type":"scripthash",
              "addresses":[
                  "38PLgMdZD62jBuCSJu9AqpmoKegRcEtJMt"
              ]
            }
        },
        {
            "value":0.00125000,
            "n":41,
            "scriptPubKey":{
              "asm":"OP_HASH160 600edb431e16d44205ce0b27ffe4d56737630fcf OP_EQUAL",
              "hex":"a914600edb431e16d44205ce0b27ffe4d56737630fcf87",
              "reqSigs":1,
              "type":"scripthash",
              "addresses":[
                  "3ASvbCwaYKFt4Z1JM3efpnFu43RCJnKWLc"
              ]
            }
        },
        {
            "value":0.00125000,
            "n":42,
            "scriptPubKey":{
              "asm":"OP_HASH160 658e4399cfecfb15d2b4e464707e70a0994193e1 OP_EQUAL",
              "hex":"a914658e4399cfecfb15d2b4e464707e70a0994193e187",
              "reqSigs":1,
              "type":"scripthash",
              "addresses":[
                  "3AwzbbhyW6aFsKkFtvge88DuFEzr27uFvg"
              ]
            }
        },
        {
            "value":0.00125000,
            "n":43,
            "scriptPubKey":{
              "asm":"OP_HASH160 68e574fc83715f41da82d67badc8658c66626899 OP_EQUAL",
              "hex":"a91468e574fc83715f41da82d67badc8658c6662689987",
              "reqSigs":1,
              "type":"scripthash",
              "addresses":[
                  "3BFf5SjPPJSPEvVbX2TN8RJWua22mHBR48"
              ]
            }
        },
        {
            "value":0.00125000,
            "n":44,
            "scriptPubKey":{
              "asm":"OP_HASH160 6efa0da6687d67ed6521ec1d7bdfe13790dc5bd0 OP_EQUAL",
              "hex":"a9146efa0da6687d67ed6521ec1d7bdfe13790dc5bd087",
              "reqSigs":1,
              "type":"scripthash",
              "addresses":[
                  "3Boooeud9jdSM3ZSUbpxHCXJLhy59hrBeT"
              ]
            }
        },
        {
            "value":0.00125000,
            "n":45,
            "scriptPubKey":{
              "asm":"OP_HASH160 937d46320502a4584146d5c9c531ff641fa48465 OP_EQUAL",
              "hex":"a914937d46320502a4584146d5c9c531ff641fa4846587",
              "reqSigs":1,
              "type":"scripthash",
              "addresses":[
                  "3F8sKwsapFvHapn8mcn4auh2HGmBhnrXsN"
              ]
            }
        },
        {
            "value":0.00125000,
            "n":46,
            "scriptPubKey":{
              "asm":"OP_HASH160 c00a5652509777e19d6a52d17d87498d35afa393 OP_EQUAL",
              "hex":"a914c00a5652509777e19d6a52d17d87498d35afa39387",
              "reqSigs":1,
              "type":"scripthash",
              "addresses":[
                  "3KCS3cgT6kVYVd8ifdKCxpsRXQnViKP7Ak"
              ]
            }
        },
        {
            "value":0.00125000,
            "n":47,
            "scriptPubKey":{
              "asm":"OP_HASH160 c38623c26234fba28139f3d0e3b45b96eeab8474 OP_EQUAL",
              "hex":"a914c38623c26234fba28139f3d0e3b45b96eeab847487",
              "reqSigs":1,
              "type":"scripthash",
              "addresses":[
                  "3KWrP938NdJe2zEkfx3NsV2QsTaQmqJQkE"
              ]
            }
        },
        {
            "value":0.00125000,
            "n":48,
            "scriptPubKey":{
              "asm":"OP_HASH160 d096a70161ccf9a24dcccdedf6cd9e33dd3f4176 OP_EQUAL",
              "hex":"a914d096a70161ccf9a24dcccdedf6cd9e33dd3f417687",
              "reqSigs":1,
              "type":"scripthash",
              "addresses":[
                  "3LhvwxJWcbPceTHQdJYZthLEWQUYgHgykx"
              ]
            }
        },
        {
            "value":0.00125000,
            "n":49,
            "scriptPubKey":{
              "asm":"OP_HASH160 d3ee332ace168b1109163ef2cc360fa54ed33e7e OP_EQUAL",
              "hex":"a914d3ee332ace168b1109163ef2cc360fa54ed33e7e87",
              "reqSigs":1,
              "type":"scripthash",
              "addresses":[
                  "3M1brSK4cqbSksE9jMZh9suEJH4VaRZGra"
              ]
            }
        },
        {
            "value":0.00125000,
            "n":50,
            "scriptPubKey":{
              "asm":"OP_HASH160 d79d5edf2113c530d370960be0013e0a1fbed6b6 OP_EQUAL",
              "hex":"a914d79d5edf2113c530d370960be0013e0a1fbed6b687",
              "reqSigs":1,
              "type":"scripthash",
              "addresses":[
                  "3MM5j63NpuT5WXB7VpTRWtMAANWRDPN5VM"
              ]
            }
        },
        {
            "value":0.00125000,
            "n":51,
            "scriptPubKey":{
              "asm":"OP_HASH160 e6b8fe0d0cead35c106c86b94a0ef60d387c488f OP_EQUAL",
              "hex":"a914e6b8fe0d0cead35c106c86b94a0ef60d387c488f87",
              "reqSigs":1,
              "type":"scripthash",
              "addresses":[
                  "3NixxAJEGX6eYvikqe3fEvhSUbMXB9wjJT"
              ]
            }
        },
        {
            "value":0.00260447,
            "n":52,
            "scriptPubKey":{
              "asm":"OP_DUP OP_HASH160 8cb58b4a567e8a2a4847ffbd832901859281b06b OP_EQUALVERIFY OP_CHECKSIG",
              "hex":"76a9148cb58b4a567e8a2a4847ffbd832901859281b06b88ac",
              "reqSigs":1,
              "type":"pubkeyhash",
              "addresses":[
                  "1Dq15mBH4reUVoYqx8TWNy2oakR4zYrnL1"
              ]
            }
        }
      ],
      "hex":"0100000006ccfb94ba9b00f3e11e9da2ba63763b4cf9083d74126fee914a0dc05997c74905560000006a473044022062f76ce4cbb31ae834332900d87c50c816d72a14f59624cfe468c62e65e0ab0302204164ba095a7330dd4a1880d69d05061bcbe0f70e2447ccad148fb867950ec3d5012102231339a066c4acdff2b8f4b848660bfdeccca9100daac9bcd1a8bf585722119dffffffff47d93ffd3e1caf44e3ea562442c8c05aa928bbfbcafa7d5e939af91ee7711931590000006a4730440220470de0dce0bac9edcad70f24a805b701d3d024b02d874594452075de30fe905802203fe1095bb2757a188e210b1f15d9345341dca11ba9a1b320113fc82b389f7194012102231339a066c4acdff2b8f4b848660bfdeccca9100daac9bcd1a8bf585722119dffffffff8a6d93c14bdf1c137c0376b90936ee29608bb72b82b77f045350990fe15e2c4d020000006a473044022060ac10cace16d0e49fe9686b581bce951b4f2c8460ae9b3b9cad7fad80d83b080220668a9c0846d6f2b9fa2231a11e8586455a272c7acf09fc7d1241ecd555782d35012102231339a066c4acdff2b8f4b848660bfdeccca9100daac9bcd1a8bf585722119dffffffff0879dccc500e2656b0857819187870a502e044171df8acbe7eabc8fb9aadbc712c0000006a47304402207850cfe3744d07fd0821ddbeba99482131a04b17cd1977633d10b16c08284f2902200efc2e24e9d5d6ad32f15e391ceeb9a5a7f83b74795b11fd09e407a1ab6120bf012102231339a066c4acdff2b8f4b848660bfdeccca9100daac9bcd1a8bf585722119dffffffffc2ffd554e6c78da7ecb83c4269472b583d5d24977d8fa041eb25738bc9add2a7000000006b48304502210092ff82d084606db85bb2ffa29d15fd1f628f92f2a245fc3aa8ff3ff81cd5bfd602201530ca5f7abc024ab63fab6a828a4813a0cd404806e7deab78381232bb2d02520121031617c3f8b74c2bf39d864ef5d056758be88f7cd6e8696fe703a34d5743f09f9bffffffff459aac8757538f1590c733df667a61b4f87022eafec7da3b0773b92c80999db1000000006b483045022100a71c335e2f62bf23236d0aa94ecc1b38233ca17fbb29fa9d3aaf0da2cf2f5da202202143f86c151c19b3a536066f918c934355c7f7760d7c2a1b9bfb4db3f7ce75dd012102fb823a5c82d11b347eaf7a7fdb3687bd22349e83567e5012ec2565c119a7e27fffffffff3548e80100000000001976a9140b60a2ba638ed881564079bda30b81344a886b3188ac48e80100000000001976a9142469ffa9a5c430f15a3fe8cdd3dbf6c79db0e7df88ac48e80100000000001976a9142b1539f3c67c7925d6a2b40464c8b2fc2e861e1788ac48e80100000000001976a9142e19068f534fd35a67e0314aa0842b5d2c4cf38588ac48e80100000000001976a91434d05b20813c101472e683d414524d4fc8914dc788ac48e80100000000001976a9143d8564071b659876b2bb2d3ccad456aba9d9543288ac48e80100000000001976a91440c24379e443c5003a7e60ebdba93b373b52acd788ac48e80100000000001976a9145570d099685573e5deb6555cb51610d27fb10fba88ac48e80100000000001976a91458ff714296e3ba44dc5f10d295ca75fb5398e1f288ac48e80100000000001976a9145e30c98c84888912fd3aefef00da5681b56e41e488ac48e80100000000001976a914619adfd8225d30557f7b42755cab9bd1e244555d88ac48e80100000000001976a9146fff8b26ba90fc14c3ee24a479114aacfa3f913c88ac48e80100000000001976a914764bb99404aca6819c83597673b6f9accad8c09488ac48e80100000000001976a914779a9e771fc3f523ced5cdea18c6cab68c9aefad88ac48e80100000000001976a9147d9f988039aa6fd4c0cebeb253a44c67ec899d6c88ac48e80100000000001976a91486c1f7407773347bc2014ccc18aac8548df2cdec88ac48e80100000000001976a9148a10bdd47fd34bfaa1d21ec9777c5d30df0c4fcd88ac48e80100000000001976a9148cafef5a15afb59a9d6821d614dcae023894129888ac48e80100000000001976a9148e7c99427aff739a5b1190b823c6313c89949f0188ac48e80100000000001976a9148f6e230d9b1df2ea55b074d757309f839e92499988ac48e80100000000001976a9148fff0e7f96c6527030bcee767a106ab0318f9ac688ac48e80100000000001976a914949f084af4ddd8505125786d1a392a929d5c35d788ac48e80100000000001976a91497ed7dc93097622debbe997abfdbbb69aee0292b88ac48e80100000000001976a9149b083bc18e97295b6b6a9e8fc7a17c0272fb9be488ac48e80100000000001976a914adafa72e1bd05f5d4c9d2ad0e2f469343f015e0388ac48e80100000000001976a914ae16283efd5cf6bf92a882d78b811164fd65ca5088ac48e80100000000001976a914af53a722ff71ead0f469469b05158b1490b984ef88ac48e80100000000001976a914b21e577c81faf4e1381d92902965c95b2de8c92088ac48e80100000000001976a914c0af67b1144cc450f3013b4b4442742946a019b888ac48e80100000000001976a914c74f9b0fa166b9948c79b89db4de7bd8c50911fc88ac48e80100000000001976a914cd05c05064bc1817c1c2b0e99a6e0725ef7682bf88ac48e80100000000001976a914d1e574454ca563afd78fc4286863cce49e42680f88ac48e80100000000001976a914d3fef99d497a92c24bbfd0544f473382a952244a88ac48e80100000000001976a914e4bad8baf32b64a0c9fc6ecea46ff4228ddaeef788ac48e801000000000017a91401086197a0b49b6a8ec44340389c54832078ed058748e801000000000017a91404fea4d4d631d70356ffd24087c191396cc113118748e801000000000017a9142d83121321bf5da5524776a3018e20fc0099cae58748e801000000000017a91433990bb8292fd312a525309533e46b2de4a4cfbe8748e801000000000017a9143aa1658f29ab8f74a575b0d26d87a7d1f712cd218748e801000000000017a9143c1967df92355ea0e34bccf71913c0e2f60196808748e801000000000017a91449710ca4a6125f385bae6dc95c9891628f63c7458748e801000000000017a914600edb431e16d44205ce0b27ffe4d56737630fcf8748e801000000000017a914658e4399cfecfb15d2b4e464707e70a0994193e18748e801000000000017a91468e574fc83715f41da82d67badc8658c666268998748e801000000000017a9146efa0da6687d67ed6521ec1d7bdfe13790dc5bd08748e801000000000017a914937d46320502a4584146d5c9c531ff641fa484658748e801000000000017a914c00a5652509777e19d6a52d17d87498d35afa3938748e801000000000017a914c38623c26234fba28139f3d0e3b45b96eeab84748748e801000000000017a914d096a70161ccf9a24dcccdedf6cd9e33dd3f41768748e801000000000017a914d3ee332ace168b1109163ef2cc360fa54ed33e7e8748e801000000000017a914d79d5edf2113c530d370960be0013e0a1fbed6b68748e801000000000017a914e6b8fe0d0cead35c106c86b94a0ef60d387c488f875ff90300000000001976a9148cb58b4a567e8a2a4847ffbd832901859281b06b88ac00000000",
      "blockhash":"000000000000000000111f942bc84612b43e0583bb8b8579b7b3c6fd5fd3edcb",
      "confirmations":6550,
      "time":1587257197,
      "blocktime":1587257197
  },
  "error":null,
  "id":1
}
