{
  "result":{
      "txid":"64a04cad438b64e260bc0b832bde79913d618d3206e834de66bbcb1304629d61",
      "hash":"64a04cad438b64e260bc0b832bde79913d618d3206e834de66bbcb1304629d61",
      "version":1,
      "size":2679,
      "vsize":2679,
      "weight":10716,
      "locktime":0,
      "vin":[
        {
            "txid":"2c2a2511d4f857246a226eaa7ed2cb1d7339d954a923dce9ae27a43abdb2c558",
            "vout":0,
            "scriptSig":{
              "asm":"3045022100c660e34f5cad280377a6af5460f91aefb3ab49aec230916e9a04872632cdb2a9022008a9ced467eb9fbb8162ae989eabecd06fd5acff2262c77677dd8fd8c1c06700[ALL] 02990c5b9b33da02d83b64f321350b59dba1a0536fc09679db8e137ba7a5ef01d7",
              "hex":"483045022100c660e34f5cad280377a6af5460f91aefb3ab49aec230916e9a04872632cdb2a9022008a9ced467eb9fbb8162ae989eabecd06fd5acff2262c77677dd8fd8c1c06700012102990c5b9b33da02d83b64f321350b59dba1a0536fc09679db8e137ba7a5ef01d7"
            },
            "sequence":4294967295
        },
        {
            "txid":"52f9bb513d0ff0cb61adcde2b4ca198f70300b1085b5b89aa3788823c133d520",
            "vout":27,
            "scriptSig":{
              "asm":"3045022100813c5aa97311d17ae97fe5d550b04fbd2dea3f601b1eae6f80f749471597c2c102202b492ae3fe291bfe0084f5d1eec98e04ed3e5c3f3d72bfd79990f934c5a8b421[ALL] 03b5ee6a72586ceb66c7d9936b498bd918ce86b2b017f6fbf060d25106f8a7ab8e",
              "hex":"483045022100813c5aa97311d17ae97fe5d550b04fbd2dea3f601b1eae6f80f749471597c2c102202b492ae3fe291bfe0084f5d1eec98e04ed3e5c3f3d72bfd79990f934c5a8b421012103b5ee6a72586ceb66c7d9936b498bd918ce86b2b017f6fbf060d25106f8a7ab8e"
            },
            "sequence":4294967295
        },
        {
            "txid":"c88388c6b4fac48d4cc23c11273b3ce6d54814fb6741c1efbcb2c3ddb155db8b",
            "vout":0,
            "scriptSig":{
              "asm":"30440220705da42a97e127d82ef76d08ad46e3ad02099e5acf6e634e0782b0f8ac6dc2c702202d574232e3a68f761575b61f1c918639cbfb95f541ff2eab3786f433bf6fb0f5[ALL] 033eec9bee9d6f7192cf29d68c68b9d7e3669a37dba4dcfbdee1c926de9a6430e0",
              "hex":"4730440220705da42a97e127d82ef76d08ad46e3ad02099e5acf6e634e0782b0f8ac6dc2c702202d574232e3a68f761575b61f1c918639cbfb95f541ff2eab3786f433bf6fb0f50121033eec9bee9d6f7192cf29d68c68b9d7e3669a37dba4dcfbdee1c926de9a6430e0"
            },
            "sequence":4294967295
        }
      ],
      "vout":[
        {
            "value":0.00125000,
            "n":0,
            "scriptPubKey":{
              "asm":"OP_DUP OP_HASH160 0b60a2ba638ed881564079bda30b81344a886b31 OP_EQUALVERIFY OP_CHECKSIG",
              "hex":"76a9140b60a2ba638ed881564079bda30b81344a886b3188ac",
              "reqSigs":1,
              "type":"pubkeyhash",
              "addresses":[
                  "123ACUT4RwGGthSf52bhYTngXaw5yFzCmD"
              ]
            }
        },
        {
            "value":0.00125000,
            "n":1,
            "scriptPubKey":{
              "asm":"OP_DUP OP_HASH160 12ae85ef21bcc479f8e427e2a07ccaa2b5664cf0 OP_EQUALVERIFY OP_CHECKSIG",
              "hex":"76a91412ae85ef21bcc479f8e427e2a07ccaa2b5664cf088ac",
              "reqSigs":1,
              "type":"pubkeyhash",
              "addresses":[
                  "12hnEY6PrXxyp5BCadjyigKji4maHKQyKw"
              ]
            }
        },
        {
            "value":0.00125000,
            "n":2,
            "scriptPubKey":{
              "asm":"OP_DUP OP_HASH160 2469ffa9a5c430f15a3fe8cdd3dbf6c79db0e7df OP_EQUALVERIFY OP_CHECKSIG",
              "hex":"76a9142469ffa9a5c430f15a3fe8cdd3dbf6c79db0e7df88ac",
              "reqSigs":1,
              "type":"pubkeyhash",
              "addresses":[
                  "14KYJpm8ETVvYuJ2ZcnSasMVs6UbZez5Hs"
              ]
            }
        },
        {
            "value":0.00125000,
            "n":3,
            "scriptPubKey":{
              "asm":"OP_DUP OP_HASH160 2aaaf0d089dff4dba28894a929b4f067574ca7cd OP_EQUALVERIFY OP_CHECKSIG",
              "hex":"76a9142aaaf0d089dff4dba28894a929b4f067574ca7cd88ac",
              "reqSigs":1,
              "type":"pubkeyhash",
              "addresses":[
                  "14tcADyV11oFrfhBJ3DgCjuhVr19HNF7oY"
              ]
            }
        },
        {
            "value":0.00125000,
            "n":4,
            "scriptPubKey":{
              "asm":"OP_DUP OP_HASH160 2b1539f3c67c7925d6a2b40464c8b2fc2e861e17 OP_EQUALVERIFY OP_CHECKSIG",
              "hex":"76a9142b1539f3c67c7925d6a2b40464c8b2fc2e861e1788ac",
              "reqSigs":1,
              "type":"pubkeyhash",
              "addresses":[
                  "14voV5pmeC2yCHvaBTWxdA9trCbbauABni"
              ]
            }
        },
        {
            "value":0.00125000,
            "n":5,
            "scriptPubKey":{
              "asm":"OP_DUP OP_HASH160 2e19068f534fd35a67e0314aa0842b5d2c4cf385 OP_EQUALVERIFY OP_CHECKSIG",
              "hex":"76a9142e19068f534fd35a67e0314aa0842b5d2c4cf38588ac",
              "reqSigs":1,
              "type":"pubkeyhash",
              "addresses":[
                  "15Ck4dqNz8t4FAqxwjuXCDkHdjGnSMJPyg"
              ]
            }
        },
        {
            "value":0.00125000,
            "n":6,
            "scriptPubKey":{
              "asm":"OP_DUP OP_HASH160 34d05b20813c101472e683d414524d4fc8914dc7 OP_EQUALVERIFY OP_CHECKSIG",
              "hex":"76a91434d05b20813c101472e683d414524d4fc8914dc788ac",
              "reqSigs":1,
              "type":"pubkeyhash",
              "addresses":[
                  "15pFjoUwCGmiLcGM4P1DERFxBFRpUhak5u"
              ]
            }
        },
        {
            "value":0.00125000,
            "n":7,
            "scriptPubKey":{
              "asm":"OP_DUP OP_HASH160 3d8564071b659876b2bb2d3ccad456aba9d95432 OP_EQUALVERIFY OP_CHECKSIG",
              "hex":"76a9143d8564071b659876b2bb2d3ccad456aba9d9543288ac",
              "reqSigs":1,
              "type":"pubkeyhash",
              "addresses":[
                  "16cJ1rS8MeuUoGGQ7HE1zdc6auV5SjHET2"
              ]
            }
        },
        {
            "value":0.00125000,
            "n":8,
            "scriptPubKey":{
              "asm":"OP_DUP OP_HASH160 40c24379e443c5003a7e60ebdba93b373b52acd7 OP_EQUALVERIFY OP_CHECKSIG",
              "hex":"76a91440c24379e443c5003a7e60ebdba93b373b52acd788ac",
              "reqSigs":1,
              "type":"pubkeyhash",
              "addresses":[
                  "16uQxwwTYTsuzk4vX7Crqi5EoAgZiZ1apZ"
              ]
            }
        },
        {
            "value":0.00125000,
            "n":9,
            "scriptPubKey":{
              "asm":"OP_DUP OP_HASH160 4104bf130fed3ef4086060517aee6bb9c12efb86 OP_EQUALVERIFY OP_CHECKSIG",
              "hex":"76a9144104bf130fed3ef4086060517aee6bb9c12efb8688ac",
              "reqSigs":1,
              "type":"pubkeyhash",
              "addresses":[
                  "16vncFhyyZCBv5J7k5yzpSbJHfVbjNQu8f"
              ]
            }
        },
        {
            "value":0.00125000,
            "n":10,
            "scriptPubKey":{
              "asm":"OP_DUP OP_HASH160 5570d099685573e5deb6555cb51610d27fb10fba OP_EQUALVERIFY OP_CHECKSIG",
              "hex":"76a9145570d099685573e5deb6555cb51610d27fb10fba88ac",
              "reqSigs":1,
              "type":"pubkeyhash",
              "addresses":[
                  "18nmapTEfSrEfZAKtsBhArZD74suQyF4U5"
              ]
            }
        },
        {
            "value":0.00125000,
            "n":11,
            "scriptPubKey":{
              "asm":"OP_DUP OP_HASH160 58ff714296e3ba44dc5f10d295ca75fb5398e1f2 OP_EQUALVERIFY OP_CHECKSIG",
              "hex":"76a91458ff714296e3ba44dc5f10d295ca75fb5398e1f288ac",
              "reqSigs":1,
              "type":"pubkeyhash",
              "addresses":[
                  "197aULEwk6hRunVNMeqP7mgBvmvt8DUgB4"
              ]
            }
        },
        {
            "value":0.00125000,
            "n":12,
            "scriptPubKey":{
              "asm":"OP_DUP OP_HASH160 5e30c98c84888912fd3aefef00da5681b56e41e4 OP_EQUALVERIFY OP_CHECKSIG",
              "hex":"76a9145e30c98c84888912fd3aefef00da5681b56e41e488ac",
              "reqSigs":1,
              "type":"pubkeyhash",
              "addresses":[
                  "19b2xqKc8rJfNXTrn4zRTQWh12zsSArPhe"
              ]
            }
        },
        {
            "value":0.00125000,
            "n":13,
            "scriptPubKey":{
              "asm":"OP_DUP OP_HASH160 619adfd8225d30557f7b42755cab9bd1e244555d OP_EQUALVERIFY OP_CHECKSIG",
              "hex":"76a914619adfd8225d30557f7b42755cab9bd1e244555d88ac",
              "reqSigs":1,
              "type":"pubkeyhash",
              "addresses":[
                  "19u65UCW7Uqqqa4YucnSu3sDTLrHhNsKAW"
              ]
            }
        },
        {
            "value":0.00125000,
            "n":14,
            "scriptPubKey":{
              "asm":"OP_DUP OP_HASH160 6fff8b26ba90fc14c3ee24a479114aacfa3f913c OP_EQUALVERIFY OP_CHECKSIG",
              "hex":"76a9146fff8b26ba90fc14c3ee24a479114aacfa3f913c88ac",
              "reqSigs":1,
              "type":"pubkeyhash",
              "addresses":[
                  "1BDC8miaJkLdKrtFwFPxa2BtWkFo4YkH7A"
              ]
            }
        },
        {
            "value":0.00125000,
            "n":15,
            "scriptPubKey":{
              "asm":"OP_DUP OP_HASH160 764bb99404aca6819c83597673b6f9accad8c094 OP_EQUALVERIFY OP_CHECKSIG",
              "hex":"76a914764bb99404aca6819c83597673b6f9accad8c09488ac",
              "reqSigs":1,
              "type":"pubkeyhash",
              "addresses":[
                  "1BnVT6XdQYm7ynq7pMEGu6Qp7SMG6zQA7s"
              ]
            }
        },
        {
            "value":0.00125000,
            "n":16,
            "scriptPubKey":{
              "asm":"OP_DUP OP_HASH160 779a9e771fc3f523ced5cdea18c6cab68c9aefad OP_EQUALVERIFY OP_CHECKSIG",
              "hex":"76a914779a9e771fc3f523ced5cdea18c6cab68c9aefad88ac",
              "reqSigs":1,
              "type":"pubkeyhash",
              "addresses":[
                  "1BuQdwnmbWm95GQdKZ68j4rS3ei416NNbB"
              ]
            }
        },
        {
            "value":0.00125000,
            "n":17,
            "scriptPubKey":{
              "asm":"OP_DUP OP_HASH160 7d9f988039aa6fd4c0cebeb253a44c67ec899d6c OP_EQUALVERIFY OP_CHECKSIG",
              "hex":"76a9147d9f988039aa6fd4c0cebeb253a44c67ec899d6c88ac",
              "reqSigs":1,
              "type":"pubkeyhash",
              "addresses":[
                  "1CTEetD4bNd4Mc1Pse7d39L7J7qPR257kR"
              ]
            }
        },
        {
            "value":0.00125000,
            "n":18,
            "scriptPubKey":{
              "asm":"OP_DUP OP_HASH160 86c1f7407773347bc2014ccc18aac8548df2cdec OP_EQUALVERIFY OP_CHECKSIG",
              "hex":"76a91486c1f7407773347bc2014ccc18aac8548df2cdec88ac",
              "reqSigs":1,
              "type":"pubkeyhash",
              "addresses":[
                  "1DHXugrrXBGgfNP3mZZKZoPqmUax3z4scw"
              ]
            }
        },
        {
            "value":0.00125000,
            "n":19,
            "scriptPubKey":{
              "asm":"OP_DUP OP_HASH160 8a10bdd47fd34bfaa1d21ec9777c5d30df0c4fcd OP_EQUALVERIFY OP_CHECKSIG",
              "hex":"76a9148a10bdd47fd34bfaa1d21ec9777c5d30df0c4fcd88ac",
              "reqSigs":1,
              "type":"pubkeyhash",
              "addresses":[
                  "1Db2JhFpLDN8FscBgPNMUpcoAWYVkoiHqw"
              ]
            }
        },
        {
            "value":0.00125000,
            "n":20,
            "scriptPubKey":{
              "asm":"OP_DUP OP_HASH160 8cafef5a15afb59a9d6821d614dcae0238941298 OP_EQUALVERIFY OP_CHECKSIG",
              "hex":"76a9148cafef5a15afb59a9d6821d614dcae023894129888ac",
              "reqSigs":1,
              "type":"pubkeyhash",
              "addresses":[
                  "1DptN2sCLqixdtGae9abomRP84XdCPkToQ"
              ]
            }
        },
        {
            "value":0.00125000,
            "n":21,
            "scriptPubKey":{
              "asm":"OP_DUP OP_HASH160 8e7c99427aff739a5b1190b823c6313c89949f01 OP_EQUALVERIFY OP_CHECKSIG",
              "hex":"76a9148e7c99427aff739a5b1190b823c6313c89949f0188ac",
              "reqSigs":1,
              "type":"pubkeyhash",
              "addresses":[
                  "1DzQDWRf2CXXn6EQiaHCUkzciezFv4m6sn"
              ]
            }
        },
        {
            "value":0.00125000,
            "n":22,
            "scriptPubKey":{
              "asm":"OP_DUP OP_HASH160 8f6e230d9b1df2ea55b074d757309f839e924999 OP_EQUALVERIFY OP_CHECKSIG",
              "hex":"76a9148f6e230d9b1df2ea55b074d757309f839e92499988ac",
              "reqSigs":1,
              "type":"pubkeyhash",
              "addresses":[
                  "1E5PZt1ok99P1UdmdVpj1KBqY8ea1TN2vJ"
              ]
            }
        },
        {
            "value":0.00125000,
            "n":23,
            "scriptPubKey":{
              "asm":"OP_DUP OP_HASH160 8fff0e7f96c6527030bcee767a106ab0318f9ac6 OP_EQUALVERIFY OP_CHECKSIG",
              "hex":"76a9148fff0e7f96c6527030bcee767a106ab0318f9ac688ac",
              "reqSigs":1,
              "type":"pubkeyhash",
              "addresses":[
                  "1E8PB5VKyNYALeSWF2TZ1vaCjimyp87F5z"
              ]
            }
        },
        {
            "value":0.00125000,
            "n":24,
            "scriptPubKey":{
              "asm":"OP_DUP OP_HASH160 949f084af4ddd8505125786d1a392a929d5c35d7 OP_EQUALVERIFY OP_CHECKSIG",
              "hex":"76a914949f084af4ddd8505125786d1a392a929d5c35d788ac",
              "reqSigs":1,
              "type":"pubkeyhash",
              "addresses":[
                  "1EYqXA1Yi8pYsfcLAEWDmi72ZqCh17yJhc"
              ]
            }
        },
        {
            "value":0.00125000,
            "n":25,
            "scriptPubKey":{
              "asm":"OP_DUP OP_HASH160 97ed7dc93097622debbe997abfdbbb69aee0292b OP_EQUALVERIFY OP_CHECKSIG",
              "hex":"76a91497ed7dc93097622debbe997abfdbbb69aee0292b88ac",
              "reqSigs":1,
              "type":"pubkeyhash",
              "addresses":[
                  "1ErKY9yc2nmMgJq3HKJDM79pV4NgtnW2AP"
              ]
            }
        },
        {
            "value":0.00125000,
            "n":26,
            "scriptPubKey":{
              "asm":"OP_DUP OP_HASH160 9b083bc18e97295b6b6a9e8fc7a17c0272fb9be4 OP_EQUALVERIFY OP_CHECKSIG",
              "hex":"76a9149b083bc18e97295b6b6a9e8fc7a17c0272fb9be488ac",
              "reqSigs":1,
              "type":"pubkeyhash",
              "addresses":[
                  "1F8jboWesASAJ5KB8SZcrZVuHCgJWEHyv1"
              ]
            }
        },
        {
            "value":0.00125000,
            "n":27,
            "scriptPubKey":{
              "asm":"OP_DUP OP_HASH160 adafa72e1bd05f5d4c9d2ad0e2f469343f015e03 OP_EQUALVERIFY OP_CHECKSIG",
              "hex":"76a914adafa72e1bd05f5d4c9d2ad0e2f469343f015e0388ac",
              "reqSigs":1,
              "type":"pubkeyhash",
              "addresses":[
                  "1GqNKmuv6ukQFgecYTyinhDhsQehwTuxvW"
              ]
            }
        },
        {
            "value":0.00125000,
            "n":28,
            "scriptPubKey":{
              "asm":"OP_DUP OP_HASH160 ae16283efd5cf6bf92a882d78b811164fd65ca50 OP_EQUALVERIFY OP_CHECKSIG",
              "hex":"76a914ae16283efd5cf6bf92a882d78b811164fd65ca5088ac",
              "reqSigs":1,
              "type":"pubkeyhash",
              "addresses":[
                  "1GsV7tXxXhfdp7kEFoFkgQLUWyv2xgPjnQ"
              ]
            }
        },
        {
            "value":0.00125000,
            "n":29,
            "scriptPubKey":{
              "asm":"OP_DUP OP_HASH160 af53a722ff71ead0f469469b05158b1490b984ef OP_EQUALVERIFY OP_CHECKSIG",
              "hex":"76a914af53a722ff71ead0f469469b05158b1490b984ef88ac",
              "reqSigs":1,
              "type":"pubkeyhash",
              "addresses":[
                  "1Gz3Tshhckx3BhZTg8s2up6sCaw4htmWzd"
              ]
            }
        },
        {
            "value":0.00125000,
            "n":30,
            "scriptPubKey":{
              "asm":"OP_DUP OP_HASH160 b21e577c81faf4e1381d92902965c95b2de8c920 OP_EQUALVERIFY OP_CHECKSIG",
              "hex":"76a914b21e577c81faf4e1381d92902965c95b2de8c92088ac",
              "reqSigs":1,
              "type":"pubkeyhash",
              "addresses":[
                  "1HEodKyRezNkXvHwQtfkTSCP2oFzkxGpy4"
              ]
            }
        },
        {
            "value":0.00125000,
            "n":31,
            "scriptPubKey":{
              "asm":"OP_DUP OP_HASH160 b8ffcc57d80133b462154a8445780788e7430ac2 OP_EQUALVERIFY OP_CHECKSIG",
              "hex":"76a914b8ffcc57d80133b462154a8445780788e7430ac288ac",
              "reqSigs":1,
              "type":"pubkeyhash",
              "addresses":[
                  "1HsBmUAewp2PBFB3dstYYYUvLNMthPLFqn"
              ]
            }
        },
        {
            "value":0.00125000,
            "n":32,
            "scriptPubKey":{
              "asm":"OP_DUP OP_HASH160 c0af67b1144cc450f3013b4b4442742946a019b8 OP_EQUALVERIFY OP_CHECKSIG",
              "hex":"76a914c0af67b1144cc450f3013b4b4442742946a019b888ac",
              "reqSigs":1,
              "type":"pubkeyhash",
              "addresses":[
                  "1JZpsBtMSUv5iScpbyJMYb7uzpcNJNQzzG"
              ]
            }
        },
        {
            "value":0.00125000,
            "n":33,
            "scriptPubKey":{
              "asm":"OP_DUP OP_HASH160 c74f9b0fa166b9948c79b89db4de7bd8c50911fc OP_EQUALVERIFY OP_CHECKSIG",
              "hex":"76a914c74f9b0fa166b9948c79b89db4de7bd8c50911fc88ac",
              "reqSigs":1,
              "type":"pubkeyhash",
              "addresses":[
                  "1KArqGzf79Gr9PvDz6XakgoBNDrB1C4DDQ"
              ]
            }
        },
        {
            "value":0.00125000,
            "n":34,
            "scriptPubKey":{
              "asm":"OP_DUP OP_HASH160 cd05c05064bc1817c1c2b0e99a6e0725ef7682bf OP_EQUALVERIFY OP_CHECKSIG",
              "hex":"76a914cd05c05064bc1817c1c2b0e99a6e0725ef7682bf88ac",
              "reqSigs":1,
              "type":"pubkeyhash",
              "addresses":[
                  "1Kh4Qvo29DYSEytc16nAeRVZMqZuWCC3gM"
              ]
            }
        },
        {
            "value":0.00125000,
            "n":35,
            "scriptPubKey":{
              "asm":"OP_DUP OP_HASH160 d1e574454ca563afd78fc4286863cce49e42680f OP_EQUALVERIFY OP_CHECKSIG",
              "hex":"76a914d1e574454ca563afd78fc4286863cce49e42680f88ac",
              "reqSigs":1,
              "type":"pubkeyhash",
              "addresses":[
                  "1L8q6rDrPHectt9fU2vtXiW83PrQDZZFxc"
              ]
            }
        },
        {
            "value":0.00125000,
            "n":36,
            "scriptPubKey":{
              "asm":"OP_DUP OP_HASH160 d3fef99d497a92c24bbfd0544f473382a952244a OP_EQUALVERIFY OP_CHECKSIG",
              "hex":"76a914d3fef99d497a92c24bbfd0544f473382a952244a88ac",
              "reqSigs":1,
              "type":"pubkeyhash",
              "addresses":[
                  "1LKw2TKH9gDD7yZmbLQspjjXTnQv6pp4oS"
              ]
            }
        },
        {
            "value":0.00125000,
            "n":37,
            "scriptPubKey":{
              "asm":"OP_DUP OP_HASH160 e4bad8baf32b64a0c9fc6ecea46ff4228ddaeef7 OP_EQUALVERIFY OP_CHECKSIG",
              "hex":"76a914e4bad8baf32b64a0c9fc6ecea46ff4228ddaeef788ac",
              "reqSigs":1,
              "type":"pubkeyhash",
              "addresses":[
                  "1MrQu4szTChSLfUeyLJdfkSdU2fFY7ksFG"
              ]
            }
        },
        {
            "value":0.00125000,
            "n":38,
            "scriptPubKey":{
              "asm":"OP_DUP OP_HASH160 ef2576ed71826f3723827c9380e0b80416b6fce3 OP_EQUALVERIFY OP_CHECKSIG",
              "hex":"76a914ef2576ed71826f3723827c9380e0b80416b6fce388ac",
              "reqSigs":1,
              "type":"pubkeyhash",
              "addresses":[
                  "1NoVNvz8Xh8j3soWEumDuVXirWSfLKtKiP"
              ]
            }
        },
        {
            "value":0.00125000,
            "n":39,
            "scriptPubKey":{
              "asm":"OP_DUP OP_HASH160 f160e7b039b7ab58b62ba4dc0be9cc728a94f63a OP_EQUALVERIFY OP_CHECKSIG",
              "hex":"76a914f160e7b039b7ab58b62ba4dc0be9cc728a94f63a88ac",
              "reqSigs":1,
              "type":"pubkeyhash",
              "addresses":[
                  "1P1HwK2gVoFGUQ3ZBnW1xF3dqXpqg3Wesb"
              ]
            }
        },
        {
            "value":0.00125000,
            "n":40,
            "scriptPubKey":{
              "asm":"OP_HASH160 01086197a0b49b6a8ec44340389c54832078ed05 OP_EQUAL",
              "hex":"a91401086197a0b49b6a8ec44340389c54832078ed0587",
              "reqSigs":1,
              "type":"scripthash",
              "addresses":[
                  "31nUe5BfY7XV4g2q2qFfsavHb3RF3Vg9D3"
              ]
            }
        },
        {
            "value":0.00125000,
            "n":41,
            "scriptPubKey":{
              "asm":"OP_HASH160 04de414d78d6f074155a33844f1302e605cffed7 OP_EQUAL",
              "hex":"a91404de414d78d6f074155a33844f1302e605cffed787",
              "reqSigs":1,
              "type":"scripthash",
              "addresses":[
                  "328kss9GKBQyMSrWaQ1y6sqksQyEq2u198"
              ]
            }
        },
        {
            "value":0.00125000,
            "n":42,
            "scriptPubKey":{
              "asm":"OP_HASH160 04fea4d4d631d70356ffd24087c191396cc11311 OP_EQUAL",
              "hex":"a91404fea4d4d631d70356ffd24087c191396cc1131187",
              "reqSigs":1,
              "type":"scripthash",
              "addresses":[
                  "329RgH3qzbr4NfjxRRTfJ6PY6sFVoweig2"
              ]
            }
        },
        {
            "value":0.00125000,
            "n":43,
            "scriptPubKey":{
              "asm":"OP_HASH160 0febfd00e7e74b77edb197e1f1d91e17837c7c10 OP_EQUAL",
              "hex":"a9140febfd00e7e74b77edb197e1f1d91e17837c7c1087",
              "reqSigs":1,
              "type":"scripthash",
              "addresses":[
                  "339CmB8KW8NrB66mRFA2BejrLStfBnRUqo"
              ]
            }
        },
        {
            "value":0.00125000,
            "n":44,
            "scriptPubKey":{
              "asm":"OP_HASH160 2d83121321bf5da5524776a3018e20fc0099cae5 OP_EQUAL",
              "hex":"a9142d83121321bf5da5524776a3018e20fc0099cae587",
              "reqSigs":1,
              "type":"scripthash",
              "addresses":[
                  "35qfM7zZ9tzcjYDmRDRYYFoayBvgcepdRE"
              ]
            }
        },
        {
            "value":0.00125000,
            "n":45,
            "scriptPubKey":{
              "asm":"OP_HASH160 33990bb8292fd312a525309533e46b2de4a4cfbe OP_EQUAL",
              "hex":"a91433990bb8292fd312a525309533e46b2de4a4cfbe87",
              "reqSigs":1,
              "type":"scripthash",
              "addresses":[
                  "36Pqj8jqg5Mus5Z9eUqtxXQuxEwjFPTe8D"
              ]
            }
        },
        {
            "value":0.00125000,
            "n":46,
            "scriptPubKey":{
              "asm":"OP_HASH160 3aa1658f29ab8f74a575b0d26d87a7d1f712cd21 OP_EQUAL",
              "hex":"a9143aa1658f29ab8f74a575b0d26d87a7d1f712cd2187",
              "reqSigs":1,
              "type":"scripthash",
              "addresses":[
                  "3732Ti9nE3A7sR8bLxVCett6PZJJ2Cmn1k"
              ]
            }
        },
        {
            "value":0.00125000,
            "n":47,
            "scriptPubKey":{
              "asm":"OP_HASH160 3c1967df92355ea0e34bccf71913c0e2f6019680 OP_EQUAL",
              "hex":"a9143c1967df92355ea0e34bccf71913c0e2f601968087",
              "reqSigs":1,
              "type":"scripthash",
              "addresses":[
                  "37AnuGz3dXjoULWjiJgbhG7bCHgc5AzDmm"
              ]
            }
        },
        {
            "value":0.00125000,
            "n":48,
            "scriptPubKey":{
              "asm":"OP_HASH160 49710ca4a6125f385bae6dc95c9891628f63c745 OP_EQUAL",
              "hex":"a91449710ca4a6125f385bae6dc95c9891628f63c74587",
              "reqSigs":1,
              "type":"scripthash",
              "addresses":[
                  "38PLgMdZD62jBuCSJu9AqpmoKegRcEtJMt"
              ]
            }
        },
        {
            "value":0.00125000,
            "n":49,
            "scriptPubKey":{
              "asm":"OP_HASH160 52d7afbb52d1c55c7424b8e522540052ce348832 OP_EQUAL",
              "hex":"a91452d7afbb52d1c55c7424b8e522540052ce34883287",
              "reqSigs":1,
              "type":"scripthash",
              "addresses":[
                  "39F3iRy2PJTuoG1hV89YEyy2wZdq22TQtN"
              ]
            }
        },
        {
            "value":0.00125000,
            "n":50,
            "scriptPubKey":{
              "asm":"OP_HASH160 5e4e471791a611d1d45a9dde0650c89ddc5b762f OP_EQUAL",
              "hex":"a9145e4e471791a611d1d45a9dde0650c89ddc5b762f87",
              "reqSigs":1,
              "type":"scripthash",
              "addresses":[
                  "3AHfDQW1rD98mHpWmjYLvm5zapbMmrh29c"
              ]
            }
        },
        {
            "value":0.00125000,
            "n":51,
            "scriptPubKey":{
              "asm":"OP_HASH160 600edb431e16d44205ce0b27ffe4d56737630fcf OP_EQUAL",
              "hex":"a914600edb431e16d44205ce0b27ffe4d56737630fcf87",
              "reqSigs":1,
              "type":"scripthash",
              "addresses":[
                  "3ASvbCwaYKFt4Z1JM3efpnFu43RCJnKWLc"
              ]
            }
        },
        {
            "value":0.00125000,
            "n":52,
            "scriptPubKey":{
              "asm":"OP_HASH160 658e4399cfecfb15d2b4e464707e70a0994193e1 OP_EQUAL",
              "hex":"a914658e4399cfecfb15d2b4e464707e70a0994193e187",
              "reqSigs":1,
              "type":"scripthash",
              "addresses":[
                  "3AwzbbhyW6aFsKkFtvge88DuFEzr27uFvg"
              ]
            }
        },
        {
            "value":0.00125000,
            "n":53,
            "scriptPubKey":{
              "asm":"OP_HASH160 68e574fc83715f41da82d67badc8658c66626899 OP_EQUAL",
              "hex":"a91468e574fc83715f41da82d67badc8658c6662689987",
              "reqSigs":1,
              "type":"scripthash",
              "addresses":[
                  "3BFf5SjPPJSPEvVbX2TN8RJWua22mHBR48"
              ]
            }
        },
        {
            "value":0.00125000,
            "n":54,
            "scriptPubKey":{
              "asm":"OP_HASH160 6b317347ece83508ec88dd19f2de581db8c8491f OP_EQUAL",
              "hex":"a9146b317347ece83508ec88dd19f2de581db8c8491f87",
              "reqSigs":1,
              "type":"scripthash",
              "addresses":[
                  "3BToTwM4rXYkEg8RhQyuqH5FjZEjdq7CZi"
              ]
            }
        },
        {
            "value":0.00125000,
            "n":55,
            "scriptPubKey":{
              "asm":"OP_HASH160 6efa0da6687d67ed6521ec1d7bdfe13790dc5bd0 OP_EQUAL",
              "hex":"a9146efa0da6687d67ed6521ec1d7bdfe13790dc5bd087",
              "reqSigs":1,
              "type":"scripthash",
              "addresses":[
                  "3Boooeud9jdSM3ZSUbpxHCXJLhy59hrBeT"
              ]
            }
        },
        {
            "value":0.00125000,
            "n":56,
            "scriptPubKey":{
              "asm":"OP_HASH160 74dd1224e6d3506bd0486e8ec98b09feebf0ebcc OP_EQUAL",
              "hex":"a91474dd1224e6d3506bd0486e8ec98b09feebf0ebcc87",
              "reqSigs":1,
              "type":"scripthash",
              "addresses":[
                  "3CLw9514gzYPkVnzry2aM5NirHjUybQfHm"
              ]
            }
        },
        {
            "value":0.00125000,
            "n":57,
            "scriptPubKey":{
              "asm":"OP_HASH160 937d46320502a4584146d5c9c531ff641fa48465 OP_EQUAL",
              "hex":"a914937d46320502a4584146d5c9c531ff641fa4846587",
              "reqSigs":1,
              "type":"scripthash",
              "addresses":[
                  "3F8sKwsapFvHapn8mcn4auh2HGmBhnrXsN"
              ]
            }
        },
        {
            "value":0.00125000,
            "n":58,
            "scriptPubKey":{
              "asm":"OP_HASH160 939f13de238509d785b6af885fc063a0a95ee970 OP_EQUAL",
              "hex":"a914939f13de238509d785b6af885fc063a0a95ee97087",
              "reqSigs":1,
              "type":"scripthash",
              "addresses":[
                  "3F9ZpeatbeYEG97x4pDcmffwcrADWPQRwy"
              ]
            }
        },
        {
            "value":0.00125000,
            "n":59,
            "scriptPubKey":{
              "asm":"OP_HASH160 c00a5652509777e19d6a52d17d87498d35afa393 OP_EQUAL",
              "hex":"a914c00a5652509777e19d6a52d17d87498d35afa39387",
              "reqSigs":1,
              "type":"scripthash",
              "addresses":[
                  "3KCS3cgT6kVYVd8ifdKCxpsRXQnViKP7Ak"
              ]
            }
        },
        {
            "value":0.00125000,
            "n":60,
            "scriptPubKey":{
              "asm":"OP_HASH160 c38623c26234fba28139f3d0e3b45b96eeab8474 OP_EQUAL",
              "hex":"a914c38623c26234fba28139f3d0e3b45b96eeab847487",
              "reqSigs":1,
              "type":"scripthash",
              "addresses":[
                  "3KWrP938NdJe2zEkfx3NsV2QsTaQmqJQkE"
              ]
            }
        },
        {
            "value":0.00125000,
            "n":61,
            "scriptPubKey":{
              "asm":"OP_HASH160 ca03fac9a4c3f32a6462dcb86fd4cdb740318f4b OP_EQUAL",
              "hex":"a914ca03fac9a4c3f32a6462dcb86fd4cdb740318f4b87",
              "reqSigs":1,
              "type":"scripthash",
              "addresses":[
                  "3L7BBoZrh4MA6nuMAKnKXMqPJx7faURA7G"
              ]
            }
        },
        {
            "value":0.00125000,
            "n":62,
            "scriptPubKey":{
              "asm":"OP_HASH160 d096a70161ccf9a24dcccdedf6cd9e33dd3f4176 OP_EQUAL",
              "hex":"a914d096a70161ccf9a24dcccdedf6cd9e33dd3f417687",
              "reqSigs":1,
              "type":"scripthash",
              "addresses":[
                  "3LhvwxJWcbPceTHQdJYZthLEWQUYgHgykx"
              ]
            }
        },
        {
            "value":0.00125000,
            "n":63,
            "scriptPubKey":{
              "asm":"OP_HASH160 d3ee332ace168b1109163ef2cc360fa54ed33e7e OP_EQUAL",
              "hex":"a914d3ee332ace168b1109163ef2cc360fa54ed33e7e87",
              "reqSigs":1,
              "type":"scripthash",
              "addresses":[
                  "3M1brSK4cqbSksE9jMZh9suEJH4VaRZGra"
              ]
            }
        },
        {
            "value":0.00125000,
            "n":64,
            "scriptPubKey":{
              "asm":"OP_HASH160 d79d5edf2113c530d370960be0013e0a1fbed6b6 OP_EQUAL",
              "hex":"a914d79d5edf2113c530d370960be0013e0a1fbed6b687",
              "reqSigs":1,
              "type":"scripthash",
              "addresses":[
                  "3MM5j63NpuT5WXB7VpTRWtMAANWRDPN5VM"
              ]
            }
        },
        {
            "value":0.00125000,
            "n":65,
            "scriptPubKey":{
              "asm":"OP_HASH160 e6b8fe0d0cead35c106c86b94a0ef60d387c488f OP_EQUAL",
              "hex":"a914e6b8fe0d0cead35c106c86b94a0ef60d387c488f87",
              "reqSigs":1,
              "type":"scripthash",
              "addresses":[
                  "3NixxAJEGX6eYvikqe3fEvhSUbMXB9wjJT"
              ]
            }
        },
        {
            "value":0.03559983,
            "n":66,
            "scriptPubKey":{
              "asm":"OP_DUP OP_HASH160 6935899a703b5156eb250fd0264264969ffd9600 OP_EQUALVERIFY OP_CHECKSIG",
              "hex":"76a9146935899a703b5156eb250fd0264264969ffd960088ac",
              "reqSigs":1,
              "type":"pubkeyhash",
              "addresses":[
                  "1AbJ5ze8ask4Ea2tz1wyhMqyjnxUXzWXUo"
              ]
            }
        }
      ],
      "hex":"010000000358c5b2bd3aa427aee9dc23a954d939731dcbd27eaa6e226a2457f8d411252a2c000000006b483045022100c660e34f5cad280377a6af5460f91aefb3ab49aec230916e9a04872632cdb2a9022008a9ced467eb9fbb8162ae989eabecd06fd5acff2262c77677dd8fd8c1c06700012102990c5b9b33da02d83b64f321350b59dba1a0536fc09679db8e137ba7a5ef01d7ffffffff20d533c1238878a39ab8b585100b30708f19cab4e2cdad61cbf00f3d51bbf9521b0000006b483045022100813c5aa97311d17ae97fe5d550b04fbd2dea3f601b1eae6f80f749471597c2c102202b492ae3fe291bfe0084f5d1eec98e04ed3e5c3f3d72bfd79990f934c5a8b421012103b5ee6a72586ceb66c7d9936b498bd918ce86b2b017f6fbf060d25106f8a7ab8effffffff8bdb55b1ddc3b2bcefc14167fb1448d5e63c3b27113cc24c8dc4fab4c68883c8000000006a4730440220705da42a97e127d82ef76d08ad46e3ad02099e5acf6e634e0782b0f8ac6dc2c702202d574232e3a68f761575b61f1c918639cbfb95f541ff2eab3786f433bf6fb0f50121033eec9bee9d6f7192cf29d68c68b9d7e3669a37dba4dcfbdee1c926de9a6430e0ffffffff4348e80100000000001976a9140b60a2ba638ed881564079bda30b81344a886b3188ac48e80100000000001976a91412ae85ef21bcc479f8e427e2a07ccaa2b5664cf088ac48e80100000000001976a9142469ffa9a5c430f15a3fe8cdd3dbf6c79db0e7df88ac48e80100000000001976a9142aaaf0d089dff4dba28894a929b4f067574ca7cd88ac48e80100000000001976a9142b1539f3c67c7925d6a2b40464c8b2fc2e861e1788ac48e80100000000001976a9142e19068f534fd35a67e0314aa0842b5d2c4cf38588ac48e80100000000001976a91434d05b20813c101472e683d414524d4fc8914dc788ac48e80100000000001976a9143d8564071b659876b2bb2d3ccad456aba9d9543288ac48e80100000000001976a91440c24379e443c5003a7e60ebdba93b373b52acd788ac48e80100000000001976a9144104bf130fed3ef4086060517aee6bb9c12efb8688ac48e80100000000001976a9145570d099685573e5deb6555cb51610d27fb10fba88ac48e80100000000001976a91458ff714296e3ba44dc5f10d295ca75fb5398e1f288ac48e80100000000001976a9145e30c98c84888912fd3aefef00da5681b56e41e488ac48e80100000000001976a914619adfd8225d30557f7b42755cab9bd1e244555d88ac48e80100000000001976a9146fff8b26ba90fc14c3ee24a479114aacfa3f913c88ac48e80100000000001976a914764bb99404aca6819c83597673b6f9accad8c09488ac48e80100000000001976a914779a9e771fc3f523ced5cdea18c6cab68c9aefad88ac48e80100000000001976a9147d9f988039aa6fd4c0cebeb253a44c67ec899d6c88ac48e80100000000001976a91486c1f7407773347bc2014ccc18aac8548df2cdec88ac48e80100000000001976a9148a10bdd47fd34bfaa1d21ec9777c5d30df0c4fcd88ac48e80100000000001976a9148cafef5a15afb59a9d6821d614dcae023894129888ac48e80100000000001976a9148e7c99427aff739a5b1190b823c6313c89949f0188ac48e80100000000001976a9148f6e230d9b1df2ea55b074d757309f839e92499988ac48e80100000000001976a9148fff0e7f96c6527030bcee767a106ab0318f9ac688ac48e80100000000001976a914949f084af4ddd8505125786d1a392a929d5c35d788ac48e80100000000001976a91497ed7dc93097622debbe997abfdbbb69aee0292b88ac48e80100000000001976a9149b083bc18e97295b6b6a9e8fc7a17c0272fb9be488ac48e80100000000001976a914adafa72e1bd05f5d4c9d2ad0e2f469343f015e0388ac48e80100000000001976a914ae16283efd5cf6bf92a882d78b811164fd65ca5088ac48e80100000000001976a914af53a722ff71ead0f469469b05158b1490b984ef88ac48e80100000000001976a914b21e577c81faf4e1381d92902965c95b2de8c92088ac48e80100000000001976a914b8ffcc57d80133b462154a8445780788e7430ac288ac48e80100000000001976a914c0af67b1144cc450f3013b4b4442742946a019b888ac48e80100000000001976a914c74f9b0fa166b9948c79b89db4de7bd8c50911fc88ac48e80100000000001976a914cd05c05064bc1817c1c2b0e99a6e0725ef7682bf88ac48e80100000000001976a914d1e574454ca563afd78fc4286863cce49e42680f88ac48e80100000000001976a914d3fef99d497a92c24bbfd0544f473382a952244a88ac48e80100000000001976a914e4bad8baf32b64a0c9fc6ecea46ff4228ddaeef788ac48e80100000000001976a914ef2576ed71826f3723827c9380e0b80416b6fce388ac48e80100000000001976a914f160e7b039b7ab58b62ba4dc0be9cc728a94f63a88ac48e801000000000017a91401086197a0b49b6a8ec44340389c54832078ed058748e801000000000017a91404de414d78d6f074155a33844f1302e605cffed78748e801000000000017a91404fea4d4d631d70356ffd24087c191396cc113118748e801000000000017a9140febfd00e7e74b77edb197e1f1d91e17837c7c108748e801000000000017a9142d83121321bf5da5524776a3018e20fc0099cae58748e801000000000017a91433990bb8292fd312a525309533e46b2de4a4cfbe8748e801000000000017a9143aa1658f29ab8f74a575b0d26d87a7d1f712cd218748e801000000000017a9143c1967df92355ea0e34bccf71913c0e2f60196808748e801000000000017a91449710ca4a6125f385bae6dc95c9891628f63c7458748e801000000000017a91452d7afbb52d1c55c7424b8e522540052ce3488328748e801000000000017a9145e4e471791a611d1d45a9dde0650c89ddc5b762f8748e801000000000017a914600edb431e16d44205ce0b27ffe4d56737630fcf8748e801000000000017a914658e4399cfecfb15d2b4e464707e70a0994193e18748e801000000000017a91468e574fc83715f41da82d67badc8658c666268998748e801000000000017a9146b317347ece83508ec88dd19f2de581db8c8491f8748e801000000000017a9146efa0da6687d67ed6521ec1d7bdfe13790dc5bd08748e801000000000017a91474dd1224e6d3506bd0486e8ec98b09feebf0ebcc8748e801000000000017a914937d46320502a4584146d5c9c531ff641fa484658748e801000000000017a914939f13de238509d785b6af885fc063a0a95ee9708748e801000000000017a914c00a5652509777e19d6a52d17d87498d35afa3938748e801000000000017a914c38623c26234fba28139f3d0e3b45b96eeab84748748e801000000000017a914ca03fac9a4c3f32a6462dcb86fd4cdb740318f4b8748e801000000000017a914d096a70161ccf9a24dcccdedf6cd9e33dd3f41768748e801000000000017a914d3ee332ace168b1109163ef2cc360fa54ed33e7e8748e801000000000017a914d79d5edf2113c530d370960be0013e0a1fbed6b68748e801000000000017a914e6b8fe0d0cead35c106c86b94a0ef60d387c488f872f523600000000001976a9146935899a703b5156eb250fd0264264969ffd960088ac00000000",
      "blockhash":"000000000000000000111f942bc84612b43e0583bb8b8579b7b3c6fd5fd3edcb",
      "confirmations":6550,
      "time":1587257197,
      "blocktime":1587257197
  },
  "error":null,
  "id":1
}
