[
  {
    "result": {
      "hash": "da75800c5f72e896269e4ebbade6b1b5b9394ab9037e5a083f6e9388456e9b60",
      "confirmations": 155,
      "strippedsize": 185,
      "size": 185,
      "weight": 740,
      "height": 678768,
      "version": 536870912,
      "versionHex": "20000000",
      "merkleroot": "a37f0350873ffb8c9f72ab3d3f3099342d6517abe68ecc8dcfac16d27285e505",
      "tx": [
        {
          "txid": "a37f0350873ffb8c9f72ab3d3f3099342d6517abe68ecc8dcfac16d27285e505",
          "hash": "a37f0350873ffb8c9f72ab3d3f3099342d6517abe68ecc8dcfac16d27285e505",
          "version": 1,
          "size": 104,
          "vsize": 104,
          "locktime": 0,
          "vin": [
            {
              "coinbase": "03705b0a000000000078626c61750001000000",
              "sequence": 4294967295
            }
          ],
          "vout": [
            {
              "value": 50.00000000,
              "n": 0,
              "scriptPubKey": {
                "asm": "OP_DUP OP_HASH160 f14b6482a5e420afa6851a9185e23d8ca3445736 OP_EQUALVERIFY OP_CHECKSIG",
                "hex": "76a914f14b6482a5e420afa6851a9185e23d8ca344573688ac",
                "reqSigs": 1,
                "type": "pubkeyhash",
                "addresses": [
                  "n3WoTf1T2ZxsX8PFdaFyM93RTrtWejRX6t"
                ]
              }
            }
          ],
          "hex": "01000000010000000000000000000000000000000000000000000000000000000000000000ffffffff1303705b0a000000000078626c61750001000000ffffffff0100f2052a010000001976a914f14b6482a5e420afa6851a9185e23d8ca344573688ac00000000"
        }
      ],
      "time": 1532418556,
      "mediantime": 1532417984,
      "nonce": 4285049985,
      "bits": "1d0df6d3",
      "difficulty": 0.07161082002502309,
      "chainwork": "000000000000000000000000000000000000000000000000001ed33e3a661470",
      "previousblockhash": "ced1860407e251f45e2cd33ab622ce26f7ed8a345ad6a31154ce51245b1d010c",
      "nextblockhash": "ba5db0788c40f7bfa5cbbdb46ebab524fe3bbccc7bb8f8d8f5c60cd54059ea21"
    },
    "error": null,
    "id": null
  },
  {
    "result": {
      "hash": "ba5db0788c40f7bfa5cbbdb46ebab524fe3bbccc7bb8f8d8f5c60cd54059ea21",
      "confirmations": 155,
      "strippedsize": 408,
      "size": 408,
      "weight": 1632,
      "height": 678769,
      "version": 536870912,
      "versionHex": "20000000",
      "merkleroot": "509d174f39cc741f887e6c96729fe7d332ce2258710666bbd4c9b04cec95368e",
      "tx": [
        {
          "txid": "e2f4d0eb842a1e66f00bf3fcf633cda602b17b40a41c2994d39d988d84dee181",
          "hash": "e2f4d0eb842a1e66f00bf3fcf633cda602b17b40a41c2994d39d988d84dee181",
          "version": 1,
          "size": 104,
          "vsize": 104,
          "locktime": 0,
          "vin": [
            {
              "coinbase": "03715b0a000200000078626c61750001000000",
              "sequence": 4294967295
            }
          ],
          "vout": [
            {
              "value": 50.00224000,
              "n": 0,
              "scriptPubKey": {
                "asm": "OP_DUP OP_HASH160 f14b6482a5e420afa6851a9185e23d8ca3445736 OP_EQUALVERIFY OP_CHECKSIG",
                "hex": "76a914f14b6482a5e420afa6851a9185e23d8ca344573688ac",
                "reqSigs": 1,
                "type": "pubkeyhash",
                "addresses": [
                  "n3WoTf1T2ZxsX8PFdaFyM93RTrtWejRX6t"
                ]
              }
            }
          ],
          "hex": "01000000010000000000000000000000000000000000000000000000000000000000000000ffffffff1303715b0a000200000078626c61750001000000ffffffff01005d092a010000001976a914f14b6482a5e420afa6851a9185e23d8ca344573688ac00000000"
        },
        {
          "txid": "72bdd063443f991cf949cb7a8061791ebde7d707b76ee8f28a4eab2158d88166",
          "hash": "72bdd063443f991cf949cb7a8061791ebde7d707b76ee8f28a4eab2158d88166",
          "version": 2,
          "size": 223,
          "vsize": 223,
          "locktime": 678768,
          "vin": [
            {
              "txid": "28c3f9f42cd4f72c6ee0dfd17b521e88a2c542c5d045698ac0466c8610350054",
              "vout": 0,
              "scriptSig": {
                "asm": "3044022071891c03b043f1ee0f37abe444350417b97c76dd7e40f83fda7c17d165a5610a02204c80fd75ced4c3f442510a6bcc10ac8b50b85f8c9957a203c168ed07e41bda48[ALL] 039f1f52896fbe02725dd7929f162187ab0c6cdc98f0dc858565825964c11895cc",
                "hex": "473044022071891c03b043f1ee0f37abe444350417b97c76dd7e40f83fda7c17d165a5610a02204c80fd75ced4c3f442510a6bcc10ac8b50b85f8c9957a203c168ed07e41bda480121039f1f52896fbe02725dd7929f162187ab0c6cdc98f0dc858565825964c11895cc"
              },
              "sequence": 4294967294
            }
          ],
          "vout": [
            {
              "value": 10.00000000,
              "n": 0,
              "scriptPubKey": {
                "asm": "OP_HASH160 98b000c1051dc3fc7df35962070919ee2bece2d1 OP_EQUAL",
                "hex": "a91498b000c1051dc3fc7df35962070919ee2bece2d187",
                "reqSigs": 1,
                "type": "scripthash",
                "addresses": [
                  "QaXKfMcHj86a9AQh2YTAkkhMEJuN6dfuyu"
                ]
              }
            },
            {
              "value": 5.08733700,
              "n": 1,
              "scriptPubKey": {
                "asm": "OP_DUP OP_HASH160 a6092998fa95e80a976b1851bb34bbcc7ba918be OP_EQUALVERIFY OP_CHECKSIG",
                "hex": "76a914a6092998fa95e80a976b1851bb34bbcc7ba918be88ac",
                "reqSigs": 1,
                "type": "pubkeyhash",
                "addresses": [
                  "mvesSX3jz4QgLZzjb4RuRs3L7pYib88tfc"
                ]
              }
            }
          ],
          "hex": "020000000154003510866c46c08a6945d0c542c5a2881e527bd1dfe06e2cf7d42cf4f9c328000000006a473044022071891c03b043f1ee0f37abe444350417b97c76dd7e40f83fda7c17d165a5610a02204c80fd75ced4c3f442510a6bcc10ac8b50b85f8c9957a203c168ed07e41bda480121039f1f52896fbe02725dd7929f162187ab0c6cdc98f0dc858565825964c11895ccfeffffff0200ca9a3b0000000017a91498b000c1051dc3fc7df35962070919ee2bece2d18704a9521e000000001976a914a6092998fa95e80a976b1851bb34bbcc7ba918be88ac705b0a00"
        }
      ],
      "time": 1532418696,
      "mediantime": 1532418065,
      "nonce": 4214384775,
      "bits": "1d0df6d3",
      "difficulty": 0.07161082002502309,
      "chainwork": "000000000000000000000000000000000000000000000000001ed33e4cbb3cf7",
      "previousblockhash": "da75800c5f72e896269e4ebbade6b1b5b9394ab9037e5a083f6e9388456e9b60",
      "nextblockhash": "445dad667aa9ca16091a65c0b0b5e99723282a131fcffd6b546b204f6d01805b"
    },
    "error": null,
    "id": null
  }
]