[
  {
    "result": {
      "hash": "83ab4f025409624aa11e3f93c9884e9a49646c2d42b5f5eecab65e1f4a2a73e7",
      "confirmations": 2,
      "strippedsize": 1005,
      "size": 2032,
      "weight": 5047,
      "height": 678947,
      "version": 536870912,
      "versionHex": "20000000",
      "merkleroot": "27080a8f4b0c5b21e466a2f5ac15ca90fff7c88c90f513163472e973fcc96a2f",
      "tx": [
        {
          "txid": "a087e1e8d91a343273c9508789117998ae3ebb864567ef91a73455e3b3ddf2a2",
          "hash": "c87376b5225a54b9a6b077ac8b104da309c073d8b296abf9de7a488e02817bc3",
          "version": 1,
          "size": 196,
          "vsize": 169,
          "locktime": 0,
          "vin": [
            {
              "coinbase": "03235c0a045321575b087000000001000000092f50524f504f4f4c2f",
              "sequence": 0
            }
          ],
          "vout": [
            {
              "value": 0.00000000,
              "n": 0,
              "scriptPubKey": {
                "asm": "OP_RETURN aa21a9ed50f31e7dfbeeb56132d8f5e72b32ce954b4ede9d5a9c108df67abacd43014cfa",
                "hex": "6a24aa21a9ed50f31e7dfbeeb56132d8f5e72b32ce954b4ede9d5a9c108df67abacd43014cfa",
                "type": "nulldata"
              }
            },
            {
              "value": 50.00330298,
              "n": 1,
              "scriptPubKey": {
                "asm": "OP_DUP OP_HASH160 3b5042fcedadaedc94224feda880f33f2217455e OP_EQUALVERIFY OP_CHECKSIG",
                "hex": "76a9143b5042fcedadaedc94224feda880f33f2217455e88ac",
                "reqSigs": 1,
                "type": "pubkeyhash",
                "addresses": [
                  "mkvaK3txQ1sgWxGPwNrLSN4rG1AYh3ui4Y"
                ]
              }
            }
          ],
          "hex": "010000000001010000000000000000000000000000000000000000000000000000000000000000ffffffff1c03235c0a045321575b087000000001000000092f50524f504f4f4c2f00000000020000000000000000266a24aa21a9ed50f31e7dfbeeb56132d8f5e72b32ce954b4ede9d5a9c108df67abacd43014cfa3afc0a2a010000001976a9143b5042fcedadaedc94224feda880f33f2217455e88ac0120000000000000000000000000000000000000000000000000000000000000000000000000"
        },
        {
          "txid": "08bbba3a9c34429e0a09e6172477d404ec16d8daf26765f53cd5e847c6f027c0",
          "hash": "e2506e03e39f7f85dcbf170cb1d344dba4a343a88c45df3588cc1ec250f87e92",
          "version": 1,
          "size": 376,
          "vsize": 210,
          "locktime": 0,
          "vin": [
            {
              "txid": "1a2e4b023881b2283fd9f135a11b4d06cf4e16af4794d5621dabca559ad76819",
              "vout": 0,
              "scriptSig": {
                "asm": "0020b6130f7c1290328ca51ddc14c7f3f254e86ff394011646bc885ae62d5e708c57",
                "hex": "220020b6130f7c1290328ca51ddc14c7f3f254e86ff394011646bc885ae62d5e708c57"
              },
              "txinwitness": [
                "",
                "304502210081d69df879a758e661498afe74e828a793f753a1e52438f6d659d1d5e0510a0c02201217a3c7450abfcdab213e732042eedd3a694e9cd785ba4d80fae0e972207d3a01",
                "3045022100d16679ab5d339b7be747ae14a6f4f9fd23fde58837881d5c97be3018c96735cd02200ad74b1083c292fbd4e97df07e4469091ad59e8e778a4053448b5c4cd9d1c66601",
                "522102bb97781b8390c343b454b09622e269e366d32e8909c6f9e07a8567a4282963e52102ef6e96414a4a7ddec2b12dad723b6d25b8c159b184e0360493135a01d82556f852ae"
              ],
              "sequence": 4294967295
            }
          ],
          "vout": [
            {
              "value": 0.09835909,
              "n": 0,
              "scriptPubKey": {
                "asm": "OP_DUP OP_HASH160 f5888b757d7989329ec80160a6e0cd8295a7debe OP_EQUALVERIFY OP_CHECKSIG",
                "hex": "76a914f5888b757d7989329ec80160a6e0cd8295a7debe88ac",
                "reqSigs": 1,
                "type": "pubkeyhash",
                "addresses": [
                  "n3uDRMBhxn7fru26z6qCopuZGqu89rTF4S"
                ]
              }
            },
            {
              "value": 0.00060000,
              "n": 1,
              "scriptPubKey": {
                "asm": "OP_DUP OP_HASH160 23bfd1ecf729341ccece41696649db81301c2fdf OP_EQUALVERIFY OP_CHECKSIG",
                "hex": "76a91423bfd1ecf729341ccece41696649db81301c2fdf88ac",
                "reqSigs": 1,
                "type": "pubkeyhash",
                "addresses": [
                  "mimyjf3yDxUNrZrpq6VsttG2KRfuCFePW8"
                ]
              }
            }
          ],
          "hex": "010000000001011968d79a55caab1d62d59447af164ecf064d1ba135f1d93f28b28138024b2e1a0000000023220020b6130f7c1290328ca51ddc14c7f3f254e86ff394011646bc885ae62d5e708c57ffffffff0285159600000000001976a914f5888b757d7989329ec80160a6e0cd8295a7debe88ac60ea0000000000001976a91423bfd1ecf729341ccece41696649db81301c2fdf88ac040048304502210081d69df879a758e661498afe74e828a793f753a1e52438f6d659d1d5e0510a0c02201217a3c7450abfcdab213e732042eedd3a694e9cd785ba4d80fae0e972207d3a01483045022100d16679ab5d339b7be747ae14a6f4f9fd23fde58837881d5c97be3018c96735cd02200ad74b1083c292fbd4e97df07e4469091ad59e8e778a4053448b5c4cd9d1c6660147522102bb97781b8390c343b454b09622e269e366d32e8909c6f9e07a8567a4282963e52102ef6e96414a4a7ddec2b12dad723b6d25b8c159b184e0360493135a01d82556f852ae00000000"
        },
        {
          "txid": "744e582fbeac7c2ce83d8fc95f769bfad1c572c86cf47da227c3b15ba0b49ccf",
          "hash": "b255049ef3a3016fadc9ec67e95b12bb0c4932868fcff792f50e63f4946b616a",
          "version": 1,
          "size": 371,
          "vsize": 206,
          "locktime": 0,
          "vin": [
            {
              "txid": "bc22f5aaa2044fd37313fa08dc602dbde9e173489d2ccef152c17345ac37030d",
              "vout": 0,
              "scriptSig": {
                "asm": "0020d611526267d717b38a3addb36df2fe90f425911a84eac68c6a51585df2671fd1",
                "hex": "220020d611526267d717b38a3addb36df2fe90f425911a84eac68c6a51585df2671fd1"
              },
              "txinwitness": [
                "",
                "3044022048c21223fc633a8271ad81ff1690ddc6defdb4b0409027d2ea78a64b58d9ad9602202b061602b4199f5706adb7e10eec6a2b91f9a2e867e0467e810a632f4f28f66001",
                "304502210085bb8cb8c41c7ff931762587ea6a89a79a13ddaf7c28cf6c28fcf8ba1662b19002200b9eb148fa75a096fb01736d6781b552aea9b278dbf8c9cf6624be086d11536b01",
                "522103b2f41433016820fa0235115cddaa80152b2a7374bfd4130fa228f298d5d58d9a2103252025374bcfd04c649cbb3cb39fe77068d12da41fb220a7942feeebe10c06e152ae"
              ],
              "sequence": 4294967295
            }
          ],
          "vout": [
            {
              "value": 0.01000000,
              "n": 0,
              "scriptPubKey": {
                "asm": "OP_HASH160 c01309f2d0ea3eb5a7b4c712ef317ff4523d275e OP_EQUAL",
                "hex": "a914c01309f2d0ea3eb5a7b4c712ef317ff4523d275e87",
                "reqSigs": 1,
                "type": "scripthash",
                "addresses": [
                  "Qe7aeyRTWcPpxEq3fVhnbVvdZNc7zzXy7p"
                ]
              }
            },
            {
              "value": 0.48882934,
              "n": 1,
              "scriptPubKey": {
                "asm": "OP_HASH160 e8fa4fe485ed50a38254f5f80b694d915cd20ce1 OP_EQUAL",
                "hex": "a914e8fa4fe485ed50a38254f5f80b694d915cd20ce187",
                "reqSigs": 1,
                "type": "scripthash",
                "addresses": [
                  "QhqrjnsvYAgWhyxCREfATF4pogCj3Urvfv"
                ]
              }
            }
          ],
          "hex": "010000000001010d0337ac4573c152f1ce2c9d4873e1e9bd2d60dc08fa1373d34f04a2aaf522bc0000000023220020d611526267d717b38a3addb36df2fe90f425911a84eac68c6a51585df2671fd1ffffffff0240420f000000000017a914c01309f2d0ea3eb5a7b4c712ef317ff4523d275e87f6e4e9020000000017a914e8fa4fe485ed50a38254f5f80b694d915cd20ce1870400473044022048c21223fc633a8271ad81ff1690ddc6defdb4b0409027d2ea78a64b58d9ad9602202b061602b4199f5706adb7e10eec6a2b91f9a2e867e0467e810a632f4f28f6600148304502210085bb8cb8c41c7ff931762587ea6a89a79a13ddaf7c28cf6c28fcf8ba1662b19002200b9eb148fa75a096fb01736d6781b552aea9b278dbf8c9cf6624be086d11536b0147522103b2f41433016820fa0235115cddaa80152b2a7374bfd4130fa228f298d5d58d9a2103252025374bcfd04c649cbb3cb39fe77068d12da41fb220a7942feeebe10c06e152ae00000000"
        },
        {
          "txid": "0599d766d60377d6e6700c5fc25f7c9a3b6a11f1df8f69d554db4fe985ea059d",
          "hash": "54604c91553c20a57b84d60513bbd4a1816c0807232145fdeafb9bdc03d83395",
          "version": 1,
          "size": 341,
          "vsize": 176,
          "locktime": 0,
          "vin": [
            {
              "txid": "744e582fbeac7c2ce83d8fc95f769bfad1c572c86cf47da227c3b15ba0b49ccf",
              "vout": 0,
              "scriptSig": {
                "asm": "002027777de767fe858ab6cc84e1b8274e46ca098cdd02305ba7e467d5069ecf155a",
                "hex": "22002027777de767fe858ab6cc84e1b8274e46ca098cdd02305ba7e467d5069ecf155a"
              },
              "txinwitness": [
                "",
                "30440220151fd48c82a4cbab95b37c74fecf7e69bdf56f3e378b88ff6cd3c1d693fe5e2f022021afef6e1a14aa00f19537f8f780571ba203beaef8346a92bdd4ee745c5bc8af01",
                "3045022100a6050deab39a78d018ea42c38fc5a3f8b4abe1a24b454d8d34f471816a6ac58b0220029b4c4bbff19b46d01bbb15964b4adaf9b9c91da5618c57a7f1432643ba5a9001",
                "522102a164f7abbb4550b613a3c002bfc2f99ec01347eb00f8b99ac3332ab87421b442210359f9035f0682ddad866f9038121bbde7d8f5a1c43a120e42f011d692f1e7e66c52ae"
              ],
              "sequence": 4294967295
            }
          ],
          "vout": [
            {
              "value": 0.00900000,
              "n": 0,
              "scriptPubKey": {
                "asm": "OP_DUP OP_HASH160 aacf9dcdc1a4ec89151299cdf29895e482b3f920 OP_EQUALVERIFY OP_CHECKSIG",
                "hex": "76a914aacf9dcdc1a4ec89151299cdf29895e482b3f92088ac",
                "reqSigs": 1,
                "type": "pubkeyhash",
                "addresses": [
                  "mw67t7AE88SBSRWYw1is3JaFbtXVygwpmB"
                ]
              }
            }
          ],
          "hex": "01000000000101cf9cb4a05bb1c327a27df46cc872c5d1fa9b765fc98f3de82c7cacbe2f584e74000000002322002027777de767fe858ab6cc84e1b8274e46ca098cdd02305ba7e467d5069ecf155affffffff01a0bb0d00000000001976a914aacf9dcdc1a4ec89151299cdf29895e482b3f92088ac04004730440220151fd48c82a4cbab95b37c74fecf7e69bdf56f3e378b88ff6cd3c1d693fe5e2f022021afef6e1a14aa00f19537f8f780571ba203beaef8346a92bdd4ee745c5bc8af01483045022100a6050deab39a78d018ea42c38fc5a3f8b4abe1a24b454d8d34f471816a6ac58b0220029b4c4bbff19b46d01bbb15964b4adaf9b9c91da5618c57a7f1432643ba5a900147522102a164f7abbb4550b613a3c002bfc2f99ec01347eb00f8b99ac3332ab87421b442210359f9035f0682ddad866f9038121bbde7d8f5a1c43a120e42f011d692f1e7e66c52ae00000000"
        },
        {
          "txid": "bd75341b46132bba6805f6494871db4b42db972ac4643c1c2cf249797a114035",
          "hash": "34eee776ab27ba5d16dc0befa3d03ce325323be07ad922ae71b2c2c649ca2c66",
          "version": 2,
          "size": 248,
          "vsize": 166,
          "locktime": 678943,
          "vin": [
            {
              "txid": "72bdd063443f991cf949cb7a8061791ebde7d707b76ee8f28a4eab2158d88166",
              "vout": 0,
              "scriptSig": {
                "asm": "0014c19b1b0b3d0ab8f7b52f863de27f7485a32f87c7",
                "hex": "160014c19b1b0b3d0ab8f7b52f863de27f7485a32f87c7"
              },
              "txinwitness": [
                "3045022100d960075262fc6f5860f46212fecbd5eb3b1c254b8d3a2ff26b0931608760d0e9022033310c2d9861f90930b8edb3cc5d66323a835be9fdfa00d04d27e9f7bf324e5801",
                "02a3e9739bce95527bb1f242d87c4c65403b94d9534a7e8ff999e5a74fed09ca5b"
              ],
              "sequence": 4294967294
            }
          ],
          "vout": [
            {
              "value": 3.00000000,
              "n": 0,
              "scriptPubKey": {
                "asm": "OP_HASH160 5b640c703e294b05943842c00be44dc1054e7ef3 OP_EQUAL",
                "hex": "a9145b640c703e294b05943842c00be44dc1054e7ef387",
                "reqSigs": 1,
                "type": "scripthash",
                "addresses": [
                  "QUwDTFe1H7EAChVqm6FXexC8YpLPxc2U6n"
                ]
              }
            },
            {
              "value": 6.99966640,
              "n": 1,
              "scriptPubKey": {
                "asm": "OP_HASH160 0b076915aceabacd3a15447982d332940240a142 OP_EQUAL",
                "hex": "a9140b076915aceabacd3a15447982d332940240a14287",
                "reqSigs": 1,
                "type": "scripthash",
                "addresses": [
                  "QMcJRJH2ecFbiS41Mku7vjHUe9c7FhyJrh"
                ]
              }
            }
          ],
          "hex": "020000000001016681d85821ab4e8af2e86eb707d7e7bd1e7961807acb49f91c993f4463d0bd720000000017160014c19b1b0b3d0ab8f7b52f863de27f7485a32f87c7feffffff0200a3e1110000000017a9145b640c703e294b05943842c00be44dc1054e7ef387b0a4b8290000000017a9140b076915aceabacd3a15447982d332940240a1428702483045022100d960075262fc6f5860f46212fecbd5eb3b1c254b8d3a2ff26b0931608760d0e9022033310c2d9861f90930b8edb3cc5d66323a835be9fdfa00d04d27e9f7bf324e58012102a3e9739bce95527bb1f242d87c4c65403b94d9534a7e8ff999e5a74fed09ca5b1f5c0a00"
        },
        {
          "txid": "77aea3faa3c5d97fe75736a4171e88bd1519893b45f39490d25d7b0c932c356c",
          "hash": "cfcdb64a825d14ed4d4656e15dedd49e7e739799cb94330c645743f18f53cb71",
          "version": 2,
          "size": 419,
          "vsize": 257,
          "locktime": 678940,
          "vin": [
            {
              "txid": "7aa627d92d1ebda65382bda978cd3551d5b04692091a6497b6ac94c705a4962d",
              "vout": 0,
              "scriptSig": {
                "asm": "0014bc75f9b433ad9aac2c9dec96c42b95af292fd864",
                "hex": "160014bc75f9b433ad9aac2c9dec96c42b95af292fd864"
              },
              "txinwitness": [
                "30440220641ce2ea19c3bf4346960f1611828c0f808ec59e14b1c25f88d0bb171edb4195022016e91343bf7d144464f76ebeea31847fa8ce758d6cfb69ef6494d8b2c8c1ebfe01",
                "0321ef191b05ab7041274b6a609a4d49c7dfa4f275c47c987d8d7af98382b3e287"
              ],
              "sequence": 4294967294
            },
            {
              "txid": "800c533de1af5c4f680363e5fb3d774ff1db1286449c8560d2e1574f364421ea",
              "vout": 1,
              "scriptSig": {
                "asm": "001414d9e29783a73e6c6ba05f534cd385d322f9f5ea",
                "hex": "16001414d9e29783a73e6c6ba05f534cd385d322f9f5ea"
              },
              "txinwitness": [
                "3045022100b08a3065c6a159961d05989788db76b009ec7e75328a97318c558f49b0b90529022077e8037f4eb4e0834c31faedb4b21309f5fdd36417dd862b839688dea24b3eea01",
                "034c2bffddbf208631b8da22499b9c1343c1bb59f3315cdaeb4c8ad70a01e232f0"
              ],
              "sequence": 4294967294
            }
          ],
          "vout": [
            {
              "value": 5.00000000,
              "n": 0,
              "scriptPubKey": {
                "asm": "OP_HASH160 5b640c703e294b05943842c00be44dc1054e7ef3 OP_EQUAL",
                "hex": "a9145b640c703e294b05943842c00be44dc1054e7ef387",
                "reqSigs": 1,
                "type": "scripthash",
                "addresses": [
                  "QUwDTFe1H7EAChVqm6FXexC8YpLPxc2U6n"
                ]
              }
            },
            {
              "value": 1.74479462,
              "n": 1,
              "scriptPubKey": {
                "asm": "OP_HASH160 ddccb2ce7b55b1cd9bbe1d17e17df9049b7b27b2 OP_EQUAL",
                "hex": "a914ddccb2ce7b55b1cd9bbe1d17e17df9049b7b27b287",
                "reqSigs": 1,
                "type": "scripthash",
                "addresses": [
                  "QgpkfPgqxqJAr4yu7iPCUCEvep4Dp1z2GD"
                ]
              }
            }
          ],
          "hex": "020000000001022d96a405c794acb697641a099246b0d55135cd78a9bd8253a6bd1e2dd927a67a0000000017160014bc75f9b433ad9aac2c9dec96c42b95af292fd864feffffffea2144364f57e1d260859c448612dbf14f773dfbe56303684f5cafe13d530c80010000001716001414d9e29783a73e6c6ba05f534cd385d322f9f5eafeffffff020065cd1d0000000017a9145b640c703e294b05943842c00be44dc1054e7ef3876658660a0000000017a914ddccb2ce7b55b1cd9bbe1d17e17df9049b7b27b287024730440220641ce2ea19c3bf4346960f1611828c0f808ec59e14b1c25f88d0bb171edb4195022016e91343bf7d144464f76ebeea31847fa8ce758d6cfb69ef6494d8b2c8c1ebfe01210321ef191b05ab7041274b6a609a4d49c7dfa4f275c47c987d8d7af98382b3e28702483045022100b08a3065c6a159961d05989788db76b009ec7e75328a97318c558f49b0b90529022077e8037f4eb4e0834c31faedb4b21309f5fdd36417dd862b839688dea24b3eea0121034c2bffddbf208631b8da22499b9c1343c1bb59f3315cdaeb4c8ad70a01e232f01c5c0a00"
        }
      ],
      "time": 1532436819,
      "mediantime": 1532436477,
      "nonce": 13551360,
      "bits": "1d0df6d3",
      "difficulty": 0.07161082002502309,
      "chainwork": "000000000000000000000000000000000000000000000000001ed34a1e6e5c07",
      "previousblockhash": "2f6bd90f9af369efedb786427f981e2fa1c2931d8f2db7b405e70577e4884e6e",
      "nextblockhash": "d36aea8eb0443eaaa1134c9fb0126ccca86b28e320f2825405d054f19bc680b2"
    },
    "error": null,
    "id": null
  },
  {
    "result": {
      "hash": "d36aea8eb0443eaaa1134c9fb0126ccca86b28e320f2825405d054f19bc680b2",
      "confirmations": 1,
      "strippedsize": 742,
      "size": 742,
      "weight": 2968,
      "height": 678948,
      "version": 536870912,
      "versionHex": "20000000",
      "merkleroot": "2e5121220f14a8983a78f96f15c9d864d1bb1ae4e0ac06351e616320b8a87280",
      "tx": [
        {
          "txid": "c253adaf2f40d9cd52e31bf271107ef43e80edb672229a9fc657204b61ff71b1",
          "hash": "c253adaf2f40d9cd52e31bf271107ef43e80edb672229a9fc657204b61ff71b1",
          "version": 1,
          "size": 104,
          "vsize": 104,
          "locktime": 0,
          "vin": [
            {
              "coinbase": "03245c0a000200000078626c61750001000000",
              "sequence": 4294967295
            }
          ],
          "vout": [
            {
              "value": 50.00292800,
              "n": 0,
              "scriptPubKey": {
                "asm": "OP_DUP OP_HASH160 f14b6482a5e420afa6851a9185e23d8ca3445736 OP_EQUALVERIFY OP_CHECKSIG",
                "hex": "76a914f14b6482a5e420afa6851a9185e23d8ca344573688ac",
                "reqSigs": 1,
                "type": "pubkeyhash",
                "addresses": [
                  "n3WoTf1T2ZxsX8PFdaFyM93RTrtWejRX6t"
                ]
              }
            }
          ],
          "hex": "01000000010000000000000000000000000000000000000000000000000000000000000000ffffffff1303245c0a000200000078626c61750001000000ffffffff01c0690a2a010000001976a914f14b6482a5e420afa6851a9185e23d8ca344573688ac00000000"
        },
        {
          "txid": "ac2bffe2f2ecb44e60260a873998742de1f1e04bfe6e7838bbb62fb8c934502b",
          "hash": "ac2bffe2f2ecb44e60260a873998742de1f1e04bfe6e7838bbb62fb8c934502b",
          "version": 2,
          "size": 225,
          "vsize": 225,
          "locktime": 678947,
          "vin": [
            {
              "txid": "ee730b3c749c7b763112081c93df72edb650a8b49df0d1faf39b71862d09aebc",
              "vout": 0,
              "scriptSig": {
                "asm": "304402202156cb174d93a94221adff1cf87638dfe26eec4d659ec90e4efd7264e29a46d402207e8fb1c0bb01427f8449d176aba4bb7be57d42daf323cec9f51facf0a9500d89[ALL] 034283be74de0d9349f7dd50718ce2e17feeb611da6b1ebc147c21bcec73a6dec2",
                "hex": "47304402202156cb174d93a94221adff1cf87638dfe26eec4d659ec90e4efd7264e29a46d402207e8fb1c0bb01427f8449d176aba4bb7be57d42daf323cec9f51facf0a9500d890121034283be74de0d9349f7dd50718ce2e17feeb611da6b1ebc147c21bcec73a6dec2"
              },
              "sequence": 4294967294
            }
          ],
          "vout": [
            {
              "value": 1.00000000,
              "n": 0,
              "scriptPubKey": {
                "asm": "OP_DUP OP_HASH160 205062530734c62094636bc84863bbd2b54458f3 OP_EQUALVERIFY OP_CHECKSIG",
                "hex": "76a914205062530734c62094636bc84863bbd2b54458f388ac",
                "reqSigs": 1,
                "type": "pubkeyhash",
                "addresses": [
                  "miTpDNnHQZLazyg7kRvLdzcLkGai79pdxm"
                ]
              }
            },
            {
              "value": 35.99098000,
              "n": 1,
              "scriptPubKey": {
                "asm": "OP_DUP OP_HASH160 97fd129c97e3e1939afe67cff20a03bd518836f3 OP_EQUALVERIFY OP_CHECKSIG",
                "hex": "76a91497fd129c97e3e1939afe67cff20a03bd518836f388ac",
                "reqSigs": 1,
                "type": "pubkeyhash",
                "addresses": [
                  "muNbVpWmDnjZhY7vTRd1gNuRJTQszqnVKD"
                ]
              }
            }
          ],
          "hex": "0200000001bcae092d86719bf3fad1f09db4a850b6ed72df931c081231767b9c743c0b73ee000000006a47304402202156cb174d93a94221adff1cf87638dfe26eec4d659ec90e4efd7264e29a46d402207e8fb1c0bb01427f8449d176aba4bb7be57d42daf323cec9f51facf0a9500d890121034283be74de0d9349f7dd50718ce2e17feeb611da6b1ebc147c21bcec73a6dec2feffffff0200e1f505000000001976a914205062530734c62094636bc84863bbd2b54458f388ac90e085d6000000001976a91497fd129c97e3e1939afe67cff20a03bd518836f388ac235c0a00"
        },
        {
          "txid": "3f8cd03da8e96ead012cfdcdd0f39279f162ca98860cfcaf08a310a570e5fba7",
          "hash": "3f8cd03da8e96ead012cfdcdd0f39279f162ca98860cfcaf08a310a570e5fba7",
          "version": 1,
          "size": 332,
          "vsize": 332,
          "locktime": 0,
          "vin": [
            {
              "txid": "4217124bfc667f511ed1975a889bcf8cbeca031725b3ade31720eacf30866904",
              "vout": 1,
              "scriptSig": {
                "asm": "0 3044022045fdcf13da06ba1d9118f923f2d8e7b12bbee217e40c4032b20a7ce2e6f380980220752fcb56454d3f3d593d14897dc434a53cf9d0029e6ec214827516a7ad7c4b1b[ALL] 304402206f9a1e215b02ff6e3459aa820bcc712ea358d5843a253fb8fe826747503cff52022020365bb5a063859459a84a62e3e4ac5c51b5c1c0c16aeb3ac98409ba91bcb466[ALL] 522102a6126cabab675799a7f8022dc756b40fd5226c8ebe3c279e4f5aebc034b6d48d21039b904498e7702692b72b265dfb0221994bb8505ee50837aba768083b3a25aba952ae",
                "hex": "00473044022045fdcf13da06ba1d9118f923f2d8e7b12bbee217e40c4032b20a7ce2e6f380980220752fcb56454d3f3d593d14897dc434a53cf9d0029e6ec214827516a7ad7c4b1b0147304402206f9a1e215b02ff6e3459aa820bcc712ea358d5843a253fb8fe826747503cff52022020365bb5a063859459a84a62e3e4ac5c51b5c1c0c16aeb3ac98409ba91bcb4660147522102a6126cabab675799a7f8022dc756b40fd5226c8ebe3c279e4f5aebc034b6d48d21039b904498e7702692b72b265dfb0221994bb8505ee50837aba768083b3a25aba952ae"
              },
              "sequence": 4294967295
            }
          ],
          "vout": [
            {
              "value": 0.25000000,
              "n": 0,
              "scriptPubKey": {
                "asm": "OP_HASH160 259adf1951fe8b82e3ee91eeb5936e2c9ee45568 OP_EQUAL",
                "hex": "a914259adf1951fe8b82e3ee91eeb5936e2c9ee4556887",
                "reqSigs": 1,
                "type": "scripthash",
                "addresses": [
                  "QQ2pe4Bcy9uZFHExcyxb4pbB5LBZEcjQPo"
                ]
              }
            },
            {
              "value": 4748.38687520,
              "n": 1,
              "scriptPubKey": {
                "asm": "OP_HASH160 94d0071ed66b6584650440fdc6dfc2916a119b06 OP_EQUAL",
                "hex": "a91494d0071ed66b6584650440fdc6dfc2916a119b0687",
                "reqSigs": 1,
                "type": "scripthash",
                "addresses": [
                  "QaAqKiTwm5qpYyjuSLRXhuAHtpBuWn6vFU"
                ]
              }
            }
          ],
          "hex": "010000000104698630cfea2017e3adb3251703cabe8ccf9b885a97d11e517f66fc4b12174201000000d900473044022045fdcf13da06ba1d9118f923f2d8e7b12bbee217e40c4032b20a7ce2e6f380980220752fcb56454d3f3d593d14897dc434a53cf9d0029e6ec214827516a7ad7c4b1b0147304402206f9a1e215b02ff6e3459aa820bcc712ea358d5843a253fb8fe826747503cff52022020365bb5a063859459a84a62e3e4ac5c51b5c1c0c16aeb3ac98409ba91bcb4660147522102a6126cabab675799a7f8022dc756b40fd5226c8ebe3c279e4f5aebc034b6d48d21039b904498e7702692b72b265dfb0221994bb8505ee50837aba768083b3a25aba952aeffffffff0240787d010000000017a914259adf1951fe8b82e3ee91eeb5936e2c9ee4556887205f978e6e00000017a91494d0071ed66b6584650440fdc6dfc2916a119b068700000000"
        }
      ],
      "time": 1532437039,
      "mediantime": 1532436528,
      "nonce": 4266527106,
      "bits": "1d0df6d3",
      "difficulty": 0.07161082002502309,
      "chainwork": "000000000000000000000000000000000000000000000000001ed34a30c3848e",
      "previousblockhash": "83ab4f025409624aa11e3f93c9884e9a49646c2d42b5f5eecab65e1f4a2a73e7"
    },
    "error": null,
    "id": null
  }
]