[
  {
    "result": {
      "hex": "0200000002c5ce586277945f6391250ab2a03999b9af0b7dcb43be867098e49cf32f5fbd46020000006a4730440220284d60e1fa999191dda627f56226686b567f6febe4f64df62bf73788bcdd122d02202c47ccb4a0da38b5bed80ae3bee5f9efdb18f136a2d2330d23867482d6309eea412102494aa7879d9afa6e2e2db13eea8d2874b6a92ba5f663fab3369b96ddc939b86bffffffff485798a0205cd6965c86b5bd50db1f1233ec15e9b2e2cc2b4effc6f4538e0291000000006b483045022100bf551cd2b818f7554ced954892b8d0c39b5f47c83074b1179de8b70725caaa02022007587a07ad26475ee39ea95ee42afb916df05cb28ec06f8b90bac1fe24dad23d412102494aa7879d9afa6e2e2db13eea8d2874b6a92ba5f663fab3369b96ddc939b86bffffffff02088d8818000000001976a914629d5d73d5b6eb162f7b00fc0598f376f0d985d888ac00000000000000000e6a0c08776863000000350000003500000000",
      "txid": "d4eec66f4c633ddd7a4e4b012572302bcf0926bb398c84987a097dd9eb4004b8",
      "hash": "d4eec66f4c633ddd7a4e4b012572302bcf0926bb398c84987a097dd9eb4004b8",
      "size": 362,
      "version": 2,
      "locktime": 0,
      "vin": [
        {
          "txid": "46bd5f2ff39ce4987086be43cb7d0bafb99939a0b20a2591635f94776258cec5",
          "vout": 2,
          "scriptSig": {
            "asm": "30440220284d60e1fa999191dda627f56226686b567f6febe4f64df62bf73788bcdd122d02202c47ccb4a0da38b5bed80ae3bee5f9efdb18f136a2d2330d23867482d6309eea[ALL|FORKID] 02494aa7879d9afa6e2e2db13eea8d2874b6a92ba5f663fab3369b96ddc939b86b",
            "hex": "4730440220284d60e1fa999191dda627f56226686b567f6febe4f64df62bf73788bcdd122d02202c47ccb4a0da38b5bed80ae3bee5f9efdb18f136a2d2330d23867482d6309eea412102494aa7879d9afa6e2e2db13eea8d2874b6a92ba5f663fab3369b96ddc939b86b"
          },
          "sequence": 4294967295
        },
        {
          "txid": "91028e53f4c6ff4e2bcce2b2e915ec33121fdb50bdb5865c96d65c20a0985748",
          "vout": 0,
          "scriptSig": {
            "asm": "3045022100bf551cd2b818f7554ced954892b8d0c39b5f47c83074b1179de8b70725caaa02022007587a07ad26475ee39ea95ee42afb916df05cb28ec06f8b90bac1fe24dad23d[ALL|FORKID] 02494aa7879d9afa6e2e2db13eea8d2874b6a92ba5f663fab3369b96ddc939b86b",
            "hex": "483045022100bf551cd2b818f7554ced954892b8d0c39b5f47c83074b1179de8b70725caaa02022007587a07ad26475ee39ea95ee42afb916df05cb28ec06f8b90bac1fe24dad23d412102494aa7879d9afa6e2e2db13eea8d2874b6a92ba5f663fab3369b96ddc939b86b"
          },
          "sequence": 4294967295
        }
      ],
      "vout": [
        {
          "value": 4.11602184,
          "n": 0,
          "scriptPubKey": {
            "asm": "OP_DUP OP_HASH160 629d5d73d5b6eb162f7b00fc0598f376f0d985d8 OP_EQUALVERIFY OP_CHECKSIG",
            "hex": "76a914629d5d73d5b6eb162f7b00fc0598f376f0d985d888ac",
            "reqSigs": 1,
            "type": "pubkeyhash",
            "addresses": [
              "bchtest:qp3f6htn6kmwk9300vq0cpvc7dm0pkv9mqrzzwqr8k"
            ]
          }
        },
        {
          "value": 0.00000000,
          "n": 1,
          "scriptPubKey": {
            "asm": "OP_RETURN 087768630000003500000035",
            "hex": "6a0c087768630000003500000035",
            "type": "nulldata"
          }
        }
      ],
      "blockhash": "00000000000001b5869666b742b4f16c3c0139e195fee972ac1ec5dbb37bfa58",
      "confirmations": 2,
      "time": 1532504593,
      "blocktime": 1532504593
    },
    "error": null,
    "id": null
  },
  {
    "result": {
      "hex": "02000000015578d2812fdd37ff572b0ecd29908a76b11958d69e70cb7eecd9b6bc505e4ed6000000006b483045022100c56e531d41f2d9a718d892efebb766b0c2cec94efc21c8bb7e45ac053bb63b200220352e1022f02c7b80e3ac7241bcaf510e2a9ca1b7068f420b2e9e14a5794ef16841210319d24693741d05064fddec0eb0e15e2b043efff058e2804ec21b7b5488e7cacefeffffff0280b2e60e0000000017a9143c2acceb7d9b54eb6f8ccb62a93882de900f53678700dffa02000000001976a914973dfa8c3d6136867ab42d549f652264db0465b188acd20c1300",
      "txid": "45adbf46ce2aaf9ab92509c02909a0ce20b5b6b48c470756c3a50a164754147e",
      "hash": "45adbf46ce2aaf9ab92509c02909a0ce20b5b6b48c470756c3a50a164754147e",
      "size": 224,
      "version": 2,
      "locktime": 1248466,
      "vin": [
        {
          "txid": "d64e5e50bcb6d9ec7ecb709ed65819b1768a9029cd0e2b57ff37dd2f81d27855",
          "vout": 0,
          "scriptSig": {
            "asm": "3045022100c56e531d41f2d9a718d892efebb766b0c2cec94efc21c8bb7e45ac053bb63b200220352e1022f02c7b80e3ac7241bcaf510e2a9ca1b7068f420b2e9e14a5794ef168[ALL|FORKID] 0319d24693741d05064fddec0eb0e15e2b043efff058e2804ec21b7b5488e7cace",
            "hex": "483045022100c56e531d41f2d9a718d892efebb766b0c2cec94efc21c8bb7e45ac053bb63b200220352e1022f02c7b80e3ac7241bcaf510e2a9ca1b7068f420b2e9e14a5794ef16841210319d24693741d05064fddec0eb0e15e2b043efff058e2804ec21b7b5488e7cace"
          },
          "sequence": 4294967294
        }
      ],
      "vout": [
        {
          "value": 2.50000000,
          "n": 0,
          "scriptPubKey": {
            "asm": "OP_HASH160 3c2acceb7d9b54eb6f8ccb62a93882de900f5367 OP_EQUAL",
            "hex": "a9143c2acceb7d9b54eb6f8ccb62a93882de900f536787",
            "reqSigs": 1,
            "type": "scripthash",
            "addresses": [
              "bchtest:pq7z4n8t0kd4f6m03n9k92fcst0fqr6nvunqjc9hq9"
            ]
          }
        },
        {
          "value": 0.49995520,
          "n": 1,
          "scriptPubKey": {
            "asm": "OP_DUP OP_HASH160 973dfa8c3d6136867ab42d549f652264db0465b1 OP_EQUALVERIFY OP_CHECKSIG",
            "hex": "76a914973dfa8c3d6136867ab42d549f652264db0465b188ac",
            "reqSigs": 1,
            "type": "pubkeyhash",
            "addresses": [
              "bchtest:qztnm75v84sndpn6ksk4f8m9yfjdkpr9ky7ggeqem8"
            ]
          }
        }
      ],
      "blockhash": "00000000000001b5869666b742b4f16c3c0139e195fee972ac1ec5dbb37bfa58",
      "confirmations": 2,
      "time": 1532504593,
      "blocktime": 1532504593
    },
    "error": null,
    "id": null
  },
  {
    "result": {
      "hex": "01000000010000000000000000000000000000000000000000000000000000000000000000ffffffff3903d40c130004222b585b04b30f620e0cff3f869f6a18010000000000284d696e65642062792042572e434f4d290b2f3142573120506f6f6c2fffffffff0227495309000000001976a9146dd034641ff426e75ff5eb035877dc6b4afb68cf88ac0000000000000000266a24aa21a9edfc1aabe9cda352a6392dd712e9f9f3288ec85fd550e345b9117306b60b8e5cd000000000",
      "txid": "1829a110f4c084347017909605b5db58308187b69b5d2d9d206bbe3e60cb0669",
      "hash": "1829a110f4c084347017909605b5db58308187b69b5d2d9d206bbe3e60cb0669",
      "size": 189,
      "version": 1,
      "locktime": 0,
      "vin": [
        {
          "coinbase": "03d40c130004222b585b04b30f620e0cff3f869f6a18010000000000284d696e65642062792042572e434f4d290b2f3142573120506f6f6c2f",
          "sequence": 4294967295
        }
      ],
      "vout": [
        {
          "value": 1.56453159,
          "n": 0,
          "scriptPubKey": {
            "asm": "OP_DUP OP_HASH160 6dd034641ff426e75ff5eb035877dc6b4afb68cf OP_EQUALVERIFY OP_CHECKSIG",
            "hex": "76a9146dd034641ff426e75ff5eb035877dc6b4afb68cf88ac",
            "reqSigs": 1,
            "type": "pubkeyhash",
            "addresses": [
              "bchtest:qpkaqdryrl6zde6l7h4sxkrhm34547mgeupfj35fxn"
            ]
          }
        },
        {
          "value": 0.00000000,
          "n": 1,
          "scriptPubKey": {
            "asm": "OP_RETURN aa21a9edfc1aabe9cda352a6392dd712e9f9f3288ec85fd550e345b9117306b60b8e5cd0",
            "hex": "6a24aa21a9edfc1aabe9cda352a6392dd712e9f9f3288ec85fd550e345b9117306b60b8e5cd0",
            "type": "nulldata"
          }
        }
      ],
      "blockhash": "000000000000007fa19c9112d7f7e47488075757773afc10697850250ded85a8",
      "confirmations": 1,
      "time": 1532504866,
      "blocktime": 1532504866
    },
    "error": null,
    "id": null
  },
  {
    "result": {
      "hex": "02000000019eb5da9cc7d34a09c7bcf704ed4f9d83a848c05c4db4f5dcf65024690592ca09000000006b483045022100c06be03e9ae3f2ac6c8689b8d29db7661b468661bb4c93d1197686fc83b3b3ed0220391a6127a20701e003783f7563580355936f5d358e55ca641aed86c8321a741f412103b0e436e0a0b81cf24842c8c18eed39af618e798470637c6184aefb93fff757adffffffff02803c912f000000001976a914f3340f3565ab7a35aae747384376022b123f21a688ac0000000000000000a66a4ca30877686300000033010001000000004163636f6d6d6f646174696f6e20616e6420666f6f642073657276696365206163746976697469657300466f6f6420616e64206265766572616765207365727669636520616374697669746965730071736875616963726f7700687474703a2f2f7777772e62616964752e636f6d0068656c6c6f206a61792063726f77000000000100000000000004bc000000005b95b004140a00000000",
      "txid": "570fd444a7dbd0d42b54899009563db7c342ef943708f0ce8cbe3f944ffbe27f",
      "hash": "570fd444a7dbd0d42b54899009563db7c342ef943708f0ce8cbe3f944ffbe27f",
      "size": 367,
      "version": 2,
      "locktime": 0,
      "vin": [
        {
          "txid": "09ca9205692450f6dcf5b44d5cc048a8839d4fed04f7bcc7094ad3c79cdab59e",
          "vout": 0,
          "scriptSig": {
            "asm": "3045022100c06be03e9ae3f2ac6c8689b8d29db7661b468661bb4c93d1197686fc83b3b3ed0220391a6127a20701e003783f7563580355936f5d358e55ca641aed86c8321a741f[ALL|FORKID] 03b0e436e0a0b81cf24842c8c18eed39af618e798470637c6184aefb93fff757ad",
            "hex": "483045022100c06be03e9ae3f2ac6c8689b8d29db7661b468661bb4c93d1197686fc83b3b3ed0220391a6127a20701e003783f7563580355936f5d358e55ca641aed86c8321a741f412103b0e436e0a0b81cf24842c8c18eed39af618e798470637c6184aefb93fff757ad"
          },
          "sequence": 4294967295
        }
      ],
      "vout": [
        {
          "value": 7.98047360,
          "n": 0,
          "scriptPubKey": {
            "asm": "OP_DUP OP_HASH160 f3340f3565ab7a35aae747384376022b123f21a6 OP_EQUALVERIFY OP_CHECKSIG",
            "hex": "76a914f3340f3565ab7a35aae747384376022b123f21a688ac",
            "reqSigs": 1,
            "type": "pubkeyhash",
            "addresses": [
              "bchtest:qrengre4vk4h5dd2uarnssmkqg43y0ep5cn7lf2w0w"
            ]
          }
        },
        {
          "value": 0.00000000,
          "n": 1,
          "scriptPubKey": {
            "asm": "OP_RETURN 0877686300000033010001000000004163636f6d6d6f646174696f6e20616e6420666f6f642073657276696365206163746976697469657300466f6f6420616e64206265766572616765207365727669636520616374697669746965730071736875616963726f7700687474703a2f2f7777772e62616964752e636f6d0068656c6c6f206a61792063726f77000000000100000000000004bc000000005b95b004140a",
            "hex": "6a4ca30877686300000033010001000000004163636f6d6d6f646174696f6e20616e6420666f6f642073657276696365206163746976697469657300466f6f6420616e64206265766572616765207365727669636520616374697669746965730071736875616963726f7700687474703a2f2f7777772e62616964752e636f6d0068656c6c6f206a61792063726f77000000000100000000000004bc000000005b95b004140a",
            "type": "nulldata"
          }
        }
      ],
      "blockhash": "000000000000007fa19c9112d7f7e47488075757773afc10697850250ded85a8",
      "confirmations": 1,
      "time": 1532504866,
      "blocktime": 1532504866
    },
    "error": null,
    "id": null
  }
]