[
  {
    "result": {
      "hex": "0200000001401d06d6970ebc57b8264bbe8d5f4238b20654dc44264d482bd7a93f00407de801000000fdfd0000473044022056950d3f75ced921a50f473262b7198ff7be65553f2b67ce7b98fd2f0ae326f002203db8b5bf0d20786eff8b29e3f5f6060d783a9e5b4cb9e6152a60d74046c2715641483045022100cd319939ef3e96caaab972ddbcd1312cd6a01a7621bf851f7ae16e7a05206f6902205a4f400f00ca95f76524a8c3327f0cafc7a45bcac9a45c5d7375673db6022dbc414c695221025e230f44f1c5444c3bc67932ffa2faf87e805b23af78b2a8366933bdf0f0fa1921033550239cbf727064a196a0bd7a333292c6f7051243c3c19dcb08a577f40545d7210380e44ea5b05499b59022777a0e3b8a7e545116a7bddfdb0b432ef4fc1ba5e3fb53aeffffffff0200c2eb0b000000001976a9142eeb5bfec17f0ccc818b84756ef1c4e0c354c10988acaa99e60e0000000017a914e0429705a6730342f8b84994fafbd787b75c53dc87d20c1300",
      "txid": "5d1037991225ab4c9759dbde71c2450f5c19b18c1715b895197475ba9a986e1e",
      "hash": "5d1037991225ab4c9759dbde71c2450f5c19b18c1715b895197475ba9a986e1e",
      "size": 372,
      "version": 2,
      "locktime": 1248466,
      "vin": [
        {
          "txid": "e87d40003fa9d72b484d2644dc5406b238425f8dbe4b26b857bc0e97d6061d40",
          "vout": 1,
          "scriptSig": {
            "asm": "0 3044022056950d3f75ced921a50f473262b7198ff7be65553f2b67ce7b98fd2f0ae326f002203db8b5bf0d20786eff8b29e3f5f6060d783a9e5b4cb9e6152a60d74046c27156[ALL|FORKID] 3045022100cd319939ef3e96caaab972ddbcd1312cd6a01a7621bf851f7ae16e7a05206f6902205a4f400f00ca95f76524a8c3327f0cafc7a45bcac9a45c5d7375673db6022dbc[ALL|FORKID] 5221025e230f44f1c5444c3bc67932ffa2faf87e805b23af78b2a8366933bdf0f0fa1921033550239cbf727064a196a0bd7a333292c6f7051243c3c19dcb08a577f40545d7210380e44ea5b05499b59022777a0e3b8a7e545116a7bddfdb0b432ef4fc1ba5e3fb53ae",
            "hex": "00473044022056950d3f75ced921a50f473262b7198ff7be65553f2b67ce7b98fd2f0ae326f002203db8b5bf0d20786eff8b29e3f5f6060d783a9e5b4cb9e6152a60d74046c2715641483045022100cd319939ef3e96caaab972ddbcd1312cd6a01a7621bf851f7ae16e7a05206f6902205a4f400f00ca95f76524a8c3327f0cafc7a45bcac9a45c5d7375673db6022dbc414c695221025e230f44f1c5444c3bc67932ffa2faf87e805b23af78b2a8366933bdf0f0fa1921033550239cbf727064a196a0bd7a333292c6f7051243c3c19dcb08a577f40545d7210380e44ea5b05499b59022777a0e3b8a7e545116a7bddfdb0b432ef4fc1ba5e3fb53ae"
          },
          "sequence": 4294967295
        }
      ],
      "vout": [
        {
          "value": 2.00000000,
          "n": 0,
          "scriptPubKey": {
            "asm": "OP_DUP OP_HASH160 2eeb5bfec17f0ccc818b84756ef1c4e0c354c109 OP_EQUALVERIFY OP_CHECKSIG",
            "hex": "76a9142eeb5bfec17f0ccc818b84756ef1c4e0c354c10988ac",
            "reqSigs": 1,
            "type": "pubkeyhash",
            "addresses": [
              "bchtest:qqhwkkl7c9lsenyp3wz82mh3cnsvx4xppy08e2m9ta"
            ]
          }
        },
        {
          "value": 2.49993642,
          "n": 1,
          "scriptPubKey": {
            "asm": "OP_HASH160 e0429705a6730342f8b84994fafbd787b75c53dc OP_EQUAL",
            "hex": "a914e0429705a6730342f8b84994fafbd787b75c53dc87",
            "reqSigs": 1,
            "type": "scripthash",
            "addresses": [
              "bchtest:prsy99c95eesxshchpyef7hm67rmwhznms5cre2lq5"
            ]
          }
        }
      ],
      "blockhash": "00000000000002a348a839504f1d69cca6b7a5b5edb8411a77105411d114fbe5",
      "confirmations": 3,
      "time": 1532504292,
      "blocktime": 1532504292
    },
    "error": null,
    "id": null
  },
  {
    "result": {
      "hex": "02000000021e6e989aba75741995b815178cb1195c0f45c271dedb59974cab25129937105d01000000fdfd0000473044022003bfdf4dccfcb991e63a3bc1c1fbf3a3ba54167cf1723e75bcf70e9c54389c72022014764af310c3954f0e2ead2d570bb33471f1859489dcc595b4bfd6f6fcebffb541483045022100ca053dd6fd6f6efa66ecbef66db0f4d3b3d068930ab28cdf0e5870fa7a5bb83a02201daafec243a89201ad54aab09c0263ec47357d96049a257cbfa06d82093805e7414c69522102eb46d8cdea9ac3a9c28f6aa23b75f2c5dbf7768ca6ace9b874d9448688a8ae812102224f3754250b59da2d26724739f4b8fbf7de86ef23ed96c7ff84b35a1f3e41aa210361fa154fa4dc04272a9a168da46428f0a988ea0ddada81f323c8a354bd43e80c53aeffffffffd90a9cc4b00c37ec7f80225f7ad5ef2f956bc3b51c1d5229c976c948e76b9d1901000000fc0047304402203f021431b894b9954d347fe60627ef41e760c74832e230f7a20b767e1642be46022067d1e14daa0469c72f829c5eec28a567144b46fb81369296c93094bc0cd02b4d414730440220237b1366e66149de62305d1de4d222bdf3cea97a5450165e40c466cbf5a666f6022024a4f67b908313a8ed0b3c50666e2292b69d9ef5638fbe08daf89e83dd380f30414c695221020551b68170f64c6065f24a5dfd78e3e047ec9f314755d194632ca34aa3a1726c2103e3ec1d9869e8cd759ffbaf8a71f083747eabef1d6f2f027987408376237fd08421035ca44e694195dce3e1f8508378692ce4c1a433d7cbf2b590ae049e77360ad89f53aeffffffff0200a3e111000000001976a9142eeb5bfec17f0ccc818b84756ef1c4e0c354c10988ac847ee60e0000000017a91481d953f616b7e41ddad77322c1a6f87e8887357887d20c1300",
      "txid": "d64e5e50bcb6d9ec7ecb709ed65819b1768a9029cd0e2b57ff37dd2f81d27855",
      "hash": "d64e5e50bcb6d9ec7ecb709ed65819b1768a9029cd0e2b57ff37dd2f81d27855",
      "size": 665,
      "version": 2,
      "locktime": 1248466,
      "vin": [
        {
          "txid": "5d1037991225ab4c9759dbde71c2450f5c19b18c1715b895197475ba9a986e1e",
          "vout": 1,
          "scriptSig": {
            "asm": "0 3044022003bfdf4dccfcb991e63a3bc1c1fbf3a3ba54167cf1723e75bcf70e9c54389c72022014764af310c3954f0e2ead2d570bb33471f1859489dcc595b4bfd6f6fcebffb5[ALL|FORKID] 3045022100ca053dd6fd6f6efa66ecbef66db0f4d3b3d068930ab28cdf0e5870fa7a5bb83a02201daafec243a89201ad54aab09c0263ec47357d96049a257cbfa06d82093805e7[ALL|FORKID] 522102eb46d8cdea9ac3a9c28f6aa23b75f2c5dbf7768ca6ace9b874d9448688a8ae812102224f3754250b59da2d26724739f4b8fbf7de86ef23ed96c7ff84b35a1f3e41aa210361fa154fa4dc04272a9a168da46428f0a988ea0ddada81f323c8a354bd43e80c53ae",
            "hex": "00473044022003bfdf4dccfcb991e63a3bc1c1fbf3a3ba54167cf1723e75bcf70e9c54389c72022014764af310c3954f0e2ead2d570bb33471f1859489dcc595b4bfd6f6fcebffb541483045022100ca053dd6fd6f6efa66ecbef66db0f4d3b3d068930ab28cdf0e5870fa7a5bb83a02201daafec243a89201ad54aab09c0263ec47357d96049a257cbfa06d82093805e7414c69522102eb46d8cdea9ac3a9c28f6aa23b75f2c5dbf7768ca6ace9b874d9448688a8ae812102224f3754250b59da2d26724739f4b8fbf7de86ef23ed96c7ff84b35a1f3e41aa210361fa154fa4dc04272a9a168da46428f0a988ea0ddada81f323c8a354bd43e80c53ae"
          },
          "sequence": 4294967295
        },
        {
          "txid": "199d6be748c976c929521d1cb5c36b952fefd57a5f22807fec370cb0c49c0ad9",
          "vout": 1,
          "scriptSig": {
            "asm": "0 304402203f021431b894b9954d347fe60627ef41e760c74832e230f7a20b767e1642be46022067d1e14daa0469c72f829c5eec28a567144b46fb81369296c93094bc0cd02b4d[ALL|FORKID] 30440220237b1366e66149de62305d1de4d222bdf3cea97a5450165e40c466cbf5a666f6022024a4f67b908313a8ed0b3c50666e2292b69d9ef5638fbe08daf89e83dd380f30[ALL|FORKID] 5221020551b68170f64c6065f24a5dfd78e3e047ec9f314755d194632ca34aa3a1726c2103e3ec1d9869e8cd759ffbaf8a71f083747eabef1d6f2f027987408376237fd08421035ca44e694195dce3e1f8508378692ce4c1a433d7cbf2b590ae049e77360ad89f53ae",
            "hex": "0047304402203f021431b894b9954d347fe60627ef41e760c74832e230f7a20b767e1642be46022067d1e14daa0469c72f829c5eec28a567144b46fb81369296c93094bc0cd02b4d414730440220237b1366e66149de62305d1de4d222bdf3cea97a5450165e40c466cbf5a666f6022024a4f67b908313a8ed0b3c50666e2292b69d9ef5638fbe08daf89e83dd380f30414c695221020551b68170f64c6065f24a5dfd78e3e047ec9f314755d194632ca34aa3a1726c2103e3ec1d9869e8cd759ffbaf8a71f083747eabef1d6f2f027987408376237fd08421035ca44e694195dce3e1f8508378692ce4c1a433d7cbf2b590ae049e77360ad89f53ae"
          },
          "sequence": 4294967295
        }
      ],
      "vout": [
        {
          "value": 3.00000000,
          "n": 0,
          "scriptPubKey": {
            "asm": "OP_DUP OP_HASH160 2eeb5bfec17f0ccc818b84756ef1c4e0c354c109 OP_EQUALVERIFY OP_CHECKSIG",
            "hex": "76a9142eeb5bfec17f0ccc818b84756ef1c4e0c354c10988ac",
            "reqSigs": 1,
            "type": "pubkeyhash",
            "addresses": [
              "bchtest:qqhwkkl7c9lsenyp3wz82mh3cnsvx4xppy08e2m9ta"
            ]
          }
        },
        {
          "value": 2.49986692,
          "n": 1,
          "scriptPubKey": {
            "asm": "OP_HASH160 81d953f616b7e41ddad77322c1a6f87e88873578 OP_EQUAL",
            "hex": "a91481d953f616b7e41ddad77322c1a6f87e8887357887",
            "reqSigs": 1,
            "type": "scripthash",
            "addresses": [
              "bchtest:pzqaj5lkz6m7g8w66aej9sdxlplg3pe40qf4m4asf8"
            ]
          }
        }
      ],
      "blockhash": "00000000000002a348a839504f1d69cca6b7a5b5edb8411a77105411d114fbe5",
      "confirmations": 3,
      "time": 1532504292,
      "blocktime": 1532504292
    },
    "error": null,
    "id": null
  },
  {
    "result": {
      "hex": "020000000358e9516601f5235c3e44c726cf5b1fc2b7052bd7badb219eab29216cd9929641000000006b483045022100f57d959db9951d32f13c889860bee06749dbf1b856fc2f20a69ff25a93328e1a02201e6de20ef61d7fddd3240c34f70ba4a5c5e14f21126c9ca4e9e97a28273f3105412103d5537e26eb03b007f2b51273449fcd33d26c9a524b4e85544398f372e8e32e93ffffffff4467799c9c7741d0851bddb08fa8ee83ac2765055710e0da6b6c68bdc866df9a010000006b483045022100960fc2482330e0c025095c367ca08f8498eafe4ac23b6d1a8bb45e72b6ae6ddf022057dd178cb1b64ca7477cdd680bf29d781d75595a0e420f13d085f6c33b9c4b4541210323e8acdbbd8cf5780fc7af2ce313eff1fb69f976d479e068257801ffcfba205cffffffff08172d734024a767d09b16971e7d83404c811a4d3e970f5039b9909abf96a9f2010000006b483045022100cbffeb13d2b0729beb70cab2c6fd103489fd0cbad029be063816b0914364fde60220605187240bd26dd48ea1eb08f06184840cf17d4dd41b8a9508048035cc7f150241210323e8acdbbd8cf5780fc7af2ce313eff1fb69f976d479e068257801ffcfba205cffffffff0200e1f505000000001976a914bee01871d621f9e4616da1cb0580a045f675c70d88acd62a6e06000000001976a9143923486f9fcfe876520826bf47d06b84357a6a6a88ac00000000",
      "txid": "2e3310737e6e720854b8bed79197081c6c0d52190a17115da6480f03c9986836",
      "hash": "2e3310737e6e720854b8bed79197081c6c0d52190a17115da6480f03c9986836",
      "size": 522,
      "version": 2,
      "locktime": 0,
      "vin": [
        {
          "txid": "419692d96c2129ab9e21dbbad72b05b7c21f5bcf26c7443e5c23f5016651e958",
          "vout": 0,
          "scriptSig": {
            "asm": "3045022100f57d959db9951d32f13c889860bee06749dbf1b856fc2f20a69ff25a93328e1a02201e6de20ef61d7fddd3240c34f70ba4a5c5e14f21126c9ca4e9e97a28273f3105[ALL|FORKID] 03d5537e26eb03b007f2b51273449fcd33d26c9a524b4e85544398f372e8e32e93",
            "hex": "483045022100f57d959db9951d32f13c889860bee06749dbf1b856fc2f20a69ff25a93328e1a02201e6de20ef61d7fddd3240c34f70ba4a5c5e14f21126c9ca4e9e97a28273f3105412103d5537e26eb03b007f2b51273449fcd33d26c9a524b4e85544398f372e8e32e93"
          },
          "sequence": 4294967295
        },
        {
          "txid": "9adf66c8bd686c6bdae01057056527ac83eea88fb0dd1b85d041779c9c796744",
          "vout": 1,
          "scriptSig": {
            "asm": "3045022100960fc2482330e0c025095c367ca08f8498eafe4ac23b6d1a8bb45e72b6ae6ddf022057dd178cb1b64ca7477cdd680bf29d781d75595a0e420f13d085f6c33b9c4b45[ALL|FORKID] 0323e8acdbbd8cf5780fc7af2ce313eff1fb69f976d479e068257801ffcfba205c",
            "hex": "483045022100960fc2482330e0c025095c367ca08f8498eafe4ac23b6d1a8bb45e72b6ae6ddf022057dd178cb1b64ca7477cdd680bf29d781d75595a0e420f13d085f6c33b9c4b4541210323e8acdbbd8cf5780fc7af2ce313eff1fb69f976d479e068257801ffcfba205c"
          },
          "sequence": 4294967295
        },
        {
          "txid": "f2a996bf9a90b939500f973e4d1a814c40837d1e97169bd067a72440732d1708",
          "vout": 1,
          "scriptSig": {
            "asm": "3045022100cbffeb13d2b0729beb70cab2c6fd103489fd0cbad029be063816b0914364fde60220605187240bd26dd48ea1eb08f06184840cf17d4dd41b8a9508048035cc7f1502[ALL|FORKID] 0323e8acdbbd8cf5780fc7af2ce313eff1fb69f976d479e068257801ffcfba205c",
            "hex": "483045022100cbffeb13d2b0729beb70cab2c6fd103489fd0cbad029be063816b0914364fde60220605187240bd26dd48ea1eb08f06184840cf17d4dd41b8a9508048035cc7f150241210323e8acdbbd8cf5780fc7af2ce313eff1fb69f976d479e068257801ffcfba205c"
          },
          "sequence": 4294967295
        }
      ],
      "vout": [
        {
          "value": 1.00000000,
          "n": 0,
          "scriptPubKey": {
            "asm": "OP_DUP OP_HASH160 bee01871d621f9e4616da1cb0580a045f675c70d OP_EQUALVERIFY OP_CHECKSIG",
            "hex": "76a914bee01871d621f9e4616da1cb0580a045f675c70d88ac",
            "reqSigs": 1,
            "type": "pubkeyhash",
            "addresses": [
              "bchtest:qzlwqxr36cslnerpdksukpvq5pzlvaw8p5lpu7kepj"
            ]
          }
        },
        {
          "value": 1.07883222,
          "n": 1,
          "scriptPubKey": {
            "asm": "OP_DUP OP_HASH160 3923486f9fcfe876520826bf47d06b84357a6a6a OP_EQUALVERIFY OP_CHECKSIG",
            "hex": "76a9143923486f9fcfe876520826bf47d06b84357a6a6a88ac",
            "reqSigs": 1,
            "type": "pubkeyhash",
            "addresses": [
              "bchtest:qqujxjr0nl87sajjpqnt737sdwzr27n2dgf85m397z"
            ]
          }
        }
      ],
      "blockhash": "00000000000002a348a839504f1d69cca6b7a5b5edb8411a77105411d114fbe5",
      "confirmations": 3,
      "time": 1532504292,
      "blocktime": 1532504292
    },
    "error": null,
    "id": null
  },
  {
    "result": {
      "hex": "0100000001fbd64c58ecff021a8b928d0f930dd7acaa93e0b91c0258370d5c15d05a4d26fa010000006b483045022100d5861aab6c027cf5b58260cc3a64ba0354e08b1ee633adc05725972ced45210b022030c80f1f34391f4fb038f144cf28b9c912db1ca9c4743f720348145a3395edaa412103ee5a80f8972a4324fec2b2fb8c620162e4ab255122271dfb14defdc57da3968dffffffff02ece13100000000001976a914c6846dc84a3abba8138833dd90607791f5e961ae88aced654d0f000000001976a91460a92f8a0a3ffaa2d43e50f9a0f6b270f5121a2f88ac00000000",
      "txid": "a4ec02cc5f88ca999ac5c8c392bb8d746810a977c6489a8ac1ae44ec322bb0ac",
      "hash": "a4ec02cc5f88ca999ac5c8c392bb8d746810a977c6489a8ac1ae44ec322bb0ac",
      "size": 226,
      "version": 1,
      "locktime": 0,
      "vin": [
        {
          "txid": "fa264d5ad0155c0d3758021cb9e093aaacd70d930f8d928b1a02ffec584cd6fb",
          "vout": 1,
          "scriptSig": {
            "asm": "3045022100d5861aab6c027cf5b58260cc3a64ba0354e08b1ee633adc05725972ced45210b022030c80f1f34391f4fb038f144cf28b9c912db1ca9c4743f720348145a3395edaa[ALL|FORKID] 03ee5a80f8972a4324fec2b2fb8c620162e4ab255122271dfb14defdc57da3968d",
            "hex": "483045022100d5861aab6c027cf5b58260cc3a64ba0354e08b1ee633adc05725972ced45210b022030c80f1f34391f4fb038f144cf28b9c912db1ca9c4743f720348145a3395edaa412103ee5a80f8972a4324fec2b2fb8c620162e4ab255122271dfb14defdc57da3968d"
          },
          "sequence": 4294967295
        }
      ],
      "vout": [
        {
          "value": 0.03269100,
          "n": 0,
          "scriptPubKey": {
            "asm": "OP_DUP OP_HASH160 c6846dc84a3abba8138833dd90607791f5e961ae OP_EQUALVERIFY OP_CHECKSIG",
            "hex": "76a914c6846dc84a3abba8138833dd90607791f5e961ae88ac",
            "reqSigs": 1,
            "type": "pubkeyhash",
            "addresses": [
              "bchtest:qrrggmwgfgath2qn3qeamyrqw7glt6tp4c3gv7pqmm"
            ]
          }
        },
        {
          "value": 2.56730605,
          "n": 1,
          "scriptPubKey": {
            "asm": "OP_DUP OP_HASH160 60a92f8a0a3ffaa2d43e50f9a0f6b270f5121a2f OP_EQUALVERIFY OP_CHECKSIG",
            "hex": "76a91460a92f8a0a3ffaa2d43e50f9a0f6b270f5121a2f88ac",
            "reqSigs": 1,
            "type": "pubkeyhash",
            "addresses": [
              "bchtest:qps2jtu2pgll4gk58eg0ng8kkfc02ys69udu67euz6"
            ]
          }
        }
      ],
      "blockhash": "00000000000002a348a839504f1d69cca6b7a5b5edb8411a77105411d114fbe5",
      "confirmations": 3,
      "time": 1532504292,
      "blocktime": 1532504292
    },
    "error": null,
    "id": null
  },
  {
    "result": {
      "hex": "0200000003032c3e030b43f9b360c6687637c69312b8f7db0644be46067cba4f2367a7080f020000006b483045022100d99a62a8cdc27013a8dd10609c2a973e4ee66d9fb9a48ce68a034fb04eb91e5602206f73fd24cc4062f5b49623b219e3fc45ff748a4f27e8fd214cae0576c5af3503412102494aa7879d9afa6e2e2db13eea8d2874b6a92ba5f663fab3369b96ddc939b86bffffffff89409f3d21e726addf5b27dc6d16faab0bd8cfbece776acb9b9214d851ca9c0f020000006b48304502210099b3b193754ed8beda73408ff328ab9c329ec0e6d490f0d69d5f6e978d2703cc022025b1ba0290a043c05df6f6a91e8507cdea8914175295dd73245c2fd49418e6fc412102494aa7879d9afa6e2e2db13eea8d2874b6a92ba5f663fab3369b96ddc939b86bffffffffc5ce586277945f6391250ab2a03999b9af0b7dcb43be867098e49cf32f5fbd46000000006a47304402204a03498b1b770812c265dc844d97e2c0044e661be406b4110929cffdbab7183502202bfa51a51d4bec2e80d7fee8bb58154332b4e618e6577440715f00792af82adf412102494aa7879d9afa6e2e2db13eea8d2874b6a92ba5f663fab3369b96ddc939b86bffffffff02a4c3181f000000001976a914629d5d73d5b6eb162f7b00fc0598f376f0d985d888ac00000000000000000e6a0c08776863000000350000003500000000",
      "txid": "d128bd07edc25614681d16ef108d4e4a15dd92e098293aa7c908273b4e2c9b34",
      "hash": "d128bd07edc25614681d16ef108d4e4a15dd92e098293aa7c908273b4e2c9b34",
      "size": 510,
      "version": 2,
      "locktime": 0,
      "vin": [
        {
          "txid": "0f08a767234fba7c0646be4406dbf7b81293c6377668c660b3f9430b033e2c03",
          "vout": 2,
          "scriptSig": {
            "asm": "3045022100d99a62a8cdc27013a8dd10609c2a973e4ee66d9fb9a48ce68a034fb04eb91e5602206f73fd24cc4062f5b49623b219e3fc45ff748a4f27e8fd214cae0576c5af3503[ALL|FORKID] 02494aa7879d9afa6e2e2db13eea8d2874b6a92ba5f663fab3369b96ddc939b86b",
            "hex": "483045022100d99a62a8cdc27013a8dd10609c2a973e4ee66d9fb9a48ce68a034fb04eb91e5602206f73fd24cc4062f5b49623b219e3fc45ff748a4f27e8fd214cae0576c5af3503412102494aa7879d9afa6e2e2db13eea8d2874b6a92ba5f663fab3369b96ddc939b86b"
          },
          "sequence": 4294967295
        },
        {
          "txid": "0f9cca51d814929bcb6a77cebecfd80babfa166ddc275bdfad26e7213d9f4089",
          "vout": 2,
          "scriptSig": {
            "asm": "304502210099b3b193754ed8beda73408ff328ab9c329ec0e6d490f0d69d5f6e978d2703cc022025b1ba0290a043c05df6f6a91e8507cdea8914175295dd73245c2fd49418e6fc[ALL|FORKID] 02494aa7879d9afa6e2e2db13eea8d2874b6a92ba5f663fab3369b96ddc939b86b",
            "hex": "48304502210099b3b193754ed8beda73408ff328ab9c329ec0e6d490f0d69d5f6e978d2703cc022025b1ba0290a043c05df6f6a91e8507cdea8914175295dd73245c2fd49418e6fc412102494aa7879d9afa6e2e2db13eea8d2874b6a92ba5f663fab3369b96ddc939b86b"
          },
          "sequence": 4294967295
        },
        {
          "txid": "46bd5f2ff39ce4987086be43cb7d0bafb99939a0b20a2591635f94776258cec5",
          "vout": 0,
          "scriptSig": {
            "asm": "304402204a03498b1b770812c265dc844d97e2c0044e661be406b4110929cffdbab7183502202bfa51a51d4bec2e80d7fee8bb58154332b4e618e6577440715f00792af82adf[ALL|FORKID] 02494aa7879d9afa6e2e2db13eea8d2874b6a92ba5f663fab3369b96ddc939b86b",
            "hex": "47304402204a03498b1b770812c265dc844d97e2c0044e661be406b4110929cffdbab7183502202bfa51a51d4bec2e80d7fee8bb58154332b4e618e6577440715f00792af82adf412102494aa7879d9afa6e2e2db13eea8d2874b6a92ba5f663fab3369b96ddc939b86b"
          },
          "sequence": 4294967295
        }
      ],
      "vout": [
        {
          "value": 5.21716644,
          "n": 0,
          "scriptPubKey": {
            "asm": "OP_DUP OP_HASH160 629d5d73d5b6eb162f7b00fc0598f376f0d985d8 OP_EQUALVERIFY OP_CHECKSIG",
            "hex": "76a914629d5d73d5b6eb162f7b00fc0598f376f0d985d888ac",
            "reqSigs": 1,
            "type": "pubkeyhash",
            "addresses": [
              "bchtest:qp3f6htn6kmwk9300vq0cpvc7dm0pkv9mqrzzwqr8k"
            ]
          }
        },
        {
          "value": 0.00000000,
          "n": 1,
          "scriptPubKey": {
            "asm": "OP_RETURN 087768630000003500000035",
            "hex": "6a0c087768630000003500000035",
            "type": "nulldata"
          }
        }
      ],
      "blockhash": "00000000000001b5869666b742b4f16c3c0139e195fee972ac1ec5dbb37bfa58",
      "confirmations": 8,
      "time": 1532504593,
      "blocktime": 1532504593
    },
    "error": null,
    "id": null
  },
  {
    "result": {
      "hex": "0200000002c5ce586277945f6391250ab2a03999b9af0b7dcb43be867098e49cf32f5fbd46020000006a4730440220284d60e1fa999191dda627f56226686b567f6febe4f64df62bf73788bcdd122d02202c47ccb4a0da38b5bed80ae3bee5f9efdb18f136a2d2330d23867482d6309eea412102494aa7879d9afa6e2e2db13eea8d2874b6a92ba5f663fab3369b96ddc939b86bffffffff485798a0205cd6965c86b5bd50db1f1233ec15e9b2e2cc2b4effc6f4538e0291000000006b483045022100bf551cd2b818f7554ced954892b8d0c39b5f47c83074b1179de8b70725caaa02022007587a07ad26475ee39ea95ee42afb916df05cb28ec06f8b90bac1fe24dad23d412102494aa7879d9afa6e2e2db13eea8d2874b6a92ba5f663fab3369b96ddc939b86bffffffff02088d8818000000001976a914629d5d73d5b6eb162f7b00fc0598f376f0d985d888ac00000000000000000e6a0c08776863000000350000003500000000",
      "txid": "d4eec66f4c633ddd7a4e4b012572302bcf0926bb398c84987a097dd9eb4004b8",
      "hash": "d4eec66f4c633ddd7a4e4b012572302bcf0926bb398c84987a097dd9eb4004b8",
      "size": 362,
      "version": 2,
      "locktime": 0,
      "vin": [
        {
          "txid": "46bd5f2ff39ce4987086be43cb7d0bafb99939a0b20a2591635f94776258cec5",
          "vout": 2,
          "scriptSig": {
            "asm": "30440220284d60e1fa999191dda627f56226686b567f6febe4f64df62bf73788bcdd122d02202c47ccb4a0da38b5bed80ae3bee5f9efdb18f136a2d2330d23867482d6309eea[ALL|FORKID] 02494aa7879d9afa6e2e2db13eea8d2874b6a92ba5f663fab3369b96ddc939b86b",
            "hex": "4730440220284d60e1fa999191dda627f56226686b567f6febe4f64df62bf73788bcdd122d02202c47ccb4a0da38b5bed80ae3bee5f9efdb18f136a2d2330d23867482d6309eea412102494aa7879d9afa6e2e2db13eea8d2874b6a92ba5f663fab3369b96ddc939b86b"
          },
          "sequence": 4294967295
        },
        {
          "txid": "91028e53f4c6ff4e2bcce2b2e915ec33121fdb50bdb5865c96d65c20a0985748",
          "vout": 0,
          "scriptSig": {
            "asm": "3045022100bf551cd2b818f7554ced954892b8d0c39b5f47c83074b1179de8b70725caaa02022007587a07ad26475ee39ea95ee42afb916df05cb28ec06f8b90bac1fe24dad23d[ALL|FORKID] 02494aa7879d9afa6e2e2db13eea8d2874b6a92ba5f663fab3369b96ddc939b86b",
            "hex": "483045022100bf551cd2b818f7554ced954892b8d0c39b5f47c83074b1179de8b70725caaa02022007587a07ad26475ee39ea95ee42afb916df05cb28ec06f8b90bac1fe24dad23d412102494aa7879d9afa6e2e2db13eea8d2874b6a92ba5f663fab3369b96ddc939b86b"
          },
          "sequence": 4294967295
        }
      ],
      "vout": [
        {
          "value": 4.11602184,
          "n": 0,
          "scriptPubKey": {
            "asm": "OP_DUP OP_HASH160 629d5d73d5b6eb162f7b00fc0598f376f0d985d8 OP_EQUALVERIFY OP_CHECKSIG",
            "hex": "76a914629d5d73d5b6eb162f7b00fc0598f376f0d985d888ac",
            "reqSigs": 1,
            "type": "pubkeyhash",
            "addresses": [
              "bchtest:qp3f6htn6kmwk9300vq0cpvc7dm0pkv9mqrzzwqr8k"
            ]
          }
        },
        {
          "value": 0.00000000,
          "n": 1,
          "scriptPubKey": {
            "asm": "OP_RETURN 087768630000003500000035",
            "hex": "6a0c087768630000003500000035",
            "type": "nulldata"
          }
        }
      ],
      "blockhash": "00000000000001b5869666b742b4f16c3c0139e195fee972ac1ec5dbb37bfa58",
      "confirmations": 8,
      "time": 1532504593,
      "blocktime": 1532504593
    },
    "error": null,
    "id": null
  }
]