[
  {
    "result": {
      "hex": "01000000010000000000000000000000000000000000000000000000000000000000000000ffffffff4c03f1f202040bca565b08fabe6d6d745365646f6e2f0d000000680100003d63565641506d6a764e546b6f476a5849010000000000000030000001a90000000d2f6e6f64655374726174756d2f0000000005b174d21a000000001976a914b1582b812799c21c76527a045123ac840190533a88acac230e43000000001976a91454c4297cc9138a63f49626ecf04e49549aeae2ce88ac573a690d000000001976a914c2c29ebc787954ef99d01c5f79115abf7012fb8e88ac573a690d000000001976a914d7b47d4b40a23c389f5a17754d7f60f511c7d0ec88ac573a690d000000001976a914dc3e0793134b081145ec0c67a9c72a7b297df27c88ac00000000",
      "txid": "ee7fa4ad8b7209ca8b5237dfeb49d66305bf125a0e33443dfbbf6700a4834c7c",
      "size": 297,
      "version": 1,
      "locktime": 0,
      "vin": [
        {
          "coinbase": "03f1f202040bca565b08fabe6d6d745365646f6e2f0d000000680100003d63565641506d6a764e546b6f476a5849010000000000000030000001a90000000d2f6e6f64655374726174756d2f",
          "sequence": 0
        }
      ],
      "vout": [
        {
          "value": 4.50000049,
          "valueSat": 450000049,
          "n": 0,
          "scriptPubKey": {
            "asm": "OP_DUP OP_HASH160 b1582b812799c21c76527a045123ac840190533a OP_EQUALVERIFY OP_CHECKSIG",
            "hex": "76a914b1582b812799c21c76527a045123ac840190533a88ac",
            "reqSigs": 1,
            "type": "pubkeyhash",
            "addresses": [
              "ycVA5K3GVovxm77Fz8j55czRPYqzKxgLvW"
            ]
          }
        },
        {
          "value": 11.25000108,
          "valueSat": 1125000108,
          "n": 1,
          "scriptPubKey": {
            "asm": "OP_DUP OP_HASH160 54c4297cc9138a63f49626ecf04e49549aeae2ce OP_EQUALVERIFY OP_CHECKSIG",
            "hex": "76a91454c4297cc9138a63f49626ecf04e49549aeae2ce88ac",
            "reqSigs": 1,
            "type": "pubkeyhash",
            "addresses": [
              "yU3ebtuQa6E4Aoh4AvQNQr2z4v4DtHxdVk"
            ]
          }
        },
        {
          "value": 2.25000023,
          "valueSat": 225000023,
          "n": 2,
          "scriptPubKey": {
            "asm": "OP_DUP OP_HASH160 c2c29ebc787954ef99d01c5f79115abf7012fb8e OP_EQUALVERIFY OP_CHECKSIG",
            "hex": "76a914c2c29ebc787954ef99d01c5f79115abf7012fb8e88ac",
            "reqSigs": 1,
            "type": "pubkeyhash",
            "addresses": [
              "ye5F5rfx44YqvqCpVvi1SfFS4dvqaqyuDr"
            ]
          }
        },
        {
          "value": 2.25000023,
          "valueSat": 225000023,
          "n": 3,
          "scriptPubKey": {
            "asm": "OP_DUP OP_HASH160 d7b47d4b40a23c389f5a17754d7f60f511c7d0ec OP_EQUALVERIFY OP_CHECKSIG",
            "hex": "76a914d7b47d4b40a23c389f5a17754d7f60f511c7d0ec88ac",
            "reqSigs": 1,
            "type": "pubkeyhash",
            "addresses": [
              "yfyzM58VsmjfbXtTzNrYH14TmJvY3Nn3Ms"
            ]
          }
        },
        {
          "value": 2.25000023,
          "valueSat": 225000023,
          "n": 4,
          "scriptPubKey": {
            "asm": "OP_DUP OP_HASH160 dc3e0793134b081145ec0c67a9c72a7b297df27c OP_EQUALVERIFY OP_CHECKSIG",
            "hex": "76a914dc3e0793134b081145ec0c67a9c72a7b297df27c88ac",
            "reqSigs": 1,
            "type": "pubkeyhash",
            "addresses": [
              "ygPypJBcqBEp2aFd8g9AGypzjvPwNe7zb5"
            ]
          }
        }
      ],
      "blockhash": "000000000405534bd808437716679407970520e42f48473bc622898fc64c3b07",
      "height": 193265,
      "confirmations": 138,
      "time": 1532414475,
      "blocktime": 1532414475
    },
    "error": null,
    "id": null
  },
  {
    "result": {
      "hex": "02000000011cf8fe79eb6e8cbf58ac12a0240256012c393848bbbe52fc26e550613f8b4e08010000006a473044022006839b9acce7d2b7611fc5180a19541706c8cd01807cac60af8f89c32fbcf8e002207cd0e05bdd7b6558db092c38ab972b063ac0d783fb682894f12c797493f802bb012103274299f7249e5456f35f545d36d5a9ee8ca9f32de05d04be2a4f03d499e8ed98feffffff0200943577000000001976a914323a8b6425ea6f8dafd411db13bc303219a9e4f088acbc580619150000001976a914ce26d304082d42faa35f32d775ea7697fc21d47288acf0f20200",
      "txid": "f974214f2bfc6e601dc070970ec4bdbf2ed552bd5ec7fa9f5f8a56d3efbd0ec0",
      "size": 225,
      "version": 2,
      "locktime": 193264,
      "vin": [
        {
          "txid": "084e8b3f6150e526fc52bebb4838392c01560224a012ac58bf8c6eeb79fef81c",
          "vout": 1,
          "scriptSig": {
            "asm": "3044022006839b9acce7d2b7611fc5180a19541706c8cd01807cac60af8f89c32fbcf8e002207cd0e05bdd7b6558db092c38ab972b063ac0d783fb682894f12c797493f802bb[ALL] 03274299f7249e5456f35f545d36d5a9ee8ca9f32de05d04be2a4f03d499e8ed98",
            "hex": "473044022006839b9acce7d2b7611fc5180a19541706c8cd01807cac60af8f89c32fbcf8e002207cd0e05bdd7b6558db092c38ab972b063ac0d783fb682894f12c797493f802bb012103274299f7249e5456f35f545d36d5a9ee8ca9f32de05d04be2a4f03d499e8ed98"
          },
          "sequence": 4294967294
        }
      ],
      "vout": [
        {
          "value": 20.00000000,
          "valueSat": 2000000000,
          "n": 0,
          "scriptPubKey": {
            "asm": "OP_DUP OP_HASH160 323a8b6425ea6f8dafd411db13bc303219a9e4f0 OP_EQUALVERIFY OP_CHECKSIG",
            "hex": "76a914323a8b6425ea6f8dafd411db13bc303219a9e4f088ac",
            "reqSigs": 1,
            "type": "pubkeyhash",
            "addresses": [
              "yQu2mY8WuXFQmjPBuzkEQ9z1DrhGBSrLL4"
            ]
          }
        },
        {
          "value": 906.14159548,
          "valueSat": 90614159548,
          "n": 1,
          "scriptPubKey": {
            "asm": "OP_DUP OP_HASH160 ce26d304082d42faa35f32d775ea7697fc21d472 OP_EQUALVERIFY OP_CHECKSIG",
            "hex": "76a914ce26d304082d42faa35f32d775ea7697fc21d47288ac",
            "reqSigs": 1,
            "type": "pubkeyhash",
            "addresses": [
              "yf7UZH6pKHjfyNyJRiqFzKwrZ2UkFuA6XC"
            ]
          }
        }
      ],
      "blockhash": "000000000405534bd808437716679407970520e42f48473bc622898fc64c3b07",
      "height": 193265,
      "confirmations": 138,
      "time": 1532414475,
      "blocktime": 1532414475
    },
    "error": null,
    "id": null
  },
  {
    "result": {
      "hex": "01000000010000000000000000000000000000000000000000000000000000000000000000ffffffff4c03f2f202044cca565b08fabe6d6d78bc9ec2c214a97619000000000d693a54ac8865a0f4e2b6275e59598d093238010000000000000030000001450000000d2f6e6f64655374726174756d2f00000000058074d21a000000001976a914b1582b812799c21c76527a045123ac840190533a88ac40230e43000000001976a91447aeebdda50030b1183ab66a3f407bf6b4ec685188ac403a690d000000001976a914c2c29ebc787954ef99d01c5f79115abf7012fb8e88ac403a690d000000001976a914d7b47d4b40a23c389f5a17754d7f60f511c7d0ec88ac403a690d000000001976a914dc3e0793134b081145ec0c67a9c72a7b297df27c88ac00000000",
      "txid": "d3cdd5ea4717ebc3e5b871f21952cbb23325b3e1c648fb73fd3bdde2ed1e3044",
      "size": 297,
      "version": 1,
      "locktime": 0,
      "vin": [
        {
          "coinbase": "03f2f202044cca565b08fabe6d6d78bc9ec2c214a97619000000000d693a54ac8865a0f4e2b6275e59598d093238010000000000000030000001450000000d2f6e6f64655374726174756d2f",
          "sequence": 0
        }
      ],
      "vout": [
        {
          "value": 4.50000000,
          "valueSat": 450000000,
          "n": 0,
          "scriptPubKey": {
            "asm": "OP_DUP OP_HASH160 b1582b812799c21c76527a045123ac840190533a OP_EQUALVERIFY OP_CHECKSIG",
            "hex": "76a914b1582b812799c21c76527a045123ac840190533a88ac",
            "reqSigs": 1,
            "type": "pubkeyhash",
            "addresses": [
              "ycVA5K3GVovxm77Fz8j55czRPYqzKxgLvW"
            ]
          }
        },
        {
          "value": 11.25000000,
          "valueSat": 1125000000,
          "n": 1,
          "scriptPubKey": {
            "asm": "OP_DUP OP_HASH160 47aeebdda50030b1183ab66a3f407bf6b4ec6851 OP_EQUALVERIFY OP_CHECKSIG",
            "hex": "76a91447aeebdda50030b1183ab66a3f407bf6b4ec685188ac",
            "reqSigs": 1,
            "type": "pubkeyhash",
            "addresses": [
              "ySrUNa6uXci1GMe3d8ria5tdmDt8suaKcV"
            ]
          }
        },
        {
          "value": 2.25000000,
          "valueSat": 225000000,
          "n": 2,
          "scriptPubKey": {
            "asm": "OP_DUP OP_HASH160 c2c29ebc787954ef99d01c5f79115abf7012fb8e OP_EQUALVERIFY OP_CHECKSIG",
            "hex": "76a914c2c29ebc787954ef99d01c5f79115abf7012fb8e88ac",
            "reqSigs": 1,
            "type": "pubkeyhash",
            "addresses": [
              "ye5F5rfx44YqvqCpVvi1SfFS4dvqaqyuDr"
            ]
          }
        },
        {
          "value": 2.25000000,
          "valueSat": 225000000,
          "n": 3,
          "scriptPubKey": {
            "asm": "OP_DUP OP_HASH160 d7b47d4b40a23c389f5a17754d7f60f511c7d0ec OP_EQUALVERIFY OP_CHECKSIG",
            "hex": "76a914d7b47d4b40a23c389f5a17754d7f60f511c7d0ec88ac",
            "reqSigs": 1,
            "type": "pubkeyhash",
            "addresses": [
              "yfyzM58VsmjfbXtTzNrYH14TmJvY3Nn3Ms"
            ]
          }
        },
        {
          "value": 2.25000000,
          "valueSat": 225000000,
          "n": 4,
          "scriptPubKey": {
            "asm": "OP_DUP OP_HASH160 dc3e0793134b081145ec0c67a9c72a7b297df27c OP_EQUALVERIFY OP_CHECKSIG",
            "hex": "76a914dc3e0793134b081145ec0c67a9c72a7b297df27c88ac",
            "reqSigs": 1,
            "type": "pubkeyhash",
            "addresses": [
              "ygPypJBcqBEp2aFd8g9AGypzjvPwNe7zb5"
            ]
          }
        }
      ],
      "blockhash": "000000000511a9e5e43e384ca21afe3afdffc134dd469dcaa933a175f8e9b7d7",
      "height": 193266,
      "confirmations": 137,
      "time": 1532414540,
      "blocktime": 1532414540
    },
    "error": null,
    "id": null
  },
  {
    "result": {
      "hex": "01000000010000000000000000000000000000000000000000000000000000000000000000ffffffff4c03f3f2020499ca565b08fabe6d6d63565641506d6a764e546b6f476a58497445746d63506b62572d2d3558485346010000000000000017ffffff460000000d2f6e6f64655374726174756d2f0000000005d088c310000000001976a914c982406f087057a97456e48d335546ae8d93a03c88ac40230e43000000001976a9148b066cabd6163a7564901237f5b314e23bd51ac288acd088c310000000001976a914c2c29ebc787954ef99d01c5f79115abf7012fb8e88acd088c310000000001976a914d7b47d4b40a23c389f5a17754d7f60f511c7d0ec88acd088c310000000001976a914dc3e0793134b081145ec0c67a9c72a7b297df27c88ac00000000",
      "txid": "5c840e38f6559e727f17e3c5ca6338bd0a271abb3c80358d900f56ddfe90ab94",
      "size": 297,
      "version": 1,
      "locktime": 0,
      "vin": [
        {
          "coinbase": "03f3f2020499ca565b08fabe6d6d63565641506d6a764e546b6f476a58497445746d63506b62572d2d3558485346010000000000000017ffffff460000000d2f6e6f64655374726174756d2f",
          "sequence": 0
        }
      ],
      "vout": [
        {
          "value": 2.81250000,
          "valueSat": 281250000,
          "n": 0,
          "scriptPubKey": {
            "asm": "OP_DUP OP_HASH160 c982406f087057a97456e48d335546ae8d93a03c OP_EQUALVERIFY OP_CHECKSIG",
            "hex": "76a914c982406f087057a97456e48d335546ae8d93a03c88ac",
            "reqSigs": 1,
            "type": "pubkeyhash",
            "addresses": [
              "yegvhonA7HaRvBqp57RVncFAuuqRbMQNXk"
            ]
          }
        },
        {
          "value": 11.25000000,
          "valueSat": 1125000000,
          "n": 1,
          "scriptPubKey": {
            "asm": "OP_DUP OP_HASH160 8b066cabd6163a7564901237f5b314e23bd51ac2 OP_EQUALVERIFY OP_CHECKSIG",
            "hex": "76a9148b066cabd6163a7564901237f5b314e23bd51ac288ac",
            "reqSigs": 1,
            "type": "pubkeyhash",
            "addresses": [
              "yYzYUFR7LkpgDSrCcZWRG3R3PpFfEmdhd8"
            ]
          }
        },
        {
          "value": 2.81250000,
          "valueSat": 281250000,
          "n": 2,
          "scriptPubKey": {
            "asm": "OP_DUP OP_HASH160 c2c29ebc787954ef99d01c5f79115abf7012fb8e OP_EQUALVERIFY OP_CHECKSIG",
            "hex": "76a914c2c29ebc787954ef99d01c5f79115abf7012fb8e88ac",
            "reqSigs": 1,
            "type": "pubkeyhash",
            "addresses": [
              "ye5F5rfx44YqvqCpVvi1SfFS4dvqaqyuDr"
            ]
          }
        },
        {
          "value": 2.81250000,
          "valueSat": 281250000,
          "n": 3,
          "scriptPubKey": {
            "asm": "OP_DUP OP_HASH160 d7b47d4b40a23c389f5a17754d7f60f511c7d0ec OP_EQUALVERIFY OP_CHECKSIG",
            "hex": "76a914d7b47d4b40a23c389f5a17754d7f60f511c7d0ec88ac",
            "reqSigs": 1,
            "type": "pubkeyhash",
            "addresses": [
              "yfyzM58VsmjfbXtTzNrYH14TmJvY3Nn3Ms"
            ]
          }
        },
        {
          "value": 2.81250000,
          "valueSat": 281250000,
          "n": 4,
          "scriptPubKey": {
            "asm": "OP_DUP OP_HASH160 dc3e0793134b081145ec0c67a9c72a7b297df27c OP_EQUALVERIFY OP_CHECKSIG",
            "hex": "76a914dc3e0793134b081145ec0c67a9c72a7b297df27c88ac",
            "reqSigs": 1,
            "type": "pubkeyhash",
            "addresses": [
              "ygPypJBcqBEp2aFd8g9AGypzjvPwNe7zb5"
            ]
          }
        }
      ],
      "blockhash": "00000000027dfd1edcce368a1ec92caae203c4768559665ee72025089146e076",
      "height": 193267,
      "confirmations": 137,
      "time": 1532414617,
      "blocktime": 1532414617
    },
    "error": null,
    "id": null
  }
]