[
  {
    "result": {
      "hex": "01000000010000000000000000000000000000000000000000000000000000000000000000ffffffff4c03e9f20204d6c2565b08fabe6d6d0000000000000d01000000000000000000000000000000000000000000000000010000000000000017ffffff510000000d2f6e6f64655374726174756d2f0000000005d088c310000000001976a914c982406f087057a97456e48d335546ae8d93a03c88ac40230e43000000001976a9140212e45ec49a3de602e0a281eede5002b89664ea88acd088c310000000001976a914c2c29ebc787954ef99d01c5f79115abf7012fb8e88acd088c310000000001976a914d7b47d4b40a23c389f5a17754d7f60f511c7d0ec88acd088c310000000001976a914dc3e0793134b081145ec0c67a9c72a7b297df27c88ac00000000",
      "txid": "c9b338b1b20d3edd68f67ce12c00f061e53009536ff15a3e7fdc15f18d51fa32",
      "size": 297,
      "version": 1,
      "locktime": 0,
      "vin": [
        {
          "coinbase": "03e9f20204d6c2565b08fabe6d6d0000000000000d01000000000000000000000000000000000000000000000000010000000000000017ffffff510000000d2f6e6f64655374726174756d2f",
          "sequence": 0
        }
      ],
      "vout": [
        {
          "value": 2.81250000,
          "valueSat": 281250000,
          "n": 0,
          "scriptPubKey": {
            "asm": "OP_DUP OP_HASH160 c982406f087057a97456e48d335546ae8d93a03c OP_EQUALVERIFY OP_CHECKSIG",
            "hex": "76a914c982406f087057a97456e48d335546ae8d93a03c88ac",
            "reqSigs": 1,
            "type": "pubkeyhash",
            "addresses": [
              "yegvhonA7HaRvBqp57RVncFAuuqRbMQNXk"
            ]
          }
        },
        {
          "value": 11.25000000,
          "valueSat": 1125000000,
          "n": 1,
          "scriptPubKey": {
            "asm": "OP_DUP OP_HASH160 0212e45ec49a3de602e0a281eede5002b89664ea OP_EQUALVERIFY OP_CHECKSIG",
            "hex": "76a9140212e45ec49a3de602e0a281eede5002b89664ea88ac",
            "reqSigs": 1,
            "type": "pubkeyhash",
            "addresses": [
              "yLWQqELkWTuWLqXXW3g75LAW7ggnZsYR6m"
            ]
          }
        },
        {
          "value": 2.81250000,
          "valueSat": 281250000,
          "n": 2,
          "scriptPubKey": {
            "asm": "OP_DUP OP_HASH160 c2c29ebc787954ef99d01c5f79115abf7012fb8e OP_EQUALVERIFY OP_CHECKSIG",
            "hex": "76a914c2c29ebc787954ef99d01c5f79115abf7012fb8e88ac",
            "reqSigs": 1,
            "type": "pubkeyhash",
            "addresses": [
              "ye5F5rfx44YqvqCpVvi1SfFS4dvqaqyuDr"
            ]
          }
        },
        {
          "value": 2.81250000,
          "valueSat": 281250000,
          "n": 3,
          "scriptPubKey": {
            "asm": "OP_DUP OP_HASH160 d7b47d4b40a23c389f5a17754d7f60f511c7d0ec OP_EQUALVERIFY OP_CHECKSIG",
            "hex": "76a914d7b47d4b40a23c389f5a17754d7f60f511c7d0ec88ac",
            "reqSigs": 1,
            "type": "pubkeyhash",
            "addresses": [
              "yfyzM58VsmjfbXtTzNrYH14TmJvY3Nn3Ms"
            ]
          }
        },
        {
          "value": 2.81250000,
          "valueSat": 281250000,
          "n": 4,
          "scriptPubKey": {
            "asm": "OP_DUP OP_HASH160 dc3e0793134b081145ec0c67a9c72a7b297df27c OP_EQUALVERIFY OP_CHECKSIG",
            "hex": "76a914dc3e0793134b081145ec0c67a9c72a7b297df27c88ac",
            "reqSigs": 1,
            "type": "pubkeyhash",
            "addresses": [
              "ygPypJBcqBEp2aFd8g9AGypzjvPwNe7zb5"
            ]
          }
        }
      ],
      "blockhash": "0000000006a6ea89e74e9fa46eb505daa3265fc4e8892e5e2fc6da7baf0ae259",
      "height": 193257,
      "confirmations": 119,
      "time": 1532412630,
      "blocktime": 1532412630
    },
    "error": null,
    "id": null
  },
  {
    "result": {
      "hex": "01000000010000000000000000000000000000000000000000000000000000000000000000ffffffff4c03eaf20204aec4565b08fabe6d6d63565641506d6a764e546b6f476a58497445746d63506b62572d2d3558485346010000000000000017ffffffd30100000d2f6e6f64655374726174756d2f0000000005ea8dc310000000001976a914c982406f087057a97456e48d335546ae8d93a03c88ac93370e43000000001976a914acc22c0822d82ae13e1a05f8506aea8783ab1e1e88ace78dc310000000001976a914c2c29ebc787954ef99d01c5f79115abf7012fb8e88ace78dc310000000001976a914d7b47d4b40a23c389f5a17754d7f60f511c7d0ec88ace78dc310000000001976a914dc3e0793134b081145ec0c67a9c72a7b297df27c88ac00000000",
      "txid": "d63c1ffed55c96808c861e79a5aa58dbff7114bd230c4a0669ef91d1d87da397",
      "size": 297,
      "version": 1,
      "locktime": 0,
      "vin": [
        {
          "coinbase": "03eaf20204aec4565b08fabe6d6d63565641506d6a764e546b6f476a58497445746d63506b62572d2d3558485346010000000000000017ffffffd30100000d2f6e6f64655374726174756d2f",
          "sequence": 0
        }
      ],
      "vout": [
        {
          "value": 2.81251306,
          "valueSat": 281251306,
          "n": 0,
          "scriptPubKey": {
            "asm": "OP_DUP OP_HASH160 c982406f087057a97456e48d335546ae8d93a03c OP_EQUALVERIFY OP_CHECKSIG",
            "hex": "76a914c982406f087057a97456e48d335546ae8d93a03c88ac",
            "reqSigs": 1,
            "type": "pubkeyhash",
            "addresses": [
              "yegvhonA7HaRvBqp57RVncFAuuqRbMQNXk"
            ]
          }
        },
        {
          "value": 11.25005203,
          "valueSat": 1125005203,
          "n": 1,
          "scriptPubKey": {
            "asm": "OP_DUP OP_HASH160 acc22c0822d82ae13e1a05f8506aea8783ab1e1e OP_EQUALVERIFY OP_CHECKSIG",
            "hex": "76a914acc22c0822d82ae13e1a05f8506aea8783ab1e1e88ac",
            "reqSigs": 1,
            "type": "pubkeyhash",
            "addresses": [
              "yc4ugWEmEhSvwgypf7UyfmXcAVAmQioDBz"
            ]
          }
        },
        {
          "value": 2.81251303,
          "valueSat": 281251303,
          "n": 2,
          "scriptPubKey": {
            "asm": "OP_DUP OP_HASH160 c2c29ebc787954ef99d01c5f79115abf7012fb8e OP_EQUALVERIFY OP_CHECKSIG",
            "hex": "76a914c2c29ebc787954ef99d01c5f79115abf7012fb8e88ac",
            "reqSigs": 1,
            "type": "pubkeyhash",
            "addresses": [
              "ye5F5rfx44YqvqCpVvi1SfFS4dvqaqyuDr"
            ]
          }
        },
        {
          "value": 2.81251303,
          "valueSat": 281251303,
          "n": 3,
          "scriptPubKey": {
            "asm": "OP_DUP OP_HASH160 d7b47d4b40a23c389f5a17754d7f60f511c7d0ec OP_EQUALVERIFY OP_CHECKSIG",
            "hex": "76a914d7b47d4b40a23c389f5a17754d7f60f511c7d0ec88ac",
            "reqSigs": 1,
            "type": "pubkeyhash",
            "addresses": [
              "yfyzM58VsmjfbXtTzNrYH14TmJvY3Nn3Ms"
            ]
          }
        },
        {
          "value": 2.81251303,
          "valueSat": 281251303,
          "n": 4,
          "scriptPubKey": {
            "asm": "OP_DUP OP_HASH160 dc3e0793134b081145ec0c67a9c72a7b297df27c OP_EQUALVERIFY OP_CHECKSIG",
            "hex": "76a914dc3e0793134b081145ec0c67a9c72a7b297df27c88ac",
            "reqSigs": 1,
            "type": "pubkeyhash",
            "addresses": [
              "ygPypJBcqBEp2aFd8g9AGypzjvPwNe7zb5"
            ]
          }
        }
      ],
      "blockhash": "00000000051409da42d311fd30c26d1bc56967f490285e1ab7b70cd8b1826b2e",
      "height": 193258,
      "confirmations": 117,
      "time": 1532413102,
      "blocktime": 1532413102
    },
    "error": null,
    "id": null
  },
  {
    "result": {
      "hex": "0200000001039c8ace6fd34d15a6f1070db8b29415b97955bf5ac1c5f0e55397bbf55943db010000006b48304502210084da6fd5a6c5f9cdc2dab20ac433faa7f11b6506ac15984269f6206d62ad60940220556f9126e89deabeb419c26acb9152fae7a5c88e43ed465672107bdb0badfca701210222c5c122eaabd36d6e177b5f2abe1155b3e138e18c45683c884113dcf7db3647feffffff0280d247e4170000001976a914c4b1f1ef8bd151d9f62451dd03817e23758f2bdf88acfa44326d2d0000001976a9149832aef26bd4363f94d6fe9c60da0e7e6bab75a288acb9f20200",
      "txid": "d14317728566e012f18bc9e691639cbe425b181c4339eae2773e0e0c0bc83afd",
      "size": 226,
      "version": 2,
      "locktime": 193209,
      "vin": [
        {
          "txid": "db4359f5bb9753e5f0c5c15abf5579b91594b2b80d07f1a6154dd36fce8a9c03",
          "vout": 1,
          "scriptSig": {
            "asm": "304502210084da6fd5a6c5f9cdc2dab20ac433faa7f11b6506ac15984269f6206d62ad60940220556f9126e89deabeb419c26acb9152fae7a5c88e43ed465672107bdb0badfca7[ALL] 0222c5c122eaabd36d6e177b5f2abe1155b3e138e18c45683c884113dcf7db3647",
            "hex": "48304502210084da6fd5a6c5f9cdc2dab20ac433faa7f11b6506ac15984269f6206d62ad60940220556f9126e89deabeb419c26acb9152fae7a5c88e43ed465672107bdb0badfca701210222c5c122eaabd36d6e177b5f2abe1155b3e138e18c45683c884113dcf7db3647"
          },
          "sequence": 4294967294
        }
      ],
      "vout": [
        {
          "value": 1026.14160000,
          "valueSat": 102614160000,
          "n": 0,
          "scriptPubKey": {
            "asm": "OP_DUP OP_HASH160 c4b1f1ef8bd151d9f62451dd03817e23758f2bdf OP_EQUALVERIFY OP_CHECKSIG",
            "hex": "76a914c4b1f1ef8bd151d9f62451dd03817e23758f2bdf88ac",
            "reqSigs": 1,
            "type": "pubkeyhash",
            "addresses": [
              "yeFUTeA4FzS5UhvDNDCSN4vsy98edjSHq4"
            ]
          }
        },
        {
          "value": 1951.05539322,
          "valueSat": 195105539322,
          "n": 1,
          "scriptPubKey": {
            "asm": "OP_DUP OP_HASH160 9832aef26bd4363f94d6fe9c60da0e7e6bab75a2 OP_EQUALVERIFY OP_CHECKSIG",
            "hex": "76a9149832aef26bd4363f94d6fe9c60da0e7e6bab75a288ac",
            "reqSigs": 1,
            "type": "pubkeyhash",
            "addresses": [
              "yaCCGuRiNL35n2x9AbRVDnuMSJ4JdzZQC4"
            ]
          }
        }
      ],
      "blockhash": "00000000051409da42d311fd30c26d1bc56967f490285e1ab7b70cd8b1826b2e",
      "height": 193258,
      "confirmations": 117,
      "time": 1532413102,
      "blocktime": 1532413102
    },
    "error": null,
    "id": null
  },
  {
    "result": {
      "hex": "0100000001a45205545aabcbb89dd22185367d0b88e296b6225d0b341955966aab02fce5d9000000006a47304402200495086eeb0bcca8f738354f225392889ecd1b7bdf3257718bec5526dbe76fa202206e07fa1d5d63af8a7f312396482cbbca4c63b250a57bf1c23752be14a60a87f3012102a7d762235885a344c3440300cbeff7714bd364d3ec68a7f69ce986bdf7d1ef2affffffff0210f69900000000001976a914a50e7196b60edbde0b3b4c80b6dcbafbd0d8c6de88ac40420f00000000001976a914b9bb9bdc7325dad0ccac0b0980bd6827641b196f88ac00000000",
      "txid": "6e2b300074b784a8f3d5fa1deee9427a1d818b9d153baa4aef85e48d52c5387b",
      "size": 225,
      "version": 1,
      "locktime": 0,
      "vin": [
        {
          "txid": "d9e5fc02ab6a965519340b5d22b696e2880b7d368521d29db8cbab5a540552a4",
          "vout": 0,
          "scriptSig": {
            "asm": "304402200495086eeb0bcca8f738354f225392889ecd1b7bdf3257718bec5526dbe76fa202206e07fa1d5d63af8a7f312396482cbbca4c63b250a57bf1c23752be14a60a87f3[ALL] 02a7d762235885a344c3440300cbeff7714bd364d3ec68a7f69ce986bdf7d1ef2a",
            "hex": "47304402200495086eeb0bcca8f738354f225392889ecd1b7bdf3257718bec5526dbe76fa202206e07fa1d5d63af8a7f312396482cbbca4c63b250a57bf1c23752be14a60a87f3012102a7d762235885a344c3440300cbeff7714bd364d3ec68a7f69ce986bdf7d1ef2a"
          },
          "sequence": 4294967295
        }
      ],
      "vout": [
        {
          "value": 0.10090000,
          "valueSat": 10090000,
          "n": 0,
          "scriptPubKey": {
            "asm": "OP_DUP OP_HASH160 a50e7196b60edbde0b3b4c80b6dcbafbd0d8c6de OP_EQUALVERIFY OP_CHECKSIG",
            "hex": "76a914a50e7196b60edbde0b3b4c80b6dcbafbd0d8c6de88ac",
            "reqSigs": 1,
            "type": "pubkeyhash",
            "addresses": [
              "ybNBeRPhQAx1JwwtisThu5bcSWfB2mdZ72"
            ]
          }
        },
        {
          "value": 0.01000000,
          "valueSat": 1000000,
          "n": 1,
          "scriptPubKey": {
            "asm": "OP_DUP OP_HASH160 b9bb9bdc7325dad0ccac0b0980bd6827641b196f OP_EQUALVERIFY OP_CHECKSIG",
            "hex": "76a914b9bb9bdc7325dad0ccac0b0980bd6827641b196f88ac",
            "reqSigs": 1,
            "type": "pubkeyhash",
            "addresses": [
              "ydFWbyuLqrPTCk1jQssX9tJnUeAMfshyXe"
            ]
          }
        }
      ],
      "blockhash": "00000000051409da42d311fd30c26d1bc56967f490285e1ab7b70cd8b1826b2e",
      "height": 193258,
      "confirmations": 117,
      "time": 1532413102,
      "blocktime": 1532413102
    },
    "error": null,
    "id": null
  },
  {
    "result": {
      "hex": "020000000147b51cbad049428545ec4cdba25c9a6c1a6aa4741de7b13e0ab8394919e6ca89000000006a47304402201b41e132a225ac1d540a04c3a6d5d50b2b2cb058b28b4cc09515abeee4588a320220451b86562f22f32828cfb6fb8bfd8046b858084dc1ca4fff24abe28a8fd1e16d0121033fba4f4f83611f0378603d65ccaba107fb0d7496328def2e39aae46e75151ce2feffffff019af93080020000001976a914908ec52bf386a9c2863d69ceb41c65036b7436a788ace9f20200",
      "txid": "e292880ffbd907868615a12aa0668f33fe66c86654b04521b0da027ee4ff9a00",
      "size": 191,
      "version": 2,
      "locktime": 193257,
      "vin": [
        {
          "txid": "89cae6194939b80a3eb1e71d74a46a1a6c9a5ca2db4cec45854249d0ba1cb547",
          "vout": 0,
          "scriptSig": {
            "asm": "304402201b41e132a225ac1d540a04c3a6d5d50b2b2cb058b28b4cc09515abeee4588a320220451b86562f22f32828cfb6fb8bfd8046b858084dc1ca4fff24abe28a8fd1e16d[ALL] 033fba4f4f83611f0378603d65ccaba107fb0d7496328def2e39aae46e75151ce2",
            "hex": "47304402201b41e132a225ac1d540a04c3a6d5d50b2b2cb058b28b4cc09515abeee4588a320220451b86562f22f32828cfb6fb8bfd8046b858084dc1ca4fff24abe28a8fd1e16d0121033fba4f4f83611f0378603d65ccaba107fb0d7496328def2e39aae46e75151ce2"
          },
          "sequence": 4294967294
        }
      ],
      "vout": [
        {
          "value": 107.40627866,
          "valueSat": 10740627866,
          "n": 0,
          "scriptPubKey": {
            "asm": "OP_DUP OP_HASH160 908ec52bf386a9c2863d69ceb41c65036b7436a7 OP_EQUALVERIFY OP_CHECKSIG",
            "hex": "76a914908ec52bf386a9c2863d69ceb41c65036b7436a788ac",
            "reqSigs": 1,
            "type": "pubkeyhash",
            "addresses": [
              "yZVoBg4AWV6rieCcWphxQtyupwrsNXeiaR"
            ]
          }
        }
      ],
      "blockhash": "00000000051409da42d311fd30c26d1bc56967f490285e1ab7b70cd8b1826b2e",
      "height": 193258,
      "confirmations": 117,
      "time": 1532413102,
      "blocktime": 1532413102
    },
    "error": null,
    "id": null
  }
]